{
	"contracts/HelloWorld5.sol": {
		"MGNToken": {
			"abi": [
				{
					"inputs": [],
					"stateMutability": "nonpayable",
					"type": "constructor"
				},
				{
					"inputs": [
						{
							"internalType": "address",
							"name": "spender",
							"type": "address"
						},
						{
							"internalType": "uint256",
							"name": "allowance",
							"type": "uint256"
						},
						{
							"internalType": "uint256",
							"name": "needed",
							"type": "uint256"
						}
					],
					"name": "ERC20InsufficientAllowance",
					"type": "error"
				},
				{
					"inputs": [
						{
							"internalType": "address",
							"name": "sender",
							"type": "address"
						},
						{
							"internalType": "uint256",
							"name": "balance",
							"type": "uint256"
						},
						{
							"internalType": "uint256",
							"name": "needed",
							"type": "uint256"
						}
					],
					"name": "ERC20InsufficientBalance",
					"type": "error"
				},
				{
					"inputs": [
						{
							"internalType": "address",
							"name": "approver",
							"type": "address"
						}
					],
					"name": "ERC20InvalidApprover",
					"type": "error"
				},
				{
					"inputs": [
						{
							"internalType": "address",
							"name": "receiver",
							"type": "address"
						}
					],
					"name": "ERC20InvalidReceiver",
					"type": "error"
				},
				{
					"inputs": [
						{
							"internalType": "address",
							"name": "sender",
							"type": "address"
						}
					],
					"name": "ERC20InvalidSender",
					"type": "error"
				},
				{
					"inputs": [
						{
							"internalType": "address",
							"name": "spender",
							"type": "address"
						}
					],
					"name": "ERC20InvalidSpender",
					"type": "error"
				},
				{
					"anonymous": false,
					"inputs": [
						{
							"indexed": true,
							"internalType": "address",
							"name": "owner",
							"type": "address"
						},
						{
							"indexed": true,
							"internalType": "address",
							"name": "spender",
							"type": "address"
						},
						{
							"indexed": false,
							"internalType": "uint256",
							"name": "value",
							"type": "uint256"
						}
					],
					"name": "Approval",
					"type": "event"
				},
				{
					"anonymous": false,
					"inputs": [
						{
							"indexed": true,
							"internalType": "address",
							"name": "sender",
							"type": "address"
						},
						{
							"indexed": true,
							"internalType": "address",
							"name": "receiver",
							"type": "address"
						},
						{
							"indexed": false,
							"internalType": "uint256",
							"name": "value",
							"type": "uint256"
						},
						{
							"indexed": false,
							"internalType": "string",
							"name": "timestamp",
							"type": "string"
						}
					],
					"name": "TransactionInfo",
					"type": "event"
				},
				{
					"anonymous": false,
					"inputs": [
						{
							"indexed": true,
							"internalType": "address",
							"name": "from",
							"type": "address"
						},
						{
							"indexed": true,
							"internalType": "address",
							"name": "to",
							"type": "address"
						},
						{
							"indexed": false,
							"internalType": "uint256",
							"name": "value",
							"type": "uint256"
						}
					],
					"name": "Transfer",
					"type": "event"
				},
				{
					"inputs": [],
					"name": "INITIAL_SUPPLY",
					"outputs": [
						{
							"internalType": "uint256",
							"name": "",
							"type": "uint256"
						}
					],
					"stateMutability": "view",
					"type": "function"
				},
				{
					"inputs": [],
					"name": "admin",
					"outputs": [
						{
							"internalType": "address",
							"name": "",
							"type": "address"
						}
					],
					"stateMutability": "view",
					"type": "function"
				},
				{
					"inputs": [
						{
							"internalType": "address",
							"name": "owner",
							"type": "address"
						},
						{
							"internalType": "address",
							"name": "spender",
							"type": "address"
						}
					],
					"name": "allowance",
					"outputs": [
						{
							"internalType": "uint256",
							"name": "",
							"type": "uint256"
						}
					],
					"stateMutability": "view",
					"type": "function"
				},
				{
					"inputs": [
						{
							"internalType": "address",
							"name": "spender",
							"type": "address"
						},
						{
							"internalType": "uint256",
							"name": "value",
							"type": "uint256"
						}
					],
					"name": "approve",
					"outputs": [
						{
							"internalType": "bool",
							"name": "",
							"type": "bool"
						}
					],
					"stateMutability": "nonpayable",
					"type": "function"
				},
				{
					"inputs": [
						{
							"internalType": "address",
							"name": "account",
							"type": "address"
						}
					],
					"name": "balanceOf",
					"outputs": [
						{
							"internalType": "uint256",
							"name": "",
							"type": "uint256"
						}
					],
					"stateMutability": "view",
					"type": "function"
				},
				{
					"inputs": [
						{
							"internalType": "uint256",
							"name": "amount",
							"type": "uint256"
						}
					],
					"name": "burn",
					"outputs": [],
					"stateMutability": "nonpayable",
					"type": "function"
				},
				{
					"inputs": [],
					"name": "decimals",
					"outputs": [
						{
							"internalType": "uint8",
							"name": "",
							"type": "uint8"
						}
					],
					"stateMutability": "view",
					"type": "function"
				},
				{
					"inputs": [],
					"name": "getLatestTransactionTimestamp",
					"outputs": [
						{
							"internalType": "string",
							"name": "",
							"type": "string"
						}
					],
					"stateMutability": "view",
					"type": "function"
				},
				{
					"inputs": [],
					"name": "getTransactionReceiver",
					"outputs": [
						{
							"internalType": "address",
							"name": "",
							"type": "address"
						}
					],
					"stateMutability": "view",
					"type": "function"
				},
				{
					"inputs": [],
					"name": "getTransactionSender",
					"outputs": [
						{
							"internalType": "address",
							"name": "",
							"type": "address"
						}
					],
					"stateMutability": "view",
					"type": "function"
				},
				{
					"inputs": [
						{
							"internalType": "address",
							"name": "to",
							"type": "address"
						},
						{
							"internalType": "uint256",
							"name": "amount",
							"type": "uint256"
						}
					],
					"name": "mint",
					"outputs": [],
					"stateMutability": "nonpayable",
					"type": "function"
				},
				{
					"inputs": [],
					"name": "name",
					"outputs": [
						{
							"internalType": "string",
							"name": "",
							"type": "string"
						}
					],
					"stateMutability": "view",
					"type": "function"
				},
				{
					"inputs": [],
					"name": "symbol",
					"outputs": [
						{
							"internalType": "string",
							"name": "",
							"type": "string"
						}
					],
					"stateMutability": "view",
					"type": "function"
				},
				{
					"inputs": [],
					"name": "totalSupply",
					"outputs": [
						{
							"internalType": "uint256",
							"name": "",
							"type": "uint256"
						}
					],
					"stateMutability": "view",
					"type": "function"
				},
				{
					"inputs": [
						{
							"internalType": "address",
							"name": "to",
							"type": "address"
						},
						{
							"internalType": "uint256",
							"name": "value",
							"type": "uint256"
						}
					],
					"name": "transfer",
					"outputs": [
						{
							"internalType": "bool",
							"name": "",
							"type": "bool"
						}
					],
					"stateMutability": "nonpayable",
					"type": "function"
				},
				{
					"inputs": [
						{
							"internalType": "address",
							"name": "from",
							"type": "address"
						},
						{
							"internalType": "address",
							"name": "to",
							"type": "address"
						},
						{
							"internalType": "uint256",
							"name": "value",
							"type": "uint256"
						}
					],
					"name": "transferFrom",
					"outputs": [
						{
							"internalType": "bool",
							"name": "",
							"type": "bool"
						}
					],
					"stateMutability": "nonpayable",
					"type": "function"
				}
			],
			"devdoc": {
				"errors": {
					"ERC20InsufficientAllowance(address,uint256,uint256)": [
						{
							"details": "Indicates a failure with the `spender`’s `allowance`. Used in transfers.",
							"params": {
								"allowance": "Amount of tokens a `spender` is allowed to operate with.",
								"needed": "Minimum amount required to perform a transfer.",
								"spender": "Address that may be allowed to operate on tokens without being their owner."
							}
						}
					],
					"ERC20InsufficientBalance(address,uint256,uint256)": [
						{
							"details": "Indicates an error related to the current `balance` of a `sender`. Used in transfers.",
							"params": {
								"balance": "Current balance for the interacting account.",
								"needed": "Minimum amount required to perform a transfer.",
								"sender": "Address whose tokens are being transferred."
							}
						}
					],
					"ERC20InvalidApprover(address)": [
						{
							"details": "Indicates a failure with the `approver` of a token to be approved. Used in approvals.",
							"params": {
								"approver": "Address initiating an approval operation."
							}
						}
					],
					"ERC20InvalidReceiver(address)": [
						{
							"details": "Indicates a failure with the token `receiver`. Used in transfers.",
							"params": {
								"receiver": "Address to which tokens are being transferred."
							}
						}
					],
					"ERC20InvalidSender(address)": [
						{
							"details": "Indicates a failure with the token `sender`. Used in transfers.",
							"params": {
								"sender": "Address whose tokens are being transferred."
							}
						}
					],
					"ERC20InvalidSpender(address)": [
						{
							"details": "Indicates a failure with the `spender` to be approved. Used in approvals.",
							"params": {
								"spender": "Address that may be allowed to operate on tokens without being their owner."
							}
						}
					]
				},
				"events": {
					"Approval(address,address,uint256)": {
						"details": "Emitted when the allowance of a `spender` for an `owner` is set by a call to {approve}. `value` is the new allowance."
					},
					"Transfer(address,address,uint256)": {
						"details": "Emitted when `value` tokens are moved from one account (`from`) to another (`to`). Note that `value` may be zero."
					}
				},
				"kind": "dev",
				"methods": {
					"allowance(address,address)": {
						"details": "See {IERC20-allowance}."
					},
					"approve(address,uint256)": {
						"details": "See {IERC20-approve}. NOTE: If `value` is the maximum `uint256`, the allowance is not updated on `transferFrom`. This is semantically equivalent to an infinite approval. Requirements: - `spender` cannot be the zero address."
					},
					"balanceOf(address)": {
						"details": "See {IERC20-balanceOf}."
					},
					"decimals()": {
						"details": "Returns the number of decimals used to get its user representation. For example, if `decimals` equals `2`, a balance of `505` tokens should be displayed to a user as `5.05` (`505 / 10 ** 2`). Tokens usually opt for a value of 18, imitating the relationship between Ether and Wei. This is the default value returned by this function, unless it's overridden. NOTE: This information is only used for _display_ purposes: it in no way affects any of the arithmetic of the contract, including {IERC20-balanceOf} and {IERC20-transfer}."
					},
					"name()": {
						"details": "Returns the name of the token."
					},
					"symbol()": {
						"details": "Returns the symbol of the token, usually a shorter version of the name."
					},
					"totalSupply()": {
						"details": "See {IERC20-totalSupply}."
					},
					"transfer(address,uint256)": {
						"details": "See {IERC20-transfer}. Requirements: - `to` cannot be the zero address. - the caller must have a balance of at least `value`."
					},
					"transferFrom(address,address,uint256)": {
						"details": "See {IERC20-transferFrom}. Emits an {Approval} event indicating the updated allowance. This is not required by the EIP. See the note at the beginning of {ERC20}. NOTE: Does not update the allowance if the current allowance is the maximum `uint256`. Requirements: - `from` and `to` cannot be the zero address. - `from` must have a balance of at least `value`. - the caller must have allowance for ``from``'s tokens of at least `value`."
					}
				},
				"version": 1
			},
			"evm": {
				"assembly": "    /* \"contracts/HelloWorld5.sol\":115:3828  contract MGNToken is ERC20 {... */\n  mstore(0x40, 0x80)\n    /* \"contracts/HelloWorld5.sol\":235:356  constructor() ERC20(\"AITU_MAGZHAN\", \"MGN\") {... */\n  callvalue\n  dup1\n  iszero\n  tag_1\n  jumpi\n  0x00\n  dup1\n  revert\ntag_1:\n  pop\n    /* \"@openzeppelin/contracts/token/ERC20/ERC20.sol\":1896:2009  constructor(string memory name_, string memory symbol_) {... */\n  mload(0x40)\n  dup1\n  0x40\n  add\n  0x40\n  mstore\n  dup1\n  0x0c\n  dup2\n  mstore\n  0x20\n  add\n  0x414954555f4d41475a48414e0000000000000000000000000000000000000000\n  dup2\n  mstore\n  pop\n  mload(0x40)\n  dup1\n  0x40\n  add\n  0x40\n  mstore\n  dup1\n  0x03\n  dup2\n  mstore\n  0x20\n  add\n  0x4d474e0000000000000000000000000000000000000000000000000000000000\n  dup2\n  mstore\n  pop\n    /* \"@openzeppelin/contracts/token/ERC20/ERC20.sol\":1970:1975  name_ */\n  dup2\n    /* \"@openzeppelin/contracts/token/ERC20/ERC20.sol\":1962:1967  _name */\n  0x03\n    /* \"@openzeppelin/contracts/token/ERC20/ERC20.sol\":1962:1975  _name = name_ */\n  swap1\n  dup2\n  tag_5\n  swap2\n  swap1\n  tag_6\n  jump\t// in\ntag_5:\n  pop\n    /* \"@openzeppelin/contracts/token/ERC20/ERC20.sol\":1995:2002  symbol_ */\n  dup1\n    /* \"@openzeppelin/contracts/token/ERC20/ERC20.sol\":1985:1992  _symbol */\n  0x04\n    /* \"@openzeppelin/contracts/token/ERC20/ERC20.sol\":1985:2002  _symbol = symbol_ */\n  swap1\n  dup2\n  tag_7\n  swap2\n  swap1\n  tag_6\n  jump\t// in\ntag_7:\n  pop\n    /* \"@openzeppelin/contracts/token/ERC20/ERC20.sol\":1896:2009  constructor(string memory name_, string memory symbol_) {... */\n  pop\n  pop\n    /* \"contracts/HelloWorld5.sol\":288:321  _mint(msg.sender, INITIAL_SUPPLY) */\n  tag_9\n    /* \"contracts/HelloWorld5.sol\":294:304  msg.sender */\n  caller\n    /* \"contracts/HelloWorld5.sol\":215:228  2000 * 10**18 */\n  0x6c6b935b8bbd400000\n    /* \"contracts/HelloWorld5.sol\":288:293  _mint */\n  shl(0x20, tag_10)\n    /* \"contracts/HelloWorld5.sol\":288:321  _mint(msg.sender, INITIAL_SUPPLY) */\n  0x20\n  shr\n  jump\t// in\ntag_9:\n    /* \"contracts/HelloWorld5.sol\":339:349  msg.sender */\n  caller\n    /* \"contracts/HelloWorld5.sol\":331:336  admin */\n  0x05\n  0x00\n    /* \"contracts/HelloWorld5.sol\":331:349  admin = msg.sender */\n  0x0100\n  exp\n  dup2\n  sload\n  dup2\n  0xffffffffffffffffffffffffffffffffffffffff\n  mul\n  not\n  and\n  swap1\n  dup4\n  0xffffffffffffffffffffffffffffffffffffffff\n  and\n  mul\n  or\n  swap1\n  sstore\n  pop\n    /* \"contracts/HelloWorld5.sol\":115:3828  contract MGNToken is ERC20 {... */\n  jump(tag_11)\n    /* \"@openzeppelin/contracts/token/ERC20/ERC20.sol\":7721:7929  function _mint(address account, uint256 value) internal {... */\ntag_10:\n    /* \"@openzeppelin/contracts/token/ERC20/ERC20.sol\":7810:7811  0 */\n  0x00\n    /* \"@openzeppelin/contracts/token/ERC20/ERC20.sol\":7791:7812  account == address(0) */\n  0xffffffffffffffffffffffffffffffffffffffff\n  and\n    /* \"@openzeppelin/contracts/token/ERC20/ERC20.sol\":7791:7798  account */\n  dup3\n    /* \"@openzeppelin/contracts/token/ERC20/ERC20.sol\":7791:7812  account == address(0) */\n  0xffffffffffffffffffffffffffffffffffffffff\n  and\n  sub\n    /* \"@openzeppelin/contracts/token/ERC20/ERC20.sol\":7787:7878  if (account == address(0)) {... */\n  tag_13\n  jumpi\n    /* \"@openzeppelin/contracts/token/ERC20/ERC20.sol\":7864:7865  0 */\n  0x00\n    /* \"@openzeppelin/contracts/token/ERC20/ERC20.sol\":7835:7867  ERC20InvalidReceiver(address(0)) */\n  mload(0x40)\n  0xec442f0500000000000000000000000000000000000000000000000000000000\n  dup2\n  mstore\n  0x04\n  add\n  tag_14\n  swap2\n  swap1\n  tag_15\n  jump\t// in\ntag_14:\n  mload(0x40)\n  dup1\n  swap2\n  sub\n  swap1\n  revert\n    /* \"@openzeppelin/contracts/token/ERC20/ERC20.sol\":7787:7878  if (account == address(0)) {... */\ntag_13:\n    /* \"@openzeppelin/contracts/token/ERC20/ERC20.sol\":7887:7922  _update(address(0), account, value) */\n  tag_16\n    /* \"@openzeppelin/contracts/token/ERC20/ERC20.sol\":7903:7904  0 */\n  0x00\n    /* \"@openzeppelin/contracts/token/ERC20/ERC20.sol\":7907:7914  account */\n  dup4\n    /* \"@openzeppelin/contracts/token/ERC20/ERC20.sol\":7916:7921  value */\n  dup4\n    /* \"@openzeppelin/contracts/token/ERC20/ERC20.sol\":7887:7894  _update */\n  shl(0x20, tag_17)\n    /* \"@openzeppelin/contracts/token/ERC20/ERC20.sol\":7887:7922  _update(address(0), account, value) */\n  0x20\n  shr\n  jump\t// in\ntag_16:\n    /* \"@openzeppelin/contracts/token/ERC20/ERC20.sol\":7721:7929  function _mint(address account, uint256 value) internal {... */\n  pop\n  pop\n  jump\t// out\n    /* \"@openzeppelin/contracts/token/ERC20/ERC20.sol\":6271:7378  function _update(address from, address to, uint256 value) internal virtual {... */\ntag_17:\n    /* \"@openzeppelin/contracts/token/ERC20/ERC20.sol\":6376:6377  0 */\n  0x00\n    /* \"@openzeppelin/contracts/token/ERC20/ERC20.sol\":6360:6378  from == address(0) */\n  0xffffffffffffffffffffffffffffffffffffffff\n  and\n    /* \"@openzeppelin/contracts/token/ERC20/ERC20.sol\":6360:6364  from */\n  dup4\n    /* \"@openzeppelin/contracts/token/ERC20/ERC20.sol\":6360:6378  from == address(0) */\n  0xffffffffffffffffffffffffffffffffffffffff\n  and\n  sub\n    /* \"@openzeppelin/contracts/token/ERC20/ERC20.sol\":6356:6896  if (from == address(0)) {... */\n  tag_19\n  jumpi\n    /* \"@openzeppelin/contracts/token/ERC20/ERC20.sol\":6512:6517  value */\n  dup1\n    /* \"@openzeppelin/contracts/token/ERC20/ERC20.sol\":6496:6508  _totalSupply */\n  0x02\n  0x00\n    /* \"@openzeppelin/contracts/token/ERC20/ERC20.sol\":6496:6517  _totalSupply += value */\n  dup3\n  dup3\n  sload\n  tag_20\n  swap2\n  swap1\n  tag_21\n  jump\t// in\ntag_20:\n  swap3\n  pop\n  pop\n  dup2\n  swap1\n  sstore\n  pop\n    /* \"@openzeppelin/contracts/token/ERC20/ERC20.sol\":6356:6896  if (from == address(0)) {... */\n  jump(tag_22)\ntag_19:\n    /* \"@openzeppelin/contracts/token/ERC20/ERC20.sol\":6548:6567  uint256 fromBalance */\n  0x00\n    /* \"@openzeppelin/contracts/token/ERC20/ERC20.sol\":6570:6579  _balances */\n  dup1\n    /* \"@openzeppelin/contracts/token/ERC20/ERC20.sol\":6570:6585  _balances[from] */\n  0x00\n    /* \"@openzeppelin/contracts/token/ERC20/ERC20.sol\":6580:6584  from */\n  dup6\n    /* \"@openzeppelin/contracts/token/ERC20/ERC20.sol\":6570:6585  _balances[from] */\n  0xffffffffffffffffffffffffffffffffffffffff\n  and\n  0xffffffffffffffffffffffffffffffffffffffff\n  and\n  dup2\n  mstore\n  0x20\n  add\n  swap1\n  dup2\n  mstore\n  0x20\n  add\n  0x00\n  keccak256\n  sload\n    /* \"@openzeppelin/contracts/token/ERC20/ERC20.sol\":6548:6585  uint256 fromBalance = _balances[from] */\n  swap1\n  pop\n    /* \"@openzeppelin/contracts/token/ERC20/ERC20.sol\":6617:6622  value */\n  dup2\n    /* \"@openzeppelin/contracts/token/ERC20/ERC20.sol\":6603:6614  fromBalance */\n  dup2\n    /* \"@openzeppelin/contracts/token/ERC20/ERC20.sol\":6603:6622  fromBalance < value */\n  lt\n    /* \"@openzeppelin/contracts/token/ERC20/ERC20.sol\":6599:6714  if (fromBalance < value) {... */\n  iszero\n  tag_23\n  jumpi\n    /* \"@openzeppelin/contracts/token/ERC20/ERC20.sol\":6674:6678  from */\n  dup4\n    /* \"@openzeppelin/contracts/token/ERC20/ERC20.sol\":6680:6691  fromBalance */\n  dup2\n    /* \"@openzeppelin/contracts/token/ERC20/ERC20.sol\":6693:6698  value */\n  dup4\n    /* \"@openzeppelin/contracts/token/ERC20/ERC20.sol\":6649:6699  ERC20InsufficientBalance(from, fromBalance, value) */\n  mload(0x40)\n  0xe450d38c00000000000000000000000000000000000000000000000000000000\n  dup2\n  mstore\n  0x04\n  add\n  tag_24\n  swap4\n  swap3\n  swap2\n  swap1\n  tag_25\n  jump\t// in\ntag_24:\n  mload(0x40)\n  dup1\n  swap2\n  sub\n  swap1\n  revert\n    /* \"@openzeppelin/contracts/token/ERC20/ERC20.sol\":6599:6714  if (fromBalance < value) {... */\ntag_23:\n    /* \"@openzeppelin/contracts/token/ERC20/ERC20.sol\":6866:6871  value */\n  dup2\n    /* \"@openzeppelin/contracts/token/ERC20/ERC20.sol\":6852:6863  fromBalance */\n  dup2\n    /* \"@openzeppelin/contracts/token/ERC20/ERC20.sol\":6852:6871  fromBalance - value */\n  sub\n    /* \"@openzeppelin/contracts/token/ERC20/ERC20.sol\":6834:6843  _balances */\n  0x00\n    /* \"@openzeppelin/contracts/token/ERC20/ERC20.sol\":6834:6849  _balances[from] */\n  dup1\n    /* \"@openzeppelin/contracts/token/ERC20/ERC20.sol\":6844:6848  from */\n  dup7\n    /* \"@openzeppelin/contracts/token/ERC20/ERC20.sol\":6834:6849  _balances[from] */\n  0xffffffffffffffffffffffffffffffffffffffff\n  and\n  0xffffffffffffffffffffffffffffffffffffffff\n  and\n  dup2\n  mstore\n  0x20\n  add\n  swap1\n  dup2\n  mstore\n  0x20\n  add\n  0x00\n  keccak256\n    /* \"@openzeppelin/contracts/token/ERC20/ERC20.sol\":6834:6871  _balances[from] = fromBalance - value */\n  dup2\n  swap1\n  sstore\n  pop\n    /* \"@openzeppelin/contracts/token/ERC20/ERC20.sol\":6534:6896  {... */\n  pop\n    /* \"@openzeppelin/contracts/token/ERC20/ERC20.sol\":6356:6896  if (from == address(0)) {... */\ntag_22:\n    /* \"@openzeppelin/contracts/token/ERC20/ERC20.sol\":6924:6925  0 */\n  0x00\n    /* \"@openzeppelin/contracts/token/ERC20/ERC20.sol\":6910:6926  to == address(0) */\n  0xffffffffffffffffffffffffffffffffffffffff\n  and\n    /* \"@openzeppelin/contracts/token/ERC20/ERC20.sol\":6910:6912  to */\n  dup3\n    /* \"@openzeppelin/contracts/token/ERC20/ERC20.sol\":6910:6926  to == address(0) */\n  0xffffffffffffffffffffffffffffffffffffffff\n  and\n  sub\n    /* \"@openzeppelin/contracts/token/ERC20/ERC20.sol\":6906:7331  if (to == address(0)) {... */\n  tag_26\n  jumpi\n    /* \"@openzeppelin/contracts/token/ERC20/ERC20.sol\":7089:7094  value */\n  dup1\n    /* \"@openzeppelin/contracts/token/ERC20/ERC20.sol\":7073:7085  _totalSupply */\n  0x02\n  0x00\n    /* \"@openzeppelin/contracts/token/ERC20/ERC20.sol\":7073:7094  _totalSupply -= value */\n  dup3\n  dup3\n  sload\n  sub\n  swap3\n  pop\n  pop\n  dup2\n  swap1\n  sstore\n  pop\n    /* \"@openzeppelin/contracts/token/ERC20/ERC20.sol\":6906:7331  if (to == address(0)) {... */\n  jump(tag_27)\ntag_26:\n    /* \"@openzeppelin/contracts/token/ERC20/ERC20.sol\":7301:7306  value */\n  dup1\n    /* \"@openzeppelin/contracts/token/ERC20/ERC20.sol\":7284:7293  _balances */\n  0x00\n    /* \"@openzeppelin/contracts/token/ERC20/ERC20.sol\":7284:7297  _balances[to] */\n  dup1\n    /* \"@openzeppelin/contracts/token/ERC20/ERC20.sol\":7294:7296  to */\n  dup5\n    /* \"@openzeppelin/contracts/token/ERC20/ERC20.sol\":7284:7297  _balances[to] */\n  0xffffffffffffffffffffffffffffffffffffffff\n  and\n  0xffffffffffffffffffffffffffffffffffffffff\n  and\n  dup2\n  mstore\n  0x20\n  add\n  swap1\n  dup2\n  mstore\n  0x20\n  add\n  0x00\n  keccak256\n  0x00\n    /* \"@openzeppelin/contracts/token/ERC20/ERC20.sol\":7284:7306  _balances[to] += value */\n  dup3\n  dup3\n  sload\n  add\n  swap3\n  pop\n  pop\n  dup2\n  swap1\n  sstore\n  pop\n    /* \"@openzeppelin/contracts/token/ERC20/ERC20.sol\":6906:7331  if (to == address(0)) {... */\ntag_27:\n    /* \"@openzeppelin/contracts/token/ERC20/ERC20.sol\":7361:7363  to */\n  dup2\n    /* \"@openzeppelin/contracts/token/ERC20/ERC20.sol\":7346:7371  Transfer(from, to, value) */\n  0xffffffffffffffffffffffffffffffffffffffff\n  and\n    /* \"@openzeppelin/contracts/token/ERC20/ERC20.sol\":7355:7359  from */\n  dup4\n    /* \"@openzeppelin/contracts/token/ERC20/ERC20.sol\":7346:7371  Transfer(from, to, value) */\n  0xffffffffffffffffffffffffffffffffffffffff\n  and\n  0xddf252ad1be2c89b69c2b068fc378daa952ba7f163c4a11628f55a4df523b3ef\n    /* \"@openzeppelin/contracts/token/ERC20/ERC20.sol\":7365:7370  value */\n  dup4\n    /* \"@openzeppelin/contracts/token/ERC20/ERC20.sol\":7346:7371  Transfer(from, to, value) */\n  mload(0x40)\n  tag_28\n  swap2\n  swap1\n  tag_29\n  jump\t// in\ntag_28:\n  mload(0x40)\n  dup1\n  swap2\n  sub\n  swap1\n  log3\n    /* \"@openzeppelin/contracts/token/ERC20/ERC20.sol\":6271:7378  function _update(address from, address to, uint256 value) internal virtual {... */\n  pop\n  pop\n  pop\n  jump\t// out\n    /* \"#utility.yul\":7:106   */\ntag_30:\n    /* \"#utility.yul\":59:65   */\n  0x00\n    /* \"#utility.yul\":93:98   */\n  dup2\n    /* \"#utility.yul\":87:99   */\n  mload\n    /* \"#utility.yul\":77:99   */\n  swap1\n  pop\n    /* \"#utility.yul\":7:106   */\n  swap2\n  swap1\n  pop\n  jump\t// out\n    /* \"#utility.yul\":112:292   */\ntag_31:\n    /* \"#utility.yul\":160:237   */\n  0x4e487b7100000000000000000000000000000000000000000000000000000000\n    /* \"#utility.yul\":157:158   */\n  0x00\n    /* \"#utility.yul\":150:238   */\n  mstore\n    /* \"#utility.yul\":257:261   */\n  0x41\n    /* \"#utility.yul\":254:255   */\n  0x04\n    /* \"#utility.yul\":247:262   */\n  mstore\n    /* \"#utility.yul\":281:285   */\n  0x24\n    /* \"#utility.yul\":278:279   */\n  0x00\n    /* \"#utility.yul\":271:286   */\n  revert\n    /* \"#utility.yul\":298:478   */\ntag_32:\n    /* \"#utility.yul\":346:423   */\n  0x4e487b7100000000000000000000000000000000000000000000000000000000\n    /* \"#utility.yul\":343:344   */\n  0x00\n    /* \"#utility.yul\":336:424   */\n  mstore\n    /* \"#utility.yul\":443:447   */\n  0x22\n    /* \"#utility.yul\":440:441   */\n  0x04\n    /* \"#utility.yul\":433:448   */\n  mstore\n    /* \"#utility.yul\":467:471   */\n  0x24\n    /* \"#utility.yul\":464:465   */\n  0x00\n    /* \"#utility.yul\":457:472   */\n  revert\n    /* \"#utility.yul\":484:804   */\ntag_33:\n    /* \"#utility.yul\":528:534   */\n  0x00\n    /* \"#utility.yul\":565:566   */\n  0x02\n    /* \"#utility.yul\":559:563   */\n  dup3\n    /* \"#utility.yul\":555:567   */\n  div\n    /* \"#utility.yul\":545:567   */\n  swap1\n  pop\n    /* \"#utility.yul\":612:613   */\n  0x01\n    /* \"#utility.yul\":606:610   */\n  dup3\n    /* \"#utility.yul\":602:614   */\n  and\n    /* \"#utility.yul\":633:651   */\n  dup1\n    /* \"#utility.yul\":623:704   */\n  tag_60\n  jumpi\n    /* \"#utility.yul\":689:693   */\n  0x7f\n    /* \"#utility.yul\":681:687   */\n  dup3\n    /* \"#utility.yul\":677:694   */\n  and\n    /* \"#utility.yul\":667:694   */\n  swap2\n  pop\n    /* \"#utility.yul\":623:704   */\ntag_60:\n    /* \"#utility.yul\":751:753   */\n  0x20\n    /* \"#utility.yul\":743:749   */\n  dup3\n    /* \"#utility.yul\":740:754   */\n  lt\n    /* \"#utility.yul\":720:738   */\n  dup2\n    /* \"#utility.yul\":717:755   */\n  sub\n    /* \"#utility.yul\":714:798   */\n  tag_61\n  jumpi\n    /* \"#utility.yul\":770:788   */\n  tag_62\n  tag_32\n  jump\t// in\ntag_62:\n    /* \"#utility.yul\":714:798   */\ntag_61:\n    /* \"#utility.yul\":535:804   */\n  pop\n    /* \"#utility.yul\":484:804   */\n  swap2\n  swap1\n  pop\n  jump\t// out\n    /* \"#utility.yul\":810:951   */\ntag_34:\n    /* \"#utility.yul\":859:863   */\n  0x00\n    /* \"#utility.yul\":882:885   */\n  dup2\n    /* \"#utility.yul\":874:885   */\n  swap1\n  pop\n    /* \"#utility.yul\":905:908   */\n  dup2\n    /* \"#utility.yul\":902:903   */\n  0x00\n    /* \"#utility.yul\":895:909   */\n  mstore\n    /* \"#utility.yul\":939:943   */\n  0x20\n    /* \"#utility.yul\":936:937   */\n  0x00\n    /* \"#utility.yul\":926:944   */\n  keccak256\n    /* \"#utility.yul\":918:944   */\n  swap1\n  pop\n    /* \"#utility.yul\":810:951   */\n  swap2\n  swap1\n  pop\n  jump\t// out\n    /* \"#utility.yul\":957:1050   */\ntag_35:\n    /* \"#utility.yul\":994:1000   */\n  0x00\n    /* \"#utility.yul\":1041:1043   */\n  0x20\n    /* \"#utility.yul\":1036:1038   */\n  0x1f\n    /* \"#utility.yul\":1029:1034   */\n  dup4\n    /* \"#utility.yul\":1025:1039   */\n  add\n    /* \"#utility.yul\":1021:1044   */\n  div\n    /* \"#utility.yul\":1011:1044   */\n  swap1\n  pop\n    /* \"#utility.yul\":957:1050   */\n  swap2\n  swap1\n  pop\n  jump\t// out\n    /* \"#utility.yul\":1056:1163   */\ntag_36:\n    /* \"#utility.yul\":1100:1108   */\n  0x00\n    /* \"#utility.yul\":1150:1155   */\n  dup3\n    /* \"#utility.yul\":1144:1148   */\n  dup3\n    /* \"#utility.yul\":1140:1156   */\n  shl\n    /* \"#utility.yul\":1119:1156   */\n  swap1\n  pop\n    /* \"#utility.yul\":1056:1163   */\n  swap3\n  swap2\n  pop\n  pop\n  jump\t// out\n    /* \"#utility.yul\":1169:1562   */\ntag_37:\n    /* \"#utility.yul\":1238:1244   */\n  0x00\n    /* \"#utility.yul\":1288:1289   */\n  0x08\n    /* \"#utility.yul\":1276:1286   */\n  dup4\n    /* \"#utility.yul\":1272:1290   */\n  mul\n    /* \"#utility.yul\":1311:1408   */\n  tag_67\n    /* \"#utility.yul\":1341:1407   */\n  0xffffffffffffffffffffffffffffffffffffffffffffffffffffffffffffffff\n    /* \"#utility.yul\":1330:1339   */\n  dup3\n    /* \"#utility.yul\":1311:1408   */\n  tag_36\n  jump\t// in\ntag_67:\n    /* \"#utility.yul\":1429:1468   */\n  tag_68\n    /* \"#utility.yul\":1459:1467   */\n  dup7\n    /* \"#utility.yul\":1448:1457   */\n  dup4\n    /* \"#utility.yul\":1429:1468   */\n  tag_36\n  jump\t// in\ntag_68:\n    /* \"#utility.yul\":1417:1468   */\n  swap6\n  pop\n    /* \"#utility.yul\":1501:1505   */\n  dup1\n    /* \"#utility.yul\":1497:1506   */\n  not\n    /* \"#utility.yul\":1490:1495   */\n  dup5\n    /* \"#utility.yul\":1486:1507   */\n  and\n    /* \"#utility.yul\":1477:1507   */\n  swap4\n  pop\n    /* \"#utility.yul\":1550:1554   */\n  dup1\n    /* \"#utility.yul\":1540:1548   */\n  dup7\n    /* \"#utility.yul\":1536:1555   */\n  and\n    /* \"#utility.yul\":1529:1534   */\n  dup5\n    /* \"#utility.yul\":1526:1556   */\n  or\n    /* \"#utility.yul\":1516:1556   */\n  swap3\n  pop\n    /* \"#utility.yul\":1245:1562   */\n  pop\n  pop\n    /* \"#utility.yul\":1169:1562   */\n  swap4\n  swap3\n  pop\n  pop\n  pop\n  jump\t// out\n    /* \"#utility.yul\":1568:1645   */\ntag_38:\n    /* \"#utility.yul\":1605:1612   */\n  0x00\n    /* \"#utility.yul\":1634:1639   */\n  dup2\n    /* \"#utility.yul\":1623:1639   */\n  swap1\n  pop\n    /* \"#utility.yul\":1568:1645   */\n  swap2\n  swap1\n  pop\n  jump\t// out\n    /* \"#utility.yul\":1651:1711   */\ntag_39:\n    /* \"#utility.yul\":1679:1682   */\n  0x00\n    /* \"#utility.yul\":1700:1705   */\n  dup2\n    /* \"#utility.yul\":1693:1705   */\n  swap1\n  pop\n    /* \"#utility.yul\":1651:1711   */\n  swap2\n  swap1\n  pop\n  jump\t// out\n    /* \"#utility.yul\":1717:1859   */\ntag_40:\n    /* \"#utility.yul\":1767:1776   */\n  0x00\n    /* \"#utility.yul\":1800:1853   */\n  tag_72\n    /* \"#utility.yul\":1818:1852   */\n  tag_73\n    /* \"#utility.yul\":1827:1851   */\n  tag_74\n    /* \"#utility.yul\":1845:1850   */\n  dup5\n    /* \"#utility.yul\":1827:1851   */\n  tag_38\n  jump\t// in\ntag_74:\n    /* \"#utility.yul\":1818:1852   */\n  tag_39\n  jump\t// in\ntag_73:\n    /* \"#utility.yul\":1800:1853   */\n  tag_38\n  jump\t// in\ntag_72:\n    /* \"#utility.yul\":1787:1853   */\n  swap1\n  pop\n    /* \"#utility.yul\":1717:1859   */\n  swap2\n  swap1\n  pop\n  jump\t// out\n    /* \"#utility.yul\":1865:1940   */\ntag_41:\n    /* \"#utility.yul\":1908:1911   */\n  0x00\n    /* \"#utility.yul\":1929:1934   */\n  dup2\n    /* \"#utility.yul\":1922:1934   */\n  swap1\n  pop\n    /* \"#utility.yul\":1865:1940   */\n  swap2\n  swap1\n  pop\n  jump\t// out\n    /* \"#utility.yul\":1946:2215   */\ntag_42:\n    /* \"#utility.yul\":2056:2095   */\n  tag_77\n    /* \"#utility.yul\":2087:2094   */\n  dup4\n    /* \"#utility.yul\":2056:2095   */\n  tag_40\n  jump\t// in\ntag_77:\n    /* \"#utility.yul\":2117:2208   */\n  tag_78\n    /* \"#utility.yul\":2166:2207   */\n  tag_79\n    /* \"#utility.yul\":2190:2206   */\n  dup3\n    /* \"#utility.yul\":2166:2207   */\n  tag_41\n  jump\t// in\ntag_79:\n    /* \"#utility.yul\":2158:2164   */\n  dup5\n    /* \"#utility.yul\":2151:2155   */\n  dup5\n    /* \"#utility.yul\":2145:2156   */\n  sload\n    /* \"#utility.yul\":2117:2208   */\n  tag_37\n  jump\t// in\ntag_78:\n    /* \"#utility.yul\":2111:2115   */\n  dup3\n    /* \"#utility.yul\":2104:2209   */\n  sstore\n    /* \"#utility.yul\":2022:2215   */\n  pop\n    /* \"#utility.yul\":1946:2215   */\n  pop\n  pop\n  pop\n  jump\t// out\n    /* \"#utility.yul\":2221:2294   */\ntag_43:\n    /* \"#utility.yul\":2266:2269   */\n  0x00\n    /* \"#utility.yul\":2221:2294   */\n  swap1\n  jump\t// out\n    /* \"#utility.yul\":2300:2489   */\ntag_44:\n    /* \"#utility.yul\":2377:2409   */\n  tag_82\n  tag_43\n  jump\t// in\ntag_82:\n    /* \"#utility.yul\":2418:2483   */\n  tag_83\n    /* \"#utility.yul\":2476:2482   */\n  dup2\n    /* \"#utility.yul\":2468:2474   */\n  dup5\n    /* \"#utility.yul\":2462:2466   */\n  dup5\n    /* \"#utility.yul\":2418:2483   */\n  tag_42\n  jump\t// in\ntag_83:\n    /* \"#utility.yul\":2353:2489   */\n  pop\n    /* \"#utility.yul\":2300:2489   */\n  pop\n  pop\n  jump\t// out\n    /* \"#utility.yul\":2495:2681   */\ntag_45:\n    /* \"#utility.yul\":2555:2675   */\ntag_85:\n    /* \"#utility.yul\":2572:2575   */\n  dup2\n    /* \"#utility.yul\":2565:2570   */\n  dup2\n    /* \"#utility.yul\":2562:2576   */\n  lt\n    /* \"#utility.yul\":2555:2675   */\n  iszero\n  tag_87\n  jumpi\n    /* \"#utility.yul\":2626:2665   */\n  tag_88\n    /* \"#utility.yul\":2663:2664   */\n  0x00\n    /* \"#utility.yul\":2656:2661   */\n  dup3\n    /* \"#utility.yul\":2626:2665   */\n  tag_44\n  jump\t// in\ntag_88:\n    /* \"#utility.yul\":2599:2600   */\n  0x01\n    /* \"#utility.yul\":2592:2597   */\n  dup2\n    /* \"#utility.yul\":2588:2601   */\n  add\n    /* \"#utility.yul\":2579:2601   */\n  swap1\n  pop\n    /* \"#utility.yul\":2555:2675   */\n  jump(tag_85)\ntag_87:\n    /* \"#utility.yul\":2495:2681   */\n  pop\n  pop\n  jump\t// out\n    /* \"#utility.yul\":2687:3230   */\ntag_46:\n    /* \"#utility.yul\":2788:2790   */\n  0x1f\n    /* \"#utility.yul\":2783:2786   */\n  dup3\n    /* \"#utility.yul\":2780:2791   */\n  gt\n    /* \"#utility.yul\":2777:3223   */\n  iszero\n  tag_90\n  jumpi\n    /* \"#utility.yul\":2822:2860   */\n  tag_91\n    /* \"#utility.yul\":2854:2859   */\n  dup2\n    /* \"#utility.yul\":2822:2860   */\n  tag_34\n  jump\t// in\ntag_91:\n    /* \"#utility.yul\":2906:2935   */\n  tag_92\n    /* \"#utility.yul\":2924:2934   */\n  dup5\n    /* \"#utility.yul\":2906:2935   */\n  tag_35\n  jump\t// in\ntag_92:\n    /* \"#utility.yul\":2896:2904   */\n  dup2\n    /* \"#utility.yul\":2892:2936   */\n  add\n    /* \"#utility.yul\":3089:3091   */\n  0x20\n    /* \"#utility.yul\":3077:3087   */\n  dup6\n    /* \"#utility.yul\":3074:3092   */\n  lt\n    /* \"#utility.yul\":3071:3120   */\n  iszero\n  tag_93\n  jumpi\n    /* \"#utility.yul\":3110:3118   */\n  dup2\n    /* \"#utility.yul\":3095:3118   */\n  swap1\n  pop\n    /* \"#utility.yul\":3071:3120   */\ntag_93:\n    /* \"#utility.yul\":3133:3213   */\n  tag_94\n    /* \"#utility.yul\":3189:3211   */\n  tag_95\n    /* \"#utility.yul\":3207:3210   */\n  dup6\n    /* \"#utility.yul\":3189:3211   */\n  tag_35\n  jump\t// in\ntag_95:\n    /* \"#utility.yul\":3179:3187   */\n  dup4\n    /* \"#utility.yul\":3175:3212   */\n  add\n    /* \"#utility.yul\":3162:3173   */\n  dup3\n    /* \"#utility.yul\":3133:3213   */\n  tag_45\n  jump\t// in\ntag_94:\n    /* \"#utility.yul\":2792:3223   */\n  pop\n  pop\n    /* \"#utility.yul\":2777:3223   */\ntag_90:\n    /* \"#utility.yul\":2687:3230   */\n  pop\n  pop\n  pop\n  jump\t// out\n    /* \"#utility.yul\":3236:3353   */\ntag_47:\n    /* \"#utility.yul\":3290:3298   */\n  0x00\n    /* \"#utility.yul\":3340:3345   */\n  dup3\n    /* \"#utility.yul\":3334:3338   */\n  dup3\n    /* \"#utility.yul\":3330:3346   */\n  shr\n    /* \"#utility.yul\":3309:3346   */\n  swap1\n  pop\n    /* \"#utility.yul\":3236:3353   */\n  swap3\n  swap2\n  pop\n  pop\n  jump\t// out\n    /* \"#utility.yul\":3359:3528   */\ntag_48:\n    /* \"#utility.yul\":3403:3409   */\n  0x00\n    /* \"#utility.yul\":3436:3487   */\n  tag_98\n    /* \"#utility.yul\":3484:3485   */\n  0x00\n    /* \"#utility.yul\":3480:3486   */\n  not\n    /* \"#utility.yul\":3472:3477   */\n  dup5\n    /* \"#utility.yul\":3469:3470   */\n  0x08\n    /* \"#utility.yul\":3465:3478   */\n  mul\n    /* \"#utility.yul\":3436:3487   */\n  tag_47\n  jump\t// in\ntag_98:\n    /* \"#utility.yul\":3432:3488   */\n  not\n    /* \"#utility.yul\":3517:3521   */\n  dup1\n    /* \"#utility.yul\":3511:3515   */\n  dup4\n    /* \"#utility.yul\":3507:3522   */\n  and\n    /* \"#utility.yul\":3497:3522   */\n  swap2\n  pop\n    /* \"#utility.yul\":3410:3528   */\n  pop\n    /* \"#utility.yul\":3359:3528   */\n  swap3\n  swap2\n  pop\n  pop\n  jump\t// out\n    /* \"#utility.yul\":3533:3828   */\ntag_49:\n    /* \"#utility.yul\":3609:3613   */\n  0x00\n    /* \"#utility.yul\":3755:3784   */\n  tag_100\n    /* \"#utility.yul\":3780:3783   */\n  dup4\n    /* \"#utility.yul\":3774:3778   */\n  dup4\n    /* \"#utility.yul\":3755:3784   */\n  tag_48\n  jump\t// in\ntag_100:\n    /* \"#utility.yul\":3747:3784   */\n  swap2\n  pop\n    /* \"#utility.yul\":3817:3820   */\n  dup3\n    /* \"#utility.yul\":3814:3815   */\n  0x02\n    /* \"#utility.yul\":3810:3821   */\n  mul\n    /* \"#utility.yul\":3804:3808   */\n  dup3\n    /* \"#utility.yul\":3801:3822   */\n  or\n    /* \"#utility.yul\":3793:3822   */\n  swap1\n  pop\n    /* \"#utility.yul\":3533:3828   */\n  swap3\n  swap2\n  pop\n  pop\n  jump\t// out\n    /* \"#utility.yul\":3833:5228   */\ntag_6:\n    /* \"#utility.yul\":3950:3987   */\n  tag_102\n    /* \"#utility.yul\":3983:3986   */\n  dup3\n    /* \"#utility.yul\":3950:3987   */\n  tag_30\n  jump\t// in\ntag_102:\n    /* \"#utility.yul\":4052:4070   */\n  0xffffffffffffffff\n    /* \"#utility.yul\":4044:4050   */\n  dup2\n    /* \"#utility.yul\":4041:4071   */\n  gt\n    /* \"#utility.yul\":4038:4094   */\n  iszero\n  tag_103\n  jumpi\n    /* \"#utility.yul\":4074:4092   */\n  tag_104\n  tag_31\n  jump\t// in\ntag_104:\n    /* \"#utility.yul\":4038:4094   */\ntag_103:\n    /* \"#utility.yul\":4118:4156   */\n  tag_105\n    /* \"#utility.yul\":4150:4154   */\n  dup3\n    /* \"#utility.yul\":4144:4155   */\n  sload\n    /* \"#utility.yul\":4118:4156   */\n  tag_33\n  jump\t// in\ntag_105:\n    /* \"#utility.yul\":4203:4270   */\n  tag_106\n    /* \"#utility.yul\":4263:4269   */\n  dup3\n    /* \"#utility.yul\":4255:4261   */\n  dup3\n    /* \"#utility.yul\":4249:4253   */\n  dup6\n    /* \"#utility.yul\":4203:4270   */\n  tag_46\n  jump\t// in\ntag_106:\n    /* \"#utility.yul\":4297:4298   */\n  0x00\n    /* \"#utility.yul\":4321:4325   */\n  0x20\n    /* \"#utility.yul\":4308:4325   */\n  swap1\n  pop\n    /* \"#utility.yul\":4353:4355   */\n  0x1f\n    /* \"#utility.yul\":4345:4351   */\n  dup4\n    /* \"#utility.yul\":4342:4356   */\n  gt\n    /* \"#utility.yul\":4370:4371   */\n  0x01\n    /* \"#utility.yul\":4365:4983   */\n  dup2\n  eq\n  tag_108\n  jumpi\n    /* \"#utility.yul\":5027:5028   */\n  0x00\n    /* \"#utility.yul\":5044:5050   */\n  dup5\n    /* \"#utility.yul\":5041:5118   */\n  iszero\n  tag_109\n  jumpi\n    /* \"#utility.yul\":5093:5102   */\n  dup3\n    /* \"#utility.yul\":5088:5091   */\n  dup8\n    /* \"#utility.yul\":5084:5103   */\n  add\n    /* \"#utility.yul\":5078:5104   */\n  mload\n    /* \"#utility.yul\":5069:5104   */\n  swap1\n  pop\n    /* \"#utility.yul\":5041:5118   */\ntag_109:\n    /* \"#utility.yul\":5144:5211   */\n  tag_110\n    /* \"#utility.yul\":5204:5210   */\n  dup6\n    /* \"#utility.yul\":5197:5202   */\n  dup3\n    /* \"#utility.yul\":5144:5211   */\n  tag_49\n  jump\t// in\ntag_110:\n    /* \"#utility.yul\":5138:5142   */\n  dup7\n    /* \"#utility.yul\":5131:5212   */\n  sstore\n    /* \"#utility.yul\":5000:5222   */\n  pop\n    /* \"#utility.yul\":4335:5222   */\n  jump(tag_107)\n    /* \"#utility.yul\":4365:4983   */\ntag_108:\n    /* \"#utility.yul\":4417:4421   */\n  0x1f\n    /* \"#utility.yul\":4413:4422   */\n  not\n    /* \"#utility.yul\":4405:4411   */\n  dup5\n    /* \"#utility.yul\":4401:4423   */\n  and\n    /* \"#utility.yul\":4451:4488   */\n  tag_111\n    /* \"#utility.yul\":4483:4487   */\n  dup7\n    /* \"#utility.yul\":4451:4488   */\n  tag_34\n  jump\t// in\ntag_111:\n    /* \"#utility.yul\":4510:4511   */\n  0x00\n    /* \"#utility.yul\":4524:4732   */\ntag_112:\n    /* \"#utility.yul\":4538:4545   */\n  dup3\n    /* \"#utility.yul\":4535:4536   */\n  dup2\n    /* \"#utility.yul\":4532:4546   */\n  lt\n    /* \"#utility.yul\":4524:4732   */\n  iszero\n  tag_114\n  jumpi\n    /* \"#utility.yul\":4617:4626   */\n  dup5\n    /* \"#utility.yul\":4612:4615   */\n  dup10\n    /* \"#utility.yul\":4608:4627   */\n  add\n    /* \"#utility.yul\":4602:4628   */\n  mload\n    /* \"#utility.yul\":4594:4600   */\n  dup3\n    /* \"#utility.yul\":4587:4629   */\n  sstore\n    /* \"#utility.yul\":4668:4669   */\n  0x01\n    /* \"#utility.yul\":4660:4666   */\n  dup3\n    /* \"#utility.yul\":4656:4670   */\n  add\n    /* \"#utility.yul\":4646:4670   */\n  swap2\n  pop\n    /* \"#utility.yul\":4715:4717   */\n  0x20\n    /* \"#utility.yul\":4704:4713   */\n  dup6\n    /* \"#utility.yul\":4700:4718   */\n  add\n    /* \"#utility.yul\":4687:4718   */\n  swap5\n  pop\n    /* \"#utility.yul\":4561:4565   */\n  0x20\n    /* \"#utility.yul\":4558:4559   */\n  dup2\n    /* \"#utility.yul\":4554:4566   */\n  add\n    /* \"#utility.yul\":4549:4566   */\n  swap1\n  pop\n    /* \"#utility.yul\":4524:4732   */\n  jump(tag_112)\ntag_114:\n    /* \"#utility.yul\":4760:4766   */\n  dup7\n    /* \"#utility.yul\":4751:4758   */\n  dup4\n    /* \"#utility.yul\":4748:4767   */\n  lt\n    /* \"#utility.yul\":4745:4924   */\n  iszero\n  tag_115\n  jumpi\n    /* \"#utility.yul\":4818:4827   */\n  dup5\n    /* \"#utility.yul\":4813:4816   */\n  dup10\n    /* \"#utility.yul\":4809:4828   */\n  add\n    /* \"#utility.yul\":4803:4829   */\n  mload\n    /* \"#utility.yul\":4861:4909   */\n  tag_116\n    /* \"#utility.yul\":4903:4907   */\n  0x1f\n    /* \"#utility.yul\":4895:4901   */\n  dup10\n    /* \"#utility.yul\":4891:4908   */\n  and\n    /* \"#utility.yul\":4880:4889   */\n  dup3\n    /* \"#utility.yul\":4861:4909   */\n  tag_48\n  jump\t// in\ntag_116:\n    /* \"#utility.yul\":4853:4859   */\n  dup4\n    /* \"#utility.yul\":4846:4910   */\n  sstore\n    /* \"#utility.yul\":4768:4924   */\n  pop\n    /* \"#utility.yul\":4745:4924   */\ntag_115:\n    /* \"#utility.yul\":4970:4971   */\n  0x01\n    /* \"#utility.yul\":4966:4967   */\n  0x02\n    /* \"#utility.yul\":4958:4964   */\n  dup9\n    /* \"#utility.yul\":4954:4968   */\n  mul\n    /* \"#utility.yul\":4950:4972   */\n  add\n    /* \"#utility.yul\":4944:4948   */\n  dup9\n    /* \"#utility.yul\":4937:4973   */\n  sstore\n    /* \"#utility.yul\":4372:4983   */\n  pop\n  pop\n  pop\n    /* \"#utility.yul\":4335:5222   */\ntag_107:\n  pop\n    /* \"#utility.yul\":3925:5228   */\n  pop\n  pop\n  pop\n    /* \"#utility.yul\":3833:5228   */\n  pop\n  pop\n  jump\t// out\n    /* \"#utility.yul\":5234:5360   */\ntag_50:\n    /* \"#utility.yul\":5271:5278   */\n  0x00\n    /* \"#utility.yul\":5311:5353   */\n  0xffffffffffffffffffffffffffffffffffffffff\n    /* \"#utility.yul\":5304:5309   */\n  dup3\n    /* \"#utility.yul\":5300:5354   */\n  and\n    /* \"#utility.yul\":5289:5354   */\n  swap1\n  pop\n    /* \"#utility.yul\":5234:5360   */\n  swap2\n  swap1\n  pop\n  jump\t// out\n    /* \"#utility.yul\":5366:5462   */\ntag_51:\n    /* \"#utility.yul\":5403:5410   */\n  0x00\n    /* \"#utility.yul\":5432:5456   */\n  tag_119\n    /* \"#utility.yul\":5450:5455   */\n  dup3\n    /* \"#utility.yul\":5432:5456   */\n  tag_50\n  jump\t// in\ntag_119:\n    /* \"#utility.yul\":5421:5456   */\n  swap1\n  pop\n    /* \"#utility.yul\":5366:5462   */\n  swap2\n  swap1\n  pop\n  jump\t// out\n    /* \"#utility.yul\":5468:5586   */\ntag_52:\n    /* \"#utility.yul\":5555:5579   */\n  tag_121\n    /* \"#utility.yul\":5573:5578   */\n  dup2\n    /* \"#utility.yul\":5555:5579   */\n  tag_51\n  jump\t// in\ntag_121:\n    /* \"#utility.yul\":5550:5553   */\n  dup3\n    /* \"#utility.yul\":5543:5580   */\n  mstore\n    /* \"#utility.yul\":5468:5586   */\n  pop\n  pop\n  jump\t// out\n    /* \"#utility.yul\":5592:5814   */\ntag_15:\n    /* \"#utility.yul\":5685:5689   */\n  0x00\n    /* \"#utility.yul\":5723:5725   */\n  0x20\n    /* \"#utility.yul\":5712:5721   */\n  dup3\n    /* \"#utility.yul\":5708:5726   */\n  add\n    /* \"#utility.yul\":5700:5726   */\n  swap1\n  pop\n    /* \"#utility.yul\":5736:5807   */\n  tag_123\n    /* \"#utility.yul\":5804:5805   */\n  0x00\n    /* \"#utility.yul\":5793:5802   */\n  dup4\n    /* \"#utility.yul\":5789:5806   */\n  add\n    /* \"#utility.yul\":5780:5786   */\n  dup5\n    /* \"#utility.yul\":5736:5807   */\n  tag_52\n  jump\t// in\ntag_123:\n    /* \"#utility.yul\":5592:5814   */\n  swap3\n  swap2\n  pop\n  pop\n  jump\t// out\n    /* \"#utility.yul\":5820:6000   */\ntag_53:\n    /* \"#utility.yul\":5868:5945   */\n  0x4e487b7100000000000000000000000000000000000000000000000000000000\n    /* \"#utility.yul\":5865:5866   */\n  0x00\n    /* \"#utility.yul\":5858:5946   */\n  mstore\n    /* \"#utility.yul\":5965:5969   */\n  0x11\n    /* \"#utility.yul\":5962:5963   */\n  0x04\n    /* \"#utility.yul\":5955:5970   */\n  mstore\n    /* \"#utility.yul\":5989:5993   */\n  0x24\n    /* \"#utility.yul\":5986:5987   */\n  0x00\n    /* \"#utility.yul\":5979:5994   */\n  revert\n    /* \"#utility.yul\":6006:6197   */\ntag_21:\n    /* \"#utility.yul\":6046:6049   */\n  0x00\n    /* \"#utility.yul\":6065:6085   */\n  tag_126\n    /* \"#utility.yul\":6083:6084   */\n  dup3\n    /* \"#utility.yul\":6065:6085   */\n  tag_38\n  jump\t// in\ntag_126:\n    /* \"#utility.yul\":6060:6085   */\n  swap2\n  pop\n    /* \"#utility.yul\":6099:6119   */\n  tag_127\n    /* \"#utility.yul\":6117:6118   */\n  dup4\n    /* \"#utility.yul\":6099:6119   */\n  tag_38\n  jump\t// in\ntag_127:\n    /* \"#utility.yul\":6094:6119   */\n  swap3\n  pop\n    /* \"#utility.yul\":6142:6143   */\n  dup3\n    /* \"#utility.yul\":6139:6140   */\n  dup3\n    /* \"#utility.yul\":6135:6144   */\n  add\n    /* \"#utility.yul\":6128:6144   */\n  swap1\n  pop\n    /* \"#utility.yul\":6163:6166   */\n  dup1\n    /* \"#utility.yul\":6160:6161   */\n  dup3\n    /* \"#utility.yul\":6157:6167   */\n  gt\n    /* \"#utility.yul\":6154:6190   */\n  iszero\n  tag_128\n  jumpi\n    /* \"#utility.yul\":6170:6188   */\n  tag_129\n  tag_53\n  jump\t// in\ntag_129:\n    /* \"#utility.yul\":6154:6190   */\ntag_128:\n    /* \"#utility.yul\":6006:6197   */\n  swap3\n  swap2\n  pop\n  pop\n  jump\t// out\n    /* \"#utility.yul\":6203:6321   */\ntag_54:\n    /* \"#utility.yul\":6290:6314   */\n  tag_131\n    /* \"#utility.yul\":6308:6313   */\n  dup2\n    /* \"#utility.yul\":6290:6314   */\n  tag_38\n  jump\t// in\ntag_131:\n    /* \"#utility.yul\":6285:6288   */\n  dup3\n    /* \"#utility.yul\":6278:6315   */\n  mstore\n    /* \"#utility.yul\":6203:6321   */\n  pop\n  pop\n  jump\t// out\n    /* \"#utility.yul\":6327:6769   */\ntag_25:\n    /* \"#utility.yul\":6476:6480   */\n  0x00\n    /* \"#utility.yul\":6514:6516   */\n  0x60\n    /* \"#utility.yul\":6503:6512   */\n  dup3\n    /* \"#utility.yul\":6499:6517   */\n  add\n    /* \"#utility.yul\":6491:6517   */\n  swap1\n  pop\n    /* \"#utility.yul\":6527:6598   */\n  tag_133\n    /* \"#utility.yul\":6595:6596   */\n  0x00\n    /* \"#utility.yul\":6584:6593   */\n  dup4\n    /* \"#utility.yul\":6580:6597   */\n  add\n    /* \"#utility.yul\":6571:6577   */\n  dup7\n    /* \"#utility.yul\":6527:6598   */\n  tag_52\n  jump\t// in\ntag_133:\n    /* \"#utility.yul\":6608:6680   */\n  tag_134\n    /* \"#utility.yul\":6676:6678   */\n  0x20\n    /* \"#utility.yul\":6665:6674   */\n  dup4\n    /* \"#utility.yul\":6661:6679   */\n  add\n    /* \"#utility.yul\":6652:6658   */\n  dup6\n    /* \"#utility.yul\":6608:6680   */\n  tag_54\n  jump\t// in\ntag_134:\n    /* \"#utility.yul\":6690:6762   */\n  tag_135\n    /* \"#utility.yul\":6758:6760   */\n  0x40\n    /* \"#utility.yul\":6747:6756   */\n  dup4\n    /* \"#utility.yul\":6743:6761   */\n  add\n    /* \"#utility.yul\":6734:6740   */\n  dup5\n    /* \"#utility.yul\":6690:6762   */\n  tag_54\n  jump\t// in\ntag_135:\n    /* \"#utility.yul\":6327:6769   */\n  swap5\n  swap4\n  pop\n  pop\n  pop\n  pop\n  jump\t// out\n    /* \"#utility.yul\":6775:6997   */\ntag_29:\n    /* \"#utility.yul\":6868:6872   */\n  0x00\n    /* \"#utility.yul\":6906:6908   */\n  0x20\n    /* \"#utility.yul\":6895:6904   */\n  dup3\n    /* \"#utility.yul\":6891:6909   */\n  add\n    /* \"#utility.yul\":6883:6909   */\n  swap1\n  pop\n    /* \"#utility.yul\":6919:6990   */\n  tag_137\n    /* \"#utility.yul\":6987:6988   */\n  0x00\n    /* \"#utility.yul\":6976:6985   */\n  dup4\n    /* \"#utility.yul\":6972:6989   */\n  add\n    /* \"#utility.yul\":6963:6969   */\n  dup5\n    /* \"#utility.yul\":6919:6990   */\n  tag_54\n  jump\t// in\ntag_137:\n    /* \"#utility.yul\":6775:6997   */\n  swap3\n  swap2\n  pop\n  pop\n  jump\t// out\n    /* \"contracts/HelloWorld5.sol\":115:3828  contract MGNToken is ERC20 {... */\ntag_11:\n  dataSize(sub_0)\n  dup1\n  dataOffset(sub_0)\n  0x00\n  codecopy\n  0x00\n  return\nstop\n\nsub_0: assembly {\n        /* \"contracts/HelloWorld5.sol\":115:3828  contract MGNToken is ERC20 {... */\n      mstore(0x40, 0x80)\n      callvalue\n      dup1\n      iszero\n      tag_1\n      jumpi\n      0x00\n      dup1\n      revert\n    tag_1:\n      pop\n      jumpi(tag_2, lt(calldatasize, 0x04))\n      shr(0xe0, calldataload(0x00))\n      dup1\n      0x70a08231\n      gt\n      tag_19\n      jumpi\n      dup1\n      0xbead3f50\n      gt\n      tag_20\n      jumpi\n      dup1\n      0xbead3f50\n      eq\n      tag_15\n      jumpi\n      dup1\n      0xd45e3f4a\n      eq\n      tag_16\n      jumpi\n      dup1\n      0xdd62ed3e\n      eq\n      tag_17\n      jumpi\n      dup1\n      0xf851a440\n      eq\n      tag_18\n      jumpi\n      jump(tag_2)\n    tag_20:\n      dup1\n      0x70a08231\n      eq\n      tag_11\n      jumpi\n      dup1\n      0x841b39fc\n      eq\n      tag_12\n      jumpi\n      dup1\n      0x95d89b41\n      eq\n      tag_13\n      jumpi\n      dup1\n      0xa9059cbb\n      eq\n      tag_14\n      jumpi\n      jump(tag_2)\n    tag_19:\n      dup1\n      0x2ff2e9dc\n      gt\n      tag_21\n      jumpi\n      dup1\n      0x2ff2e9dc\n      eq\n      tag_7\n      jumpi\n      dup1\n      0x313ce567\n      eq\n      tag_8\n      jumpi\n      dup1\n      0x40c10f19\n      eq\n      tag_9\n      jumpi\n      dup1\n      0x42966c68\n      eq\n      tag_10\n      jumpi\n      jump(tag_2)\n    tag_21:\n      dup1\n      0x06fdde03\n      eq\n      tag_3\n      jumpi\n      dup1\n      0x095ea7b3\n      eq\n      tag_4\n      jumpi\n      dup1\n      0x18160ddd\n      eq\n      tag_5\n      jumpi\n      dup1\n      0x23b872dd\n      eq\n      tag_6\n      jumpi\n    tag_2:\n      0x00\n      dup1\n      revert\n        /* \"@openzeppelin/contracts/token/ERC20/ERC20.sol\":2074:2163  function name() public view virtual returns (string memory) {... */\n    tag_3:\n      tag_22\n      tag_23\n      jump\t// in\n    tag_22:\n      mload(0x40)\n      tag_24\n      swap2\n      swap1\n      tag_25\n      jump\t// in\n    tag_24:\n      mload(0x40)\n      dup1\n      swap2\n      sub\n      swap1\n      return\n        /* \"@openzeppelin/contracts/token/ERC20/ERC20.sol\":4293:4479  function approve(address spender, uint256 value) public virtual returns (bool) {... */\n    tag_4:\n      tag_26\n      0x04\n      dup1\n      calldatasize\n      sub\n      dup2\n      add\n      swap1\n      tag_27\n      swap2\n      swap1\n      tag_28\n      jump\t// in\n    tag_27:\n      tag_29\n      jump\t// in\n    tag_26:\n      mload(0x40)\n      tag_30\n      swap2\n      swap1\n      tag_31\n      jump\t// in\n    tag_30:\n      mload(0x40)\n      dup1\n      swap2\n      sub\n      swap1\n      return\n        /* \"@openzeppelin/contracts/token/ERC20/ERC20.sol\":3144:3241  function totalSupply() public view virtual returns (uint256) {... */\n    tag_5:\n      tag_32\n      tag_33\n      jump\t// in\n    tag_32:\n      mload(0x40)\n      tag_34\n      swap2\n      swap1\n      tag_35\n      jump\t// in\n    tag_34:\n      mload(0x40)\n      dup1\n      swap2\n      sub\n      swap1\n      return\n        /* \"@openzeppelin/contracts/token/ERC20/ERC20.sol\":5039:5283  function transferFrom(address from, address to, uint256 value) public virtual returns (bool) {... */\n    tag_6:\n      tag_36\n      0x04\n      dup1\n      calldatasize\n      sub\n      dup2\n      add\n      swap1\n      tag_37\n      swap2\n      swap1\n      tag_38\n      jump\t// in\n    tag_37:\n      tag_39\n      jump\t// in\n    tag_36:\n      mload(0x40)\n      tag_40\n      swap2\n      swap1\n      tag_31\n      jump\t// in\n    tag_40:\n      mload(0x40)\n      dup1\n      swap2\n      sub\n      swap1\n      return\n        /* \"contracts/HelloWorld5.sol\":174:228  uint256 public constant INITIAL_SUPPLY = 2000 * 10**18 */\n    tag_7:\n      tag_41\n      tag_42\n      jump\t// in\n    tag_41:\n      mload(0x40)\n      tag_43\n      swap2\n      swap1\n      tag_35\n      jump\t// in\n    tag_43:\n      mload(0x40)\n      dup1\n      swap2\n      sub\n      swap1\n      return\n        /* \"@openzeppelin/contracts/token/ERC20/ERC20.sol\":3002:3084  function decimals() public view virtual returns (uint8) {... */\n    tag_8:\n      tag_44\n      tag_45\n      jump\t// in\n    tag_44:\n      mload(0x40)\n      tag_46\n      swap2\n      swap1\n      tag_47\n      jump\t// in\n    tag_46:\n      mload(0x40)\n      dup1\n      swap2\n      sub\n      swap1\n      return\n        /* \"contracts/HelloWorld5.sol\":459:554  function mint(address to, uint256 amount) external onlyAdmin {... */\n    tag_9:\n      tag_48\n      0x04\n      dup1\n      calldatasize\n      sub\n      dup2\n      add\n      swap1\n      tag_49\n      swap2\n      swap1\n      tag_28\n      jump\t// in\n    tag_49:\n      tag_50\n      jump\t// in\n    tag_48:\n      stop\n        /* \"contracts/HelloWorld5.sol\":560:641  function burn(uint256 amount) external {... */\n    tag_10:\n      tag_51\n      0x04\n      dup1\n      calldatasize\n      sub\n      dup2\n      add\n      swap1\n      tag_52\n      swap2\n      swap1\n      tag_53\n      jump\t// in\n    tag_52:\n      tag_54\n      jump\t// in\n    tag_51:\n      stop\n        /* \"@openzeppelin/contracts/token/ERC20/ERC20.sol\":3299:3415  function balanceOf(address account) public view virtual returns (uint256) {... */\n    tag_11:\n      tag_55\n      0x04\n      dup1\n      calldatasize\n      sub\n      dup2\n      add\n      swap1\n      tag_56\n      swap2\n      swap1\n      tag_57\n      jump\t// in\n    tag_56:\n      tag_58\n      jump\t// in\n    tag_55:\n      mload(0x40)\n      tag_59\n      swap2\n      swap1\n      tag_35\n      jump\t// in\n    tag_59:\n      mload(0x40)\n      dup1\n      swap2\n      sub\n      swap1\n      return\n        /* \"contracts/HelloWorld5.sol\":996:1160  function getTransactionReceiver() external view returns (address) {... */\n    tag_12:\n      tag_60\n      tag_61\n      jump\t// in\n    tag_60:\n      mload(0x40)\n      tag_62\n      swap2\n      swap1\n      tag_63\n      jump\t// in\n    tag_62:\n      mload(0x40)\n      dup1\n      swap2\n      sub\n      swap1\n      return\n        /* \"@openzeppelin/contracts/token/ERC20/ERC20.sol\":2276:2369  function symbol() public view virtual returns (string memory) {... */\n    tag_13:\n      tag_64\n      tag_65\n      jump\t// in\n    tag_64:\n      mload(0x40)\n      tag_66\n      swap2\n      swap1\n      tag_25\n      jump\t// in\n    tag_66:\n      mload(0x40)\n      dup1\n      swap2\n      sub\n      swap1\n      return\n        /* \"@openzeppelin/contracts/token/ERC20/ERC20.sol\":3610:3788  function transfer(address to, uint256 value) public virtual returns (bool) {... */\n    tag_14:\n      tag_67\n      0x04\n      dup1\n      calldatasize\n      sub\n      dup2\n      add\n      swap1\n      tag_68\n      swap2\n      swap1\n      tag_28\n      jump\t// in\n    tag_68:\n      tag_69\n      jump\t// in\n    tag_67:\n      mload(0x40)\n      tag_70\n      swap2\n      swap1\n      tag_31\n      jump\t// in\n    tag_70:\n      mload(0x40)\n      dup1\n      swap2\n      sub\n      swap1\n      return\n        /* \"contracts/HelloWorld5.sol\":890:990  function getTransactionSender() external view returns (address) {... */\n    tag_15:\n      tag_71\n      tag_72\n      jump\t// in\n    tag_71:\n      mload(0x40)\n      tag_73\n      swap2\n      swap1\n      tag_63\n      jump\t// in\n    tag_73:\n      mload(0x40)\n      dup1\n      swap2\n      sub\n      swap1\n      return\n        /* \"contracts/HelloWorld5.sol\":758:884  function getLatestTransactionTimestamp() external view returns (string memory) {... */\n    tag_16:\n      tag_74\n      tag_75\n      jump\t// in\n    tag_74:\n      mload(0x40)\n      tag_76\n      swap2\n      swap1\n      tag_25\n      jump\t// in\n    tag_76:\n      mload(0x40)\n      dup1\n      swap2\n      sub\n      swap1\n      return\n        /* \"@openzeppelin/contracts/token/ERC20/ERC20.sol\":3846:3986  function allowance(address owner, address spender) public view virtual returns (uint256) {... */\n    tag_17:\n      tag_77\n      0x04\n      dup1\n      calldatasize\n      sub\n      dup2\n      add\n      swap1\n      tag_78\n      swap2\n      swap1\n      tag_79\n      jump\t// in\n    tag_78:\n      tag_80\n      jump\t// in\n    tag_77:\n      mload(0x40)\n      tag_81\n      swap2\n      swap1\n      tag_35\n      jump\t// in\n    tag_81:\n      mload(0x40)\n      dup1\n      swap2\n      sub\n      swap1\n      return\n        /* \"contracts/HelloWorld5.sol\":148:168  address public admin */\n    tag_18:\n      tag_82\n      tag_83\n      jump\t// in\n    tag_82:\n      mload(0x40)\n      tag_84\n      swap2\n      swap1\n      tag_63\n      jump\t// in\n    tag_84:\n      mload(0x40)\n      dup1\n      swap2\n      sub\n      swap1\n      return\n        /* \"@openzeppelin/contracts/token/ERC20/ERC20.sol\":2074:2163  function name() public view virtual returns (string memory) {... */\n    tag_23:\n        /* \"@openzeppelin/contracts/token/ERC20/ERC20.sol\":2119:2132  string memory */\n      0x60\n        /* \"@openzeppelin/contracts/token/ERC20/ERC20.sol\":2151:2156  _name */\n      0x03\n        /* \"@openzeppelin/contracts/token/ERC20/ERC20.sol\":2144:2156  return _name */\n      dup1\n      sload\n      tag_86\n      swap1\n      tag_87\n      jump\t// in\n    tag_86:\n      dup1\n      0x1f\n      add\n      0x20\n      dup1\n      swap2\n      div\n      mul\n      0x20\n      add\n      mload(0x40)\n      swap1\n      dup2\n      add\n      0x40\n      mstore\n      dup1\n      swap3\n      swap2\n      swap1\n      dup2\n      dup2\n      mstore\n      0x20\n      add\n      dup3\n      dup1\n      sload\n      tag_88\n      swap1\n      tag_87\n      jump\t// in\n    tag_88:\n      dup1\n      iszero\n      tag_89\n      jumpi\n      dup1\n      0x1f\n      lt\n      tag_90\n      jumpi\n      0x0100\n      dup1\n      dup4\n      sload\n      div\n      mul\n      dup4\n      mstore\n      swap2\n      0x20\n      add\n      swap2\n      jump(tag_89)\n    tag_90:\n      dup3\n      add\n      swap2\n      swap1\n      0x00\n      mstore\n      keccak256(0x00, 0x20)\n      swap1\n    tag_91:\n      dup2\n      sload\n      dup2\n      mstore\n      swap1\n      0x01\n      add\n      swap1\n      0x20\n      add\n      dup1\n      dup4\n      gt\n      tag_91\n      jumpi\n      dup3\n      swap1\n      sub\n      0x1f\n      and\n      dup3\n      add\n      swap2\n    tag_89:\n      pop\n      pop\n      pop\n      pop\n      pop\n      swap1\n      pop\n        /* \"@openzeppelin/contracts/token/ERC20/ERC20.sol\":2074:2163  function name() public view virtual returns (string memory) {... */\n      swap1\n      jump\t// out\n        /* \"@openzeppelin/contracts/token/ERC20/ERC20.sol\":4293:4479  function approve(address spender, uint256 value) public virtual returns (bool) {... */\n    tag_29:\n        /* \"@openzeppelin/contracts/token/ERC20/ERC20.sol\":4366:4370  bool */\n      0x00\n        /* \"@openzeppelin/contracts/token/ERC20/ERC20.sol\":4382:4395  address owner */\n      dup1\n        /* \"@openzeppelin/contracts/token/ERC20/ERC20.sol\":4398:4410  _msgSender() */\n      tag_93\n        /* \"@openzeppelin/contracts/token/ERC20/ERC20.sol\":4398:4408  _msgSender */\n      tag_94\n        /* \"@openzeppelin/contracts/token/ERC20/ERC20.sol\":4398:4410  _msgSender() */\n      jump\t// in\n    tag_93:\n        /* \"@openzeppelin/contracts/token/ERC20/ERC20.sol\":4382:4410  address owner = _msgSender() */\n      swap1\n      pop\n        /* \"@openzeppelin/contracts/token/ERC20/ERC20.sol\":4420:4451  _approve(owner, spender, value) */\n      tag_95\n        /* \"@openzeppelin/contracts/token/ERC20/ERC20.sol\":4429:4434  owner */\n      dup2\n        /* \"@openzeppelin/contracts/token/ERC20/ERC20.sol\":4436:4443  spender */\n      dup6\n        /* \"@openzeppelin/contracts/token/ERC20/ERC20.sol\":4445:4450  value */\n      dup6\n        /* \"@openzeppelin/contracts/token/ERC20/ERC20.sol\":4420:4428  _approve */\n      tag_96\n        /* \"@openzeppelin/contracts/token/ERC20/ERC20.sol\":4420:4451  _approve(owner, spender, value) */\n      jump\t// in\n    tag_95:\n        /* \"@openzeppelin/contracts/token/ERC20/ERC20.sol\":4468:4472  true */\n      0x01\n        /* \"@openzeppelin/contracts/token/ERC20/ERC20.sol\":4461:4472  return true */\n      swap2\n      pop\n      pop\n        /* \"@openzeppelin/contracts/token/ERC20/ERC20.sol\":4293:4479  function approve(address spender, uint256 value) public virtual returns (bool) {... */\n      swap3\n      swap2\n      pop\n      pop\n      jump\t// out\n        /* \"@openzeppelin/contracts/token/ERC20/ERC20.sol\":3144:3241  function totalSupply() public view virtual returns (uint256) {... */\n    tag_33:\n        /* \"@openzeppelin/contracts/token/ERC20/ERC20.sol\":3196:3203  uint256 */\n      0x00\n        /* \"@openzeppelin/contracts/token/ERC20/ERC20.sol\":3222:3234  _totalSupply */\n      sload(0x02)\n        /* \"@openzeppelin/contracts/token/ERC20/ERC20.sol\":3215:3234  return _totalSupply */\n      swap1\n      pop\n        /* \"@openzeppelin/contracts/token/ERC20/ERC20.sol\":3144:3241  function totalSupply() public view virtual returns (uint256) {... */\n      swap1\n      jump\t// out\n        /* \"@openzeppelin/contracts/token/ERC20/ERC20.sol\":5039:5283  function transferFrom(address from, address to, uint256 value) public virtual returns (bool) {... */\n    tag_39:\n        /* \"@openzeppelin/contracts/token/ERC20/ERC20.sol\":5126:5130  bool */\n      0x00\n        /* \"@openzeppelin/contracts/token/ERC20/ERC20.sol\":5142:5157  address spender */\n      dup1\n        /* \"@openzeppelin/contracts/token/ERC20/ERC20.sol\":5160:5172  _msgSender() */\n      tag_99\n        /* \"@openzeppelin/contracts/token/ERC20/ERC20.sol\":5160:5170  _msgSender */\n      tag_94\n        /* \"@openzeppelin/contracts/token/ERC20/ERC20.sol\":5160:5172  _msgSender() */\n      jump\t// in\n    tag_99:\n        /* \"@openzeppelin/contracts/token/ERC20/ERC20.sol\":5142:5172  address spender = _msgSender() */\n      swap1\n      pop\n        /* \"@openzeppelin/contracts/token/ERC20/ERC20.sol\":5182:5219  _spendAllowance(from, spender, value) */\n      tag_100\n        /* \"@openzeppelin/contracts/token/ERC20/ERC20.sol\":5198:5202  from */\n      dup6\n        /* \"@openzeppelin/contracts/token/ERC20/ERC20.sol\":5204:5211  spender */\n      dup3\n        /* \"@openzeppelin/contracts/token/ERC20/ERC20.sol\":5213:5218  value */\n      dup6\n        /* \"@openzeppelin/contracts/token/ERC20/ERC20.sol\":5182:5197  _spendAllowance */\n      tag_101\n        /* \"@openzeppelin/contracts/token/ERC20/ERC20.sol\":5182:5219  _spendAllowance(from, spender, value) */\n      jump\t// in\n    tag_100:\n        /* \"@openzeppelin/contracts/token/ERC20/ERC20.sol\":5229:5255  _transfer(from, to, value) */\n      tag_102\n        /* \"@openzeppelin/contracts/token/ERC20/ERC20.sol\":5239:5243  from */\n      dup6\n        /* \"@openzeppelin/contracts/token/ERC20/ERC20.sol\":5245:5247  to */\n      dup6\n        /* \"@openzeppelin/contracts/token/ERC20/ERC20.sol\":5249:5254  value */\n      dup6\n        /* \"@openzeppelin/contracts/token/ERC20/ERC20.sol\":5229:5238  _transfer */\n      tag_103\n        /* \"@openzeppelin/contracts/token/ERC20/ERC20.sol\":5229:5255  _transfer(from, to, value) */\n      jump\t// in\n    tag_102:\n        /* \"@openzeppelin/contracts/token/ERC20/ERC20.sol\":5272:5276  true */\n      0x01\n        /* \"@openzeppelin/contracts/token/ERC20/ERC20.sol\":5265:5276  return true */\n      swap2\n      pop\n      pop\n        /* \"@openzeppelin/contracts/token/ERC20/ERC20.sol\":5039:5283  function transferFrom(address from, address to, uint256 value) public virtual returns (bool) {... */\n      swap4\n      swap3\n      pop\n      pop\n      pop\n      jump\t// out\n        /* \"contracts/HelloWorld5.sol\":174:228  uint256 public constant INITIAL_SUPPLY = 2000 * 10**18 */\n    tag_42:\n        /* \"contracts/HelloWorld5.sol\":215:228  2000 * 10**18 */\n      0x6c6b935b8bbd400000\n        /* \"contracts/HelloWorld5.sol\":174:228  uint256 public constant INITIAL_SUPPLY = 2000 * 10**18 */\n      dup2\n      jump\t// out\n        /* \"@openzeppelin/contracts/token/ERC20/ERC20.sol\":3002:3084  function decimals() public view virtual returns (uint8) {... */\n    tag_45:\n        /* \"@openzeppelin/contracts/token/ERC20/ERC20.sol\":3051:3056  uint8 */\n      0x00\n        /* \"@openzeppelin/contracts/token/ERC20/ERC20.sol\":3075:3077  18 */\n      0x12\n        /* \"@openzeppelin/contracts/token/ERC20/ERC20.sol\":3068:3077  return 18 */\n      swap1\n      pop\n        /* \"@openzeppelin/contracts/token/ERC20/ERC20.sol\":3002:3084  function decimals() public view virtual returns (uint8) {... */\n      swap1\n      jump\t// out\n        /* \"contracts/HelloWorld5.sol\":459:554  function mint(address to, uint256 amount) external onlyAdmin {... */\n    tag_50:\n        /* \"contracts/HelloWorld5.sol\":415:420  admin */\n      0x05\n      0x00\n      swap1\n      sload\n      swap1\n      0x0100\n      exp\n      swap1\n      div\n      0xffffffffffffffffffffffffffffffffffffffff\n      and\n        /* \"contracts/HelloWorld5.sol\":401:420  msg.sender == admin */\n      0xffffffffffffffffffffffffffffffffffffffff\n      and\n        /* \"contracts/HelloWorld5.sol\":401:411  msg.sender */\n      caller\n        /* \"contracts/HelloWorld5.sol\":401:420  msg.sender == admin */\n      0xffffffffffffffffffffffffffffffffffffffff\n      and\n      eq\n        /* \"contracts/HelloWorld5.sol\":393:435  require(msg.sender == admin, 'Only admin') */\n      tag_106\n      jumpi\n      mload(0x40)\n      0x08c379a000000000000000000000000000000000000000000000000000000000\n      dup2\n      mstore\n      0x04\n      add\n      tag_107\n      swap1\n      tag_108\n      jump\t// in\n    tag_107:\n      mload(0x40)\n      dup1\n      swap2\n      sub\n      swap1\n      revert\n    tag_106:\n        /* \"contracts/HelloWorld5.sol\":530:547  _mint(to, amount) */\n      tag_110\n        /* \"contracts/HelloWorld5.sol\":536:538  to */\n      dup3\n        /* \"contracts/HelloWorld5.sol\":540:546  amount */\n      dup3\n        /* \"contracts/HelloWorld5.sol\":530:535  _mint */\n      tag_111\n        /* \"contracts/HelloWorld5.sol\":530:547  _mint(to, amount) */\n      jump\t// in\n    tag_110:\n        /* \"contracts/HelloWorld5.sol\":459:554  function mint(address to, uint256 amount) external onlyAdmin {... */\n      pop\n      pop\n      jump\t// out\n        /* \"contracts/HelloWorld5.sol\":560:641  function burn(uint256 amount) external {... */\n    tag_54:\n        /* \"contracts/HelloWorld5.sol\":609:634  _burn(msg.sender, amount) */\n      tag_113\n        /* \"contracts/HelloWorld5.sol\":615:625  msg.sender */\n      caller\n        /* \"contracts/HelloWorld5.sol\":627:633  amount */\n      dup3\n        /* \"contracts/HelloWorld5.sol\":609:614  _burn */\n      tag_114\n        /* \"contracts/HelloWorld5.sol\":609:634  _burn(msg.sender, amount) */\n      jump\t// in\n    tag_113:\n        /* \"contracts/HelloWorld5.sol\":560:641  function burn(uint256 amount) external {... */\n      pop\n      jump\t// out\n        /* \"@openzeppelin/contracts/token/ERC20/ERC20.sol\":3299:3415  function balanceOf(address account) public view virtual returns (uint256) {... */\n    tag_58:\n        /* \"@openzeppelin/contracts/token/ERC20/ERC20.sol\":3364:3371  uint256 */\n      0x00\n        /* \"@openzeppelin/contracts/token/ERC20/ERC20.sol\":3390:3399  _balances */\n      dup1\n        /* \"@openzeppelin/contracts/token/ERC20/ERC20.sol\":3390:3408  _balances[account] */\n      0x00\n        /* \"@openzeppelin/contracts/token/ERC20/ERC20.sol\":3400:3407  account */\n      dup4\n        /* \"@openzeppelin/contracts/token/ERC20/ERC20.sol\":3390:3408  _balances[account] */\n      0xffffffffffffffffffffffffffffffffffffffff\n      and\n      0xffffffffffffffffffffffffffffffffffffffff\n      and\n      dup2\n      mstore\n      0x20\n      add\n      swap1\n      dup2\n      mstore\n      0x20\n      add\n      0x00\n      keccak256\n      sload\n        /* \"@openzeppelin/contracts/token/ERC20/ERC20.sol\":3383:3408  return _balances[account] */\n      swap1\n      pop\n        /* \"@openzeppelin/contracts/token/ERC20/ERC20.sol\":3299:3415  function balanceOf(address account) public view virtual returns (uint256) {... */\n      swap2\n      swap1\n      pop\n      jump\t// out\n        /* \"contracts/HelloWorld5.sol\":996:1160  function getTransactionReceiver() external view returns (address) {... */\n    tag_61:\n        /* \"contracts/HelloWorld5.sol\":1053:1060  address */\n      0x00\n        /* \"contracts/HelloWorld5.sol\":1148:1152  this */\n      address\n        /* \"contracts/HelloWorld5.sol\":1133:1153  return address(this) */\n      swap1\n      pop\n        /* \"contracts/HelloWorld5.sol\":996:1160  function getTransactionReceiver() external view returns (address) {... */\n      swap1\n      jump\t// out\n        /* \"@openzeppelin/contracts/token/ERC20/ERC20.sol\":2276:2369  function symbol() public view virtual returns (string memory) {... */\n    tag_65:\n        /* \"@openzeppelin/contracts/token/ERC20/ERC20.sol\":2323:2336  string memory */\n      0x60\n        /* \"@openzeppelin/contracts/token/ERC20/ERC20.sol\":2355:2362  _symbol */\n      0x04\n        /* \"@openzeppelin/contracts/token/ERC20/ERC20.sol\":2348:2362  return _symbol */\n      dup1\n      sload\n      tag_118\n      swap1\n      tag_87\n      jump\t// in\n    tag_118:\n      dup1\n      0x1f\n      add\n      0x20\n      dup1\n      swap2\n      div\n      mul\n      0x20\n      add\n      mload(0x40)\n      swap1\n      dup2\n      add\n      0x40\n      mstore\n      dup1\n      swap3\n      swap2\n      swap1\n      dup2\n      dup2\n      mstore\n      0x20\n      add\n      dup3\n      dup1\n      sload\n      tag_119\n      swap1\n      tag_87\n      jump\t// in\n    tag_119:\n      dup1\n      iszero\n      tag_120\n      jumpi\n      dup1\n      0x1f\n      lt\n      tag_121\n      jumpi\n      0x0100\n      dup1\n      dup4\n      sload\n      div\n      mul\n      dup4\n      mstore\n      swap2\n      0x20\n      add\n      swap2\n      jump(tag_120)\n    tag_121:\n      dup3\n      add\n      swap2\n      swap1\n      0x00\n      mstore\n      keccak256(0x00, 0x20)\n      swap1\n    tag_122:\n      dup2\n      sload\n      dup2\n      mstore\n      swap1\n      0x01\n      add\n      swap1\n      0x20\n      add\n      dup1\n      dup4\n      gt\n      tag_122\n      jumpi\n      dup3\n      swap1\n      sub\n      0x1f\n      and\n      dup3\n      add\n      swap2\n    tag_120:\n      pop\n      pop\n      pop\n      pop\n      pop\n      swap1\n      pop\n        /* \"@openzeppelin/contracts/token/ERC20/ERC20.sol\":2276:2369  function symbol() public view virtual returns (string memory) {... */\n      swap1\n      jump\t// out\n        /* \"@openzeppelin/contracts/token/ERC20/ERC20.sol\":3610:3788  function transfer(address to, uint256 value) public virtual returns (bool) {... */\n    tag_69:\n        /* \"@openzeppelin/contracts/token/ERC20/ERC20.sol\":3679:3683  bool */\n      0x00\n        /* \"@openzeppelin/contracts/token/ERC20/ERC20.sol\":3695:3708  address owner */\n      dup1\n        /* \"@openzeppelin/contracts/token/ERC20/ERC20.sol\":3711:3723  _msgSender() */\n      tag_124\n        /* \"@openzeppelin/contracts/token/ERC20/ERC20.sol\":3711:3721  _msgSender */\n      tag_94\n        /* \"@openzeppelin/contracts/token/ERC20/ERC20.sol\":3711:3723  _msgSender() */\n      jump\t// in\n    tag_124:\n        /* \"@openzeppelin/contracts/token/ERC20/ERC20.sol\":3695:3723  address owner = _msgSender() */\n      swap1\n      pop\n        /* \"@openzeppelin/contracts/token/ERC20/ERC20.sol\":3733:3760  _transfer(owner, to, value) */\n      tag_125\n        /* \"@openzeppelin/contracts/token/ERC20/ERC20.sol\":3743:3748  owner */\n      dup2\n        /* \"@openzeppelin/contracts/token/ERC20/ERC20.sol\":3750:3752  to */\n      dup6\n        /* \"@openzeppelin/contracts/token/ERC20/ERC20.sol\":3754:3759  value */\n      dup6\n        /* \"@openzeppelin/contracts/token/ERC20/ERC20.sol\":3733:3742  _transfer */\n      tag_103\n        /* \"@openzeppelin/contracts/token/ERC20/ERC20.sol\":3733:3760  _transfer(owner, to, value) */\n      jump\t// in\n    tag_125:\n        /* \"@openzeppelin/contracts/token/ERC20/ERC20.sol\":3777:3781  true */\n      0x01\n        /* \"@openzeppelin/contracts/token/ERC20/ERC20.sol\":3770:3781  return true */\n      swap2\n      pop\n      pop\n        /* \"@openzeppelin/contracts/token/ERC20/ERC20.sol\":3610:3788  function transfer(address to, uint256 value) public virtual returns (bool) {... */\n      swap3\n      swap2\n      pop\n      pop\n      jump\t// out\n        /* \"contracts/HelloWorld5.sol\":890:990  function getTransactionSender() external view returns (address) {... */\n    tag_72:\n        /* \"contracts/HelloWorld5.sol\":945:952  address */\n      0x00\n        /* \"contracts/HelloWorld5.sol\":971:983  _msgSender() */\n      tag_127\n        /* \"contracts/HelloWorld5.sol\":971:981  _msgSender */\n      tag_94\n        /* \"contracts/HelloWorld5.sol\":971:983  _msgSender() */\n      jump\t// in\n    tag_127:\n        /* \"contracts/HelloWorld5.sol\":964:983  return _msgSender() */\n      swap1\n      pop\n        /* \"contracts/HelloWorld5.sol\":890:990  function getTransactionSender() external view returns (address) {... */\n      swap1\n      jump\t// out\n        /* \"contracts/HelloWorld5.sol\":758:884  function getLatestTransactionTimestamp() external view returns (string memory) {... */\n    tag_75:\n        /* \"contracts/HelloWorld5.sol\":822:835  string memory */\n      0x60\n        /* \"contracts/HelloWorld5.sol\":854:877  toDate(block.timestamp) */\n      tag_129\n        /* \"contracts/HelloWorld5.sol\":861:876  block.timestamp */\n      timestamp\n        /* \"contracts/HelloWorld5.sol\":854:860  toDate */\n      tag_130\n        /* \"contracts/HelloWorld5.sol\":854:877  toDate(block.timestamp) */\n      jump\t// in\n    tag_129:\n        /* \"contracts/HelloWorld5.sol\":847:877  return toDate(block.timestamp) */\n      swap1\n      pop\n        /* \"contracts/HelloWorld5.sol\":758:884  function getLatestTransactionTimestamp() external view returns (string memory) {... */\n      swap1\n      jump\t// out\n        /* \"@openzeppelin/contracts/token/ERC20/ERC20.sol\":3846:3986  function allowance(address owner, address spender) public view virtual returns (uint256) {... */\n    tag_80:\n        /* \"@openzeppelin/contracts/token/ERC20/ERC20.sol\":3926:3933  uint256 */\n      0x00\n        /* \"@openzeppelin/contracts/token/ERC20/ERC20.sol\":3952:3963  _allowances */\n      0x01\n        /* \"@openzeppelin/contracts/token/ERC20/ERC20.sol\":3952:3970  _allowances[owner] */\n      0x00\n        /* \"@openzeppelin/contracts/token/ERC20/ERC20.sol\":3964:3969  owner */\n      dup5\n        /* \"@openzeppelin/contracts/token/ERC20/ERC20.sol\":3952:3970  _allowances[owner] */\n      0xffffffffffffffffffffffffffffffffffffffff\n      and\n      0xffffffffffffffffffffffffffffffffffffffff\n      and\n      dup2\n      mstore\n      0x20\n      add\n      swap1\n      dup2\n      mstore\n      0x20\n      add\n      0x00\n      keccak256\n        /* \"@openzeppelin/contracts/token/ERC20/ERC20.sol\":3952:3979  _allowances[owner][spender] */\n      0x00\n        /* \"@openzeppelin/contracts/token/ERC20/ERC20.sol\":3971:3978  spender */\n      dup4\n        /* \"@openzeppelin/contracts/token/ERC20/ERC20.sol\":3952:3979  _allowances[owner][spender] */\n      0xffffffffffffffffffffffffffffffffffffffff\n      and\n      0xffffffffffffffffffffffffffffffffffffffff\n      and\n      dup2\n      mstore\n      0x20\n      add\n      swap1\n      dup2\n      mstore\n      0x20\n      add\n      0x00\n      keccak256\n      sload\n        /* \"@openzeppelin/contracts/token/ERC20/ERC20.sol\":3945:3979  return _allowances[owner][spender] */\n      swap1\n      pop\n        /* \"@openzeppelin/contracts/token/ERC20/ERC20.sol\":3846:3986  function allowance(address owner, address spender) public view virtual returns (uint256) {... */\n      swap3\n      swap2\n      pop\n      pop\n      jump\t// out\n        /* \"contracts/HelloWorld5.sol\":148:168  address public admin */\n    tag_83:\n      0x05\n      0x00\n      swap1\n      sload\n      swap1\n      0x0100\n      exp\n      swap1\n      div\n      0xffffffffffffffffffffffffffffffffffffffff\n      and\n      dup2\n      jump\t// out\n        /* \"@openzeppelin/contracts/utils/Context.sol\":656:752  function _msgSender() internal view virtual returns (address) {... */\n    tag_94:\n        /* \"@openzeppelin/contracts/utils/Context.sol\":709:716  address */\n      0x00\n        /* \"@openzeppelin/contracts/utils/Context.sol\":735:745  msg.sender */\n      caller\n        /* \"@openzeppelin/contracts/utils/Context.sol\":728:745  return msg.sender */\n      swap1\n      pop\n        /* \"@openzeppelin/contracts/utils/Context.sol\":656:752  function _msgSender() internal view virtual returns (address) {... */\n      swap1\n      jump\t// out\n        /* \"@openzeppelin/contracts/token/ERC20/ERC20.sol\":8989:9117  function _approve(address owner, address spender, uint256 value) internal {... */\n    tag_96:\n        /* \"@openzeppelin/contracts/token/ERC20/ERC20.sol\":9073:9110  _approve(owner, spender, value, true) */\n      tag_134\n        /* \"@openzeppelin/contracts/token/ERC20/ERC20.sol\":9082:9087  owner */\n      dup4\n        /* \"@openzeppelin/contracts/token/ERC20/ERC20.sol\":9089:9096  spender */\n      dup4\n        /* \"@openzeppelin/contracts/token/ERC20/ERC20.sol\":9098:9103  value */\n      dup4\n        /* \"@openzeppelin/contracts/token/ERC20/ERC20.sol\":9105:9109  true */\n      0x01\n        /* \"@openzeppelin/contracts/token/ERC20/ERC20.sol\":9073:9081  _approve */\n      tag_135\n        /* \"@openzeppelin/contracts/token/ERC20/ERC20.sol\":9073:9110  _approve(owner, spender, value, true) */\n      jump\t// in\n    tag_134:\n        /* \"@openzeppelin/contracts/token/ERC20/ERC20.sol\":8989:9117  function _approve(address owner, address spender, uint256 value) internal {... */\n      pop\n      pop\n      pop\n      jump\t// out\n        /* \"@openzeppelin/contracts/token/ERC20/ERC20.sol\":10663:11140  function _spendAllowance(address owner, address spender, uint256 value) internal virtual {... */\n    tag_101:\n        /* \"@openzeppelin/contracts/token/ERC20/ERC20.sol\":10762:10786  uint256 currentAllowance */\n      0x00\n        /* \"@openzeppelin/contracts/token/ERC20/ERC20.sol\":10789:10814  allowance(owner, spender) */\n      tag_137\n        /* \"@openzeppelin/contracts/token/ERC20/ERC20.sol\":10799:10804  owner */\n      dup5\n        /* \"@openzeppelin/contracts/token/ERC20/ERC20.sol\":10806:10813  spender */\n      dup5\n        /* \"@openzeppelin/contracts/token/ERC20/ERC20.sol\":10789:10798  allowance */\n      tag_80\n        /* \"@openzeppelin/contracts/token/ERC20/ERC20.sol\":10789:10814  allowance(owner, spender) */\n      jump\t// in\n    tag_137:\n        /* \"@openzeppelin/contracts/token/ERC20/ERC20.sol\":10762:10814  uint256 currentAllowance = allowance(owner, spender) */\n      swap1\n      pop\n        /* \"@openzeppelin/contracts/token/ERC20/ERC20.sol\":10848:10865  type(uint256).max */\n      0xffffffffffffffffffffffffffffffffffffffffffffffffffffffffffffffff\n        /* \"@openzeppelin/contracts/token/ERC20/ERC20.sol\":10828:10844  currentAllowance */\n      dup2\n        /* \"@openzeppelin/contracts/token/ERC20/ERC20.sol\":10828:10865  currentAllowance != type(uint256).max */\n      eq\n        /* \"@openzeppelin/contracts/token/ERC20/ERC20.sol\":10824:11134  if (currentAllowance != type(uint256).max) {... */\n      tag_138\n      jumpi\n        /* \"@openzeppelin/contracts/token/ERC20/ERC20.sol\":10904:10909  value */\n      dup2\n        /* \"@openzeppelin/contracts/token/ERC20/ERC20.sol\":10885:10901  currentAllowance */\n      dup2\n        /* \"@openzeppelin/contracts/token/ERC20/ERC20.sol\":10885:10909  currentAllowance < value */\n      lt\n        /* \"@openzeppelin/contracts/token/ERC20/ERC20.sol\":10881:11011  if (currentAllowance < value) {... */\n      iszero\n      tag_139\n      jumpi\n        /* \"@openzeppelin/contracts/token/ERC20/ERC20.sol\":10963:10970  spender */\n      dup3\n        /* \"@openzeppelin/contracts/token/ERC20/ERC20.sol\":10972:10988  currentAllowance */\n      dup2\n        /* \"@openzeppelin/contracts/token/ERC20/ERC20.sol\":10990:10995  value */\n      dup4\n        /* \"@openzeppelin/contracts/token/ERC20/ERC20.sol\":10936:10996  ERC20InsufficientAllowance(spender, currentAllowance, value) */\n      mload(0x40)\n      0xfb8f41b200000000000000000000000000000000000000000000000000000000\n      dup2\n      mstore\n      0x04\n      add\n      tag_140\n      swap4\n      swap3\n      swap2\n      swap1\n      tag_141\n      jump\t// in\n    tag_140:\n      mload(0x40)\n      dup1\n      swap2\n      sub\n      swap1\n      revert\n        /* \"@openzeppelin/contracts/token/ERC20/ERC20.sol\":10881:11011  if (currentAllowance < value) {... */\n    tag_139:\n        /* \"@openzeppelin/contracts/token/ERC20/ERC20.sol\":11052:11109  _approve(owner, spender, currentAllowance - value, false) */\n      tag_142\n        /* \"@openzeppelin/contracts/token/ERC20/ERC20.sol\":11061:11066  owner */\n      dup5\n        /* \"@openzeppelin/contracts/token/ERC20/ERC20.sol\":11068:11075  spender */\n      dup5\n        /* \"@openzeppelin/contracts/token/ERC20/ERC20.sol\":11096:11101  value */\n      dup5\n        /* \"@openzeppelin/contracts/token/ERC20/ERC20.sol\":11077:11093  currentAllowance */\n      dup5\n        /* \"@openzeppelin/contracts/token/ERC20/ERC20.sol\":11077:11101  currentAllowance - value */\n      sub\n        /* \"@openzeppelin/contracts/token/ERC20/ERC20.sol\":11103:11108  false */\n      0x00\n        /* \"@openzeppelin/contracts/token/ERC20/ERC20.sol\":11052:11060  _approve */\n      tag_135\n        /* \"@openzeppelin/contracts/token/ERC20/ERC20.sol\":11052:11109  _approve(owner, spender, currentAllowance - value, false) */\n      jump\t// in\n    tag_142:\n        /* \"@openzeppelin/contracts/token/ERC20/ERC20.sol\":10824:11134  if (currentAllowance != type(uint256).max) {... */\n    tag_138:\n        /* \"@openzeppelin/contracts/token/ERC20/ERC20.sol\":10752:11140  {... */\n      pop\n        /* \"@openzeppelin/contracts/token/ERC20/ERC20.sol\":10663:11140  function _spendAllowance(address owner, address spender, uint256 value) internal virtual {... */\n      pop\n      pop\n      pop\n      jump\t// out\n        /* \"@openzeppelin/contracts/token/ERC20/ERC20.sol\":5656:5956  function _transfer(address from, address to, uint256 value) internal {... */\n    tag_103:\n        /* \"@openzeppelin/contracts/token/ERC20/ERC20.sol\":5755:5756  0 */\n      0x00\n        /* \"@openzeppelin/contracts/token/ERC20/ERC20.sol\":5739:5757  from == address(0) */\n      0xffffffffffffffffffffffffffffffffffffffff\n      and\n        /* \"@openzeppelin/contracts/token/ERC20/ERC20.sol\":5739:5743  from */\n      dup4\n        /* \"@openzeppelin/contracts/token/ERC20/ERC20.sol\":5739:5757  from == address(0) */\n      0xffffffffffffffffffffffffffffffffffffffff\n      and\n      sub\n        /* \"@openzeppelin/contracts/token/ERC20/ERC20.sol\":5735:5821  if (from == address(0)) {... */\n      tag_144\n      jumpi\n        /* \"@openzeppelin/contracts/token/ERC20/ERC20.sol\":5807:5808  0 */\n      0x00\n        /* \"@openzeppelin/contracts/token/ERC20/ERC20.sol\":5780:5810  ERC20InvalidSender(address(0)) */\n      mload(0x40)\n      0x96c6fd1e00000000000000000000000000000000000000000000000000000000\n      dup2\n      mstore\n      0x04\n      add\n      tag_145\n      swap2\n      swap1\n      tag_63\n      jump\t// in\n    tag_145:\n      mload(0x40)\n      dup1\n      swap2\n      sub\n      swap1\n      revert\n        /* \"@openzeppelin/contracts/token/ERC20/ERC20.sol\":5735:5821  if (from == address(0)) {... */\n    tag_144:\n        /* \"@openzeppelin/contracts/token/ERC20/ERC20.sol\":5848:5849  0 */\n      0x00\n        /* \"@openzeppelin/contracts/token/ERC20/ERC20.sol\":5834:5850  to == address(0) */\n      0xffffffffffffffffffffffffffffffffffffffff\n      and\n        /* \"@openzeppelin/contracts/token/ERC20/ERC20.sol\":5834:5836  to */\n      dup3\n        /* \"@openzeppelin/contracts/token/ERC20/ERC20.sol\":5834:5850  to == address(0) */\n      0xffffffffffffffffffffffffffffffffffffffff\n      and\n      sub\n        /* \"@openzeppelin/contracts/token/ERC20/ERC20.sol\":5830:5916  if (to == address(0)) {... */\n      tag_146\n      jumpi\n        /* \"@openzeppelin/contracts/token/ERC20/ERC20.sol\":5902:5903  0 */\n      0x00\n        /* \"@openzeppelin/contracts/token/ERC20/ERC20.sol\":5873:5905  ERC20InvalidReceiver(address(0)) */\n      mload(0x40)\n      0xec442f0500000000000000000000000000000000000000000000000000000000\n      dup2\n      mstore\n      0x04\n      add\n      tag_147\n      swap2\n      swap1\n      tag_63\n      jump\t// in\n    tag_147:\n      mload(0x40)\n      dup1\n      swap2\n      sub\n      swap1\n      revert\n        /* \"@openzeppelin/contracts/token/ERC20/ERC20.sol\":5830:5916  if (to == address(0)) {... */\n    tag_146:\n        /* \"@openzeppelin/contracts/token/ERC20/ERC20.sol\":5925:5949  _update(from, to, value) */\n      tag_148\n        /* \"@openzeppelin/contracts/token/ERC20/ERC20.sol\":5933:5937  from */\n      dup4\n        /* \"@openzeppelin/contracts/token/ERC20/ERC20.sol\":5939:5941  to */\n      dup4\n        /* \"@openzeppelin/contracts/token/ERC20/ERC20.sol\":5943:5948  value */\n      dup4\n        /* \"@openzeppelin/contracts/token/ERC20/ERC20.sol\":5925:5932  _update */\n      tag_149\n        /* \"@openzeppelin/contracts/token/ERC20/ERC20.sol\":5925:5949  _update(from, to, value) */\n      jump\t// in\n    tag_148:\n        /* \"@openzeppelin/contracts/token/ERC20/ERC20.sol\":5656:5956  function _transfer(address from, address to, uint256 value) internal {... */\n      pop\n      pop\n      pop\n      jump\t// out\n        /* \"@openzeppelin/contracts/token/ERC20/ERC20.sol\":7721:7929  function _mint(address account, uint256 value) internal {... */\n    tag_111:\n        /* \"@openzeppelin/contracts/token/ERC20/ERC20.sol\":7810:7811  0 */\n      0x00\n        /* \"@openzeppelin/contracts/token/ERC20/ERC20.sol\":7791:7812  account == address(0) */\n      0xffffffffffffffffffffffffffffffffffffffff\n      and\n        /* \"@openzeppelin/contracts/token/ERC20/ERC20.sol\":7791:7798  account */\n      dup3\n        /* \"@openzeppelin/contracts/token/ERC20/ERC20.sol\":7791:7812  account == address(0) */\n      0xffffffffffffffffffffffffffffffffffffffff\n      and\n      sub\n        /* \"@openzeppelin/contracts/token/ERC20/ERC20.sol\":7787:7878  if (account == address(0)) {... */\n      tag_151\n      jumpi\n        /* \"@openzeppelin/contracts/token/ERC20/ERC20.sol\":7864:7865  0 */\n      0x00\n        /* \"@openzeppelin/contracts/token/ERC20/ERC20.sol\":7835:7867  ERC20InvalidReceiver(address(0)) */\n      mload(0x40)\n      0xec442f0500000000000000000000000000000000000000000000000000000000\n      dup2\n      mstore\n      0x04\n      add\n      tag_152\n      swap2\n      swap1\n      tag_63\n      jump\t// in\n    tag_152:\n      mload(0x40)\n      dup1\n      swap2\n      sub\n      swap1\n      revert\n        /* \"@openzeppelin/contracts/token/ERC20/ERC20.sol\":7787:7878  if (account == address(0)) {... */\n    tag_151:\n        /* \"@openzeppelin/contracts/token/ERC20/ERC20.sol\":7887:7922  _update(address(0), account, value) */\n      tag_153\n        /* \"@openzeppelin/contracts/token/ERC20/ERC20.sol\":7903:7904  0 */\n      0x00\n        /* \"@openzeppelin/contracts/token/ERC20/ERC20.sol\":7907:7914  account */\n      dup4\n        /* \"@openzeppelin/contracts/token/ERC20/ERC20.sol\":7916:7921  value */\n      dup4\n        /* \"@openzeppelin/contracts/token/ERC20/ERC20.sol\":7887:7894  _update */\n      tag_149\n        /* \"@openzeppelin/contracts/token/ERC20/ERC20.sol\":7887:7922  _update(address(0), account, value) */\n      jump\t// in\n    tag_153:\n        /* \"@openzeppelin/contracts/token/ERC20/ERC20.sol\":7721:7929  function _mint(address account, uint256 value) internal {... */\n      pop\n      pop\n      jump\t// out\n        /* \"@openzeppelin/contracts/token/ERC20/ERC20.sol\":8247:8453  function _burn(address account, uint256 value) internal {... */\n    tag_114:\n        /* \"@openzeppelin/contracts/token/ERC20/ERC20.sol\":8336:8337  0 */\n      0x00\n        /* \"@openzeppelin/contracts/token/ERC20/ERC20.sol\":8317:8338  account == address(0) */\n      0xffffffffffffffffffffffffffffffffffffffff\n      and\n        /* \"@openzeppelin/contracts/token/ERC20/ERC20.sol\":8317:8324  account */\n      dup3\n        /* \"@openzeppelin/contracts/token/ERC20/ERC20.sol\":8317:8338  account == address(0) */\n      0xffffffffffffffffffffffffffffffffffffffff\n      and\n      sub\n        /* \"@openzeppelin/contracts/token/ERC20/ERC20.sol\":8313:8402  if (account == address(0)) {... */\n      tag_155\n      jumpi\n        /* \"@openzeppelin/contracts/token/ERC20/ERC20.sol\":8388:8389  0 */\n      0x00\n        /* \"@openzeppelin/contracts/token/ERC20/ERC20.sol\":8361:8391  ERC20InvalidSender(address(0)) */\n      mload(0x40)\n      0x96c6fd1e00000000000000000000000000000000000000000000000000000000\n      dup2\n      mstore\n      0x04\n      add\n      tag_156\n      swap2\n      swap1\n      tag_63\n      jump\t// in\n    tag_156:\n      mload(0x40)\n      dup1\n      swap2\n      sub\n      swap1\n      revert\n        /* \"@openzeppelin/contracts/token/ERC20/ERC20.sol\":8313:8402  if (account == address(0)) {... */\n    tag_155:\n        /* \"@openzeppelin/contracts/token/ERC20/ERC20.sol\":8411:8446  _update(account, address(0), value) */\n      tag_157\n        /* \"@openzeppelin/contracts/token/ERC20/ERC20.sol\":8419:8426  account */\n      dup3\n        /* \"@openzeppelin/contracts/token/ERC20/ERC20.sol\":8436:8437  0 */\n      0x00\n        /* \"@openzeppelin/contracts/token/ERC20/ERC20.sol\":8440:8445  value */\n      dup4\n        /* \"@openzeppelin/contracts/token/ERC20/ERC20.sol\":8411:8418  _update */\n      tag_149\n        /* \"@openzeppelin/contracts/token/ERC20/ERC20.sol\":8411:8446  _update(account, address(0), value) */\n      jump\t// in\n    tag_157:\n        /* \"@openzeppelin/contracts/token/ERC20/ERC20.sol\":8247:8453  function _burn(address account, uint256 value) internal {... */\n      pop\n      pop\n      jump\t// out\n        /* \"contracts/HelloWorld5.sol\":1166:1495  function toDate(uint256 value) internal pure returns (string memory) {... */\n    tag_130:\n        /* \"contracts/HelloWorld5.sol\":1220:1233  string memory */\n      0x60\n        /* \"contracts/HelloWorld5.sol\":1245:1262  string memory day */\n      0x00\n        /* \"contracts/HelloWorld5.sol\":1265:1294  uint256ToString(toDay(value)) */\n      tag_159\n        /* \"contracts/HelloWorld5.sol\":1281:1293  toDay(value) */\n      tag_160\n        /* \"contracts/HelloWorld5.sol\":1287:1292  value */\n      dup5\n        /* \"contracts/HelloWorld5.sol\":1281:1286  toDay */\n      tag_161\n        /* \"contracts/HelloWorld5.sol\":1281:1293  toDay(value) */\n      jump\t// in\n    tag_160:\n        /* \"contracts/HelloWorld5.sol\":1265:1280  uint256ToString */\n      tag_162\n        /* \"contracts/HelloWorld5.sol\":1265:1294  uint256ToString(toDay(value)) */\n      jump\t// in\n    tag_159:\n        /* \"contracts/HelloWorld5.sol\":1245:1294  string memory day = uint256ToString(toDay(value)) */\n      swap1\n      pop\n        /* \"contracts/HelloWorld5.sol\":1304:1323  string memory month */\n      0x00\n        /* \"contracts/HelloWorld5.sol\":1326:1357  uint256ToString(toMonth(value)) */\n      tag_163\n        /* \"contracts/HelloWorld5.sol\":1342:1356  toMonth(value) */\n      tag_164\n        /* \"contracts/HelloWorld5.sol\":1350:1355  value */\n      dup6\n        /* \"contracts/HelloWorld5.sol\":1342:1349  toMonth */\n      tag_165\n        /* \"contracts/HelloWorld5.sol\":1342:1356  toMonth(value) */\n      jump\t// in\n    tag_164:\n        /* \"contracts/HelloWorld5.sol\":1326:1341  uint256ToString */\n      tag_162\n        /* \"contracts/HelloWorld5.sol\":1326:1357  uint256ToString(toMonth(value)) */\n      jump\t// in\n    tag_163:\n        /* \"contracts/HelloWorld5.sol\":1304:1357  string memory month = uint256ToString(toMonth(value)) */\n      swap1\n      pop\n        /* \"contracts/HelloWorld5.sol\":1367:1385  string memory year */\n      0x00\n        /* \"contracts/HelloWorld5.sol\":1388:1418  uint256ToString(toYear(value)) */\n      tag_166\n        /* \"contracts/HelloWorld5.sol\":1404:1417  toYear(value) */\n      tag_167\n        /* \"contracts/HelloWorld5.sol\":1411:1416  value */\n      dup7\n        /* \"contracts/HelloWorld5.sol\":1404:1410  toYear */\n      tag_168\n        /* \"contracts/HelloWorld5.sol\":1404:1417  toYear(value) */\n      jump\t// in\n    tag_167:\n        /* \"contracts/HelloWorld5.sol\":1388:1403  uint256ToString */\n      tag_162\n        /* \"contracts/HelloWorld5.sol\":1388:1418  uint256ToString(toYear(value)) */\n      jump\t// in\n    tag_166:\n        /* \"contracts/HelloWorld5.sol\":1367:1418  string memory year = uint256ToString(toYear(value)) */\n      swap1\n      pop\n        /* \"contracts/HelloWorld5.sol\":1460:1463  day */\n      dup3\n        /* \"contracts/HelloWorld5.sol\":1470:1475  month */\n      dup3\n        /* \"contracts/HelloWorld5.sol\":1482:1486  year */\n      dup3\n        /* \"contracts/HelloWorld5.sol\":1443:1487  abi.encodePacked(day, \"/\", month, \"/\", year) */\n      add(0x20, mload(0x40))\n      tag_169\n      swap4\n      swap3\n      swap2\n      swap1\n      tag_170\n      jump\t// in\n    tag_169:\n      mload(0x40)\n      0x20\n      dup2\n      dup4\n      sub\n      sub\n      dup2\n      mstore\n      swap1\n      0x40\n      mstore\n        /* \"contracts/HelloWorld5.sol\":1429:1488  return string(abi.encodePacked(day, \"/\", month, \"/\", year)) */\n      swap4\n      pop\n      pop\n      pop\n      pop\n        /* \"contracts/HelloWorld5.sol\":1166:1495  function toDate(uint256 value) internal pure returns (string memory) {... */\n      swap2\n      swap1\n      pop\n      jump\t// out\n        /* \"@openzeppelin/contracts/token/ERC20/ERC20.sol\":9949:10381  function _approve(address owner, address spender, uint256 value, bool emitEvent) internal virtual {... */\n    tag_135:\n        /* \"@openzeppelin/contracts/token/ERC20/ERC20.sol\":10078:10079  0 */\n      0x00\n        /* \"@openzeppelin/contracts/token/ERC20/ERC20.sol\":10061:10080  owner == address(0) */\n      0xffffffffffffffffffffffffffffffffffffffff\n      and\n        /* \"@openzeppelin/contracts/token/ERC20/ERC20.sol\":10061:10066  owner */\n      dup5\n        /* \"@openzeppelin/contracts/token/ERC20/ERC20.sol\":10061:10080  owner == address(0) */\n      0xffffffffffffffffffffffffffffffffffffffff\n      and\n      sub\n        /* \"@openzeppelin/contracts/token/ERC20/ERC20.sol\":10057:10146  if (owner == address(0)) {... */\n      tag_172\n      jumpi\n        /* \"@openzeppelin/contracts/token/ERC20/ERC20.sol\":10132:10133  0 */\n      0x00\n        /* \"@openzeppelin/contracts/token/ERC20/ERC20.sol\":10103:10135  ERC20InvalidApprover(address(0)) */\n      mload(0x40)\n      0xe602df0500000000000000000000000000000000000000000000000000000000\n      dup2\n      mstore\n      0x04\n      add\n      tag_173\n      swap2\n      swap1\n      tag_63\n      jump\t// in\n    tag_173:\n      mload(0x40)\n      dup1\n      swap2\n      sub\n      swap1\n      revert\n        /* \"@openzeppelin/contracts/token/ERC20/ERC20.sol\":10057:10146  if (owner == address(0)) {... */\n    tag_172:\n        /* \"@openzeppelin/contracts/token/ERC20/ERC20.sol\":10178:10179  0 */\n      0x00\n        /* \"@openzeppelin/contracts/token/ERC20/ERC20.sol\":10159:10180  spender == address(0) */\n      0xffffffffffffffffffffffffffffffffffffffff\n      and\n        /* \"@openzeppelin/contracts/token/ERC20/ERC20.sol\":10159:10166  spender */\n      dup4\n        /* \"@openzeppelin/contracts/token/ERC20/ERC20.sol\":10159:10180  spender == address(0) */\n      0xffffffffffffffffffffffffffffffffffffffff\n      and\n      sub\n        /* \"@openzeppelin/contracts/token/ERC20/ERC20.sol\":10155:10245  if (spender == address(0)) {... */\n      tag_174\n      jumpi\n        /* \"@openzeppelin/contracts/token/ERC20/ERC20.sol\":10231:10232  0 */\n      0x00\n        /* \"@openzeppelin/contracts/token/ERC20/ERC20.sol\":10203:10234  ERC20InvalidSpender(address(0)) */\n      mload(0x40)\n      0x94280d6200000000000000000000000000000000000000000000000000000000\n      dup2\n      mstore\n      0x04\n      add\n      tag_175\n      swap2\n      swap1\n      tag_63\n      jump\t// in\n    tag_175:\n      mload(0x40)\n      dup1\n      swap2\n      sub\n      swap1\n      revert\n        /* \"@openzeppelin/contracts/token/ERC20/ERC20.sol\":10155:10245  if (spender == address(0)) {... */\n    tag_174:\n        /* \"@openzeppelin/contracts/token/ERC20/ERC20.sol\":10284:10289  value */\n      dup2\n        /* \"@openzeppelin/contracts/token/ERC20/ERC20.sol\":10254:10265  _allowances */\n      0x01\n        /* \"@openzeppelin/contracts/token/ERC20/ERC20.sol\":10254:10272  _allowances[owner] */\n      0x00\n        /* \"@openzeppelin/contracts/token/ERC20/ERC20.sol\":10266:10271  owner */\n      dup7\n        /* \"@openzeppelin/contracts/token/ERC20/ERC20.sol\":10254:10272  _allowances[owner] */\n      0xffffffffffffffffffffffffffffffffffffffff\n      and\n      0xffffffffffffffffffffffffffffffffffffffff\n      and\n      dup2\n      mstore\n      0x20\n      add\n      swap1\n      dup2\n      mstore\n      0x20\n      add\n      0x00\n      keccak256\n        /* \"@openzeppelin/contracts/token/ERC20/ERC20.sol\":10254:10281  _allowances[owner][spender] */\n      0x00\n        /* \"@openzeppelin/contracts/token/ERC20/ERC20.sol\":10273:10280  spender */\n      dup6\n        /* \"@openzeppelin/contracts/token/ERC20/ERC20.sol\":10254:10281  _allowances[owner][spender] */\n      0xffffffffffffffffffffffffffffffffffffffff\n      and\n      0xffffffffffffffffffffffffffffffffffffffff\n      and\n      dup2\n      mstore\n      0x20\n      add\n      swap1\n      dup2\n      mstore\n      0x20\n      add\n      0x00\n      keccak256\n        /* \"@openzeppelin/contracts/token/ERC20/ERC20.sol\":10254:10289  _allowances[owner][spender] = value */\n      dup2\n      swap1\n      sstore\n      pop\n        /* \"@openzeppelin/contracts/token/ERC20/ERC20.sol\":10303:10312  emitEvent */\n      dup1\n        /* \"@openzeppelin/contracts/token/ERC20/ERC20.sol\":10299:10375  if (emitEvent) {... */\n      iszero\n      tag_176\n      jumpi\n        /* \"@openzeppelin/contracts/token/ERC20/ERC20.sol\":10349:10356  spender */\n      dup3\n        /* \"@openzeppelin/contracts/token/ERC20/ERC20.sol\":10333:10364  Approval(owner, spender, value) */\n      0xffffffffffffffffffffffffffffffffffffffff\n      and\n        /* \"@openzeppelin/contracts/token/ERC20/ERC20.sol\":10342:10347  owner */\n      dup5\n        /* \"@openzeppelin/contracts/token/ERC20/ERC20.sol\":10333:10364  Approval(owner, spender, value) */\n      0xffffffffffffffffffffffffffffffffffffffff\n      and\n      0x8c5be1e5ebec7d5bd14f71427d1e84f3dd0314c0f7b2291e5b200ac8c7c3b925\n        /* \"@openzeppelin/contracts/token/ERC20/ERC20.sol\":10358:10363  value */\n      dup5\n        /* \"@openzeppelin/contracts/token/ERC20/ERC20.sol\":10333:10364  Approval(owner, spender, value) */\n      mload(0x40)\n      tag_177\n      swap2\n      swap1\n      tag_35\n      jump\t// in\n    tag_177:\n      mload(0x40)\n      dup1\n      swap2\n      sub\n      swap1\n      log3\n        /* \"@openzeppelin/contracts/token/ERC20/ERC20.sol\":10299:10375  if (emitEvent) {... */\n    tag_176:\n        /* \"@openzeppelin/contracts/token/ERC20/ERC20.sol\":9949:10381  function _approve(address owner, address spender, uint256 value, bool emitEvent) internal virtual {... */\n      pop\n      pop\n      pop\n      pop\n      jump\t// out\n        /* \"@openzeppelin/contracts/token/ERC20/ERC20.sol\":6271:7378  function _update(address from, address to, uint256 value) internal virtual {... */\n    tag_149:\n        /* \"@openzeppelin/contracts/token/ERC20/ERC20.sol\":6376:6377  0 */\n      0x00\n        /* \"@openzeppelin/contracts/token/ERC20/ERC20.sol\":6360:6378  from == address(0) */\n      0xffffffffffffffffffffffffffffffffffffffff\n      and\n        /* \"@openzeppelin/contracts/token/ERC20/ERC20.sol\":6360:6364  from */\n      dup4\n        /* \"@openzeppelin/contracts/token/ERC20/ERC20.sol\":6360:6378  from == address(0) */\n      0xffffffffffffffffffffffffffffffffffffffff\n      and\n      sub\n        /* \"@openzeppelin/contracts/token/ERC20/ERC20.sol\":6356:6896  if (from == address(0)) {... */\n      tag_179\n      jumpi\n        /* \"@openzeppelin/contracts/token/ERC20/ERC20.sol\":6512:6517  value */\n      dup1\n        /* \"@openzeppelin/contracts/token/ERC20/ERC20.sol\":6496:6508  _totalSupply */\n      0x02\n      0x00\n        /* \"@openzeppelin/contracts/token/ERC20/ERC20.sol\":6496:6517  _totalSupply += value */\n      dup3\n      dup3\n      sload\n      tag_180\n      swap2\n      swap1\n      tag_181\n      jump\t// in\n    tag_180:\n      swap3\n      pop\n      pop\n      dup2\n      swap1\n      sstore\n      pop\n        /* \"@openzeppelin/contracts/token/ERC20/ERC20.sol\":6356:6896  if (from == address(0)) {... */\n      jump(tag_182)\n    tag_179:\n        /* \"@openzeppelin/contracts/token/ERC20/ERC20.sol\":6548:6567  uint256 fromBalance */\n      0x00\n        /* \"@openzeppelin/contracts/token/ERC20/ERC20.sol\":6570:6579  _balances */\n      dup1\n        /* \"@openzeppelin/contracts/token/ERC20/ERC20.sol\":6570:6585  _balances[from] */\n      0x00\n        /* \"@openzeppelin/contracts/token/ERC20/ERC20.sol\":6580:6584  from */\n      dup6\n        /* \"@openzeppelin/contracts/token/ERC20/ERC20.sol\":6570:6585  _balances[from] */\n      0xffffffffffffffffffffffffffffffffffffffff\n      and\n      0xffffffffffffffffffffffffffffffffffffffff\n      and\n      dup2\n      mstore\n      0x20\n      add\n      swap1\n      dup2\n      mstore\n      0x20\n      add\n      0x00\n      keccak256\n      sload\n        /* \"@openzeppelin/contracts/token/ERC20/ERC20.sol\":6548:6585  uint256 fromBalance = _balances[from] */\n      swap1\n      pop\n        /* \"@openzeppelin/contracts/token/ERC20/ERC20.sol\":6617:6622  value */\n      dup2\n        /* \"@openzeppelin/contracts/token/ERC20/ERC20.sol\":6603:6614  fromBalance */\n      dup2\n        /* \"@openzeppelin/contracts/token/ERC20/ERC20.sol\":6603:6622  fromBalance < value */\n      lt\n        /* \"@openzeppelin/contracts/token/ERC20/ERC20.sol\":6599:6714  if (fromBalance < value) {... */\n      iszero\n      tag_183\n      jumpi\n        /* \"@openzeppelin/contracts/token/ERC20/ERC20.sol\":6674:6678  from */\n      dup4\n        /* \"@openzeppelin/contracts/token/ERC20/ERC20.sol\":6680:6691  fromBalance */\n      dup2\n        /* \"@openzeppelin/contracts/token/ERC20/ERC20.sol\":6693:6698  value */\n      dup4\n        /* \"@openzeppelin/contracts/token/ERC20/ERC20.sol\":6649:6699  ERC20InsufficientBalance(from, fromBalance, value) */\n      mload(0x40)\n      0xe450d38c00000000000000000000000000000000000000000000000000000000\n      dup2\n      mstore\n      0x04\n      add\n      tag_184\n      swap4\n      swap3\n      swap2\n      swap1\n      tag_141\n      jump\t// in\n    tag_184:\n      mload(0x40)\n      dup1\n      swap2\n      sub\n      swap1\n      revert\n        /* \"@openzeppelin/contracts/token/ERC20/ERC20.sol\":6599:6714  if (fromBalance < value) {... */\n    tag_183:\n        /* \"@openzeppelin/contracts/token/ERC20/ERC20.sol\":6866:6871  value */\n      dup2\n        /* \"@openzeppelin/contracts/token/ERC20/ERC20.sol\":6852:6863  fromBalance */\n      dup2\n        /* \"@openzeppelin/contracts/token/ERC20/ERC20.sol\":6852:6871  fromBalance - value */\n      sub\n        /* \"@openzeppelin/contracts/token/ERC20/ERC20.sol\":6834:6843  _balances */\n      0x00\n        /* \"@openzeppelin/contracts/token/ERC20/ERC20.sol\":6834:6849  _balances[from] */\n      dup1\n        /* \"@openzeppelin/contracts/token/ERC20/ERC20.sol\":6844:6848  from */\n      dup7\n        /* \"@openzeppelin/contracts/token/ERC20/ERC20.sol\":6834:6849  _balances[from] */\n      0xffffffffffffffffffffffffffffffffffffffff\n      and\n      0xffffffffffffffffffffffffffffffffffffffff\n      and\n      dup2\n      mstore\n      0x20\n      add\n      swap1\n      dup2\n      mstore\n      0x20\n      add\n      0x00\n      keccak256\n        /* \"@openzeppelin/contracts/token/ERC20/ERC20.sol\":6834:6871  _balances[from] = fromBalance - value */\n      dup2\n      swap1\n      sstore\n      pop\n        /* \"@openzeppelin/contracts/token/ERC20/ERC20.sol\":6534:6896  {... */\n      pop\n        /* \"@openzeppelin/contracts/token/ERC20/ERC20.sol\":6356:6896  if (from == address(0)) {... */\n    tag_182:\n        /* \"@openzeppelin/contracts/token/ERC20/ERC20.sol\":6924:6925  0 */\n      0x00\n        /* \"@openzeppelin/contracts/token/ERC20/ERC20.sol\":6910:6926  to == address(0) */\n      0xffffffffffffffffffffffffffffffffffffffff\n      and\n        /* \"@openzeppelin/contracts/token/ERC20/ERC20.sol\":6910:6912  to */\n      dup3\n        /* \"@openzeppelin/contracts/token/ERC20/ERC20.sol\":6910:6926  to == address(0) */\n      0xffffffffffffffffffffffffffffffffffffffff\n      and\n      sub\n        /* \"@openzeppelin/contracts/token/ERC20/ERC20.sol\":6906:7331  if (to == address(0)) {... */\n      tag_185\n      jumpi\n        /* \"@openzeppelin/contracts/token/ERC20/ERC20.sol\":7089:7094  value */\n      dup1\n        /* \"@openzeppelin/contracts/token/ERC20/ERC20.sol\":7073:7085  _totalSupply */\n      0x02\n      0x00\n        /* \"@openzeppelin/contracts/token/ERC20/ERC20.sol\":7073:7094  _totalSupply -= value */\n      dup3\n      dup3\n      sload\n      sub\n      swap3\n      pop\n      pop\n      dup2\n      swap1\n      sstore\n      pop\n        /* \"@openzeppelin/contracts/token/ERC20/ERC20.sol\":6906:7331  if (to == address(0)) {... */\n      jump(tag_186)\n    tag_185:\n        /* \"@openzeppelin/contracts/token/ERC20/ERC20.sol\":7301:7306  value */\n      dup1\n        /* \"@openzeppelin/contracts/token/ERC20/ERC20.sol\":7284:7293  _balances */\n      0x00\n        /* \"@openzeppelin/contracts/token/ERC20/ERC20.sol\":7284:7297  _balances[to] */\n      dup1\n        /* \"@openzeppelin/contracts/token/ERC20/ERC20.sol\":7294:7296  to */\n      dup5\n        /* \"@openzeppelin/contracts/token/ERC20/ERC20.sol\":7284:7297  _balances[to] */\n      0xffffffffffffffffffffffffffffffffffffffff\n      and\n      0xffffffffffffffffffffffffffffffffffffffff\n      and\n      dup2\n      mstore\n      0x20\n      add\n      swap1\n      dup2\n      mstore\n      0x20\n      add\n      0x00\n      keccak256\n      0x00\n        /* \"@openzeppelin/contracts/token/ERC20/ERC20.sol\":7284:7306  _balances[to] += value */\n      dup3\n      dup3\n      sload\n      add\n      swap3\n      pop\n      pop\n      dup2\n      swap1\n      sstore\n      pop\n        /* \"@openzeppelin/contracts/token/ERC20/ERC20.sol\":6906:7331  if (to == address(0)) {... */\n    tag_186:\n        /* \"@openzeppelin/contracts/token/ERC20/ERC20.sol\":7361:7363  to */\n      dup2\n        /* \"@openzeppelin/contracts/token/ERC20/ERC20.sol\":7346:7371  Transfer(from, to, value) */\n      0xffffffffffffffffffffffffffffffffffffffff\n      and\n        /* \"@openzeppelin/contracts/token/ERC20/ERC20.sol\":7355:7359  from */\n      dup4\n        /* \"@openzeppelin/contracts/token/ERC20/ERC20.sol\":7346:7371  Transfer(from, to, value) */\n      0xffffffffffffffffffffffffffffffffffffffff\n      and\n      0xddf252ad1be2c89b69c2b068fc378daa952ba7f163c4a11628f55a4df523b3ef\n        /* \"@openzeppelin/contracts/token/ERC20/ERC20.sol\":7365:7370  value */\n      dup4\n        /* \"@openzeppelin/contracts/token/ERC20/ERC20.sol\":7346:7371  Transfer(from, to, value) */\n      mload(0x40)\n      tag_187\n      swap2\n      swap1\n      tag_35\n      jump\t// in\n    tag_187:\n      mload(0x40)\n      dup1\n      swap2\n      sub\n      swap1\n      log3\n        /* \"@openzeppelin/contracts/token/ERC20/ERC20.sol\":6271:7378  function _update(address from, address to, uint256 value) internal virtual {... */\n      pop\n      pop\n      pop\n      jump\t// out\n        /* \"contracts/HelloWorld5.sol\":1693:1963  function toDay(uint256 value) internal pure returns (uint) {... */\n    tag_161:\n        /* \"contracts/HelloWorld5.sol\":1746:1750  uint */\n      0x00\n        /* \"contracts/HelloWorld5.sol\":1762:1774  uint256 year */\n      dup1\n        /* \"contracts/HelloWorld5.sol\":1777:1790  toYear(value) */\n      tag_189\n        /* \"contracts/HelloWorld5.sol\":1784:1789  value */\n      dup4\n        /* \"contracts/HelloWorld5.sol\":1777:1783  toYear */\n      tag_168\n        /* \"contracts/HelloWorld5.sol\":1777:1790  toYear(value) */\n      jump\t// in\n    tag_189:\n        /* \"contracts/HelloWorld5.sol\":1762:1790  uint256 year = toYear(value) */\n      swap1\n      pop\n        /* \"contracts/HelloWorld5.sol\":1800:1818  uint256 daysInYear */\n      0x00\n        /* \"contracts/HelloWorld5.sol\":1833:1834  0 */\n      dup1\n        /* \"contracts/HelloWorld5.sol\":1828:1829  4 */\n      0x04\n        /* \"contracts/HelloWorld5.sol\":1821:1825  year */\n      dup4\n        /* \"contracts/HelloWorld5.sol\":1821:1829  year % 4 */\n      tag_190\n      swap2\n      swap1\n      tag_191\n      jump\t// in\n    tag_190:\n        /* \"contracts/HelloWorld5.sol\":1821:1834  year % 4 == 0 */\n      eq\n        /* \"contracts/HelloWorld5.sol\":1821:1846  year % 4 == 0 ? 366 : 365 */\n      tag_192\n      jumpi\n        /* \"contracts/HelloWorld5.sol\":1843:1846  365 */\n      0x016d\n        /* \"contracts/HelloWorld5.sol\":1821:1846  year % 4 == 0 ? 366 : 365 */\n      jump(tag_193)\n    tag_192:\n        /* \"contracts/HelloWorld5.sol\":1837:1840  366 */\n      0x016e\n        /* \"contracts/HelloWorld5.sol\":1821:1846  year % 4 == 0 ? 366 : 365 */\n    tag_193:\n        /* \"contracts/HelloWorld5.sol\":1800:1846  uint256 daysInYear = year % 4 == 0 ? 366 : 365 */\n      0xffff\n      and\n      swap1\n      pop\n        /* \"contracts/HelloWorld5.sol\":1856:1872  uint256 reminder */\n      0x00\n        /* \"contracts/HelloWorld5.sol\":1884:1896  60 * 60 * 24 */\n      0x015180\n        /* \"contracts/HelloWorld5.sol\":1875:1880  value */\n      dup6\n        /* \"contracts/HelloWorld5.sol\":1875:1897  value / (60 * 60 * 24) */\n      tag_194\n      swap2\n      swap1\n      tag_195\n      jump\t// in\n    tag_194:\n        /* \"contracts/HelloWorld5.sol\":1856:1897  uint256 reminder = value / (60 * 60 * 24) */\n      swap1\n      pop\n        /* \"contracts/HelloWorld5.sol\":1954:1956  12 */\n      0x0c\n        /* \"contracts/HelloWorld5.sol\":1941:1951  daysInYear */\n      dup3\n        /* \"contracts/HelloWorld5.sol\":1933:1937  1970 */\n      0x07b2\n        /* \"contracts/HelloWorld5.sol\":1926:1930  year */\n      dup6\n        /* \"contracts/HelloWorld5.sol\":1926:1937  year - 1970 */\n      tag_196\n      swap2\n      swap1\n      tag_197\n      jump\t// in\n    tag_196:\n        /* \"contracts/HelloWorld5.sol\":1925:1951  (year - 1970) * daysInYear */\n      tag_198\n      swap2\n      swap1\n      tag_199\n      jump\t// in\n    tag_198:\n        /* \"contracts/HelloWorld5.sol\":1914:1922  reminder */\n      dup3\n        /* \"contracts/HelloWorld5.sol\":1914:1951  reminder - (year - 1970) * daysInYear */\n      tag_200\n      swap2\n      swap1\n      tag_197\n      jump\t// in\n    tag_200:\n        /* \"contracts/HelloWorld5.sol\":1914:1956  reminder - (year - 1970) * daysInYear - 12 */\n      tag_201\n      swap2\n      swap1\n      tag_197\n      jump\t// in\n    tag_201:\n        /* \"contracts/HelloWorld5.sol\":1907:1956  return reminder - (year - 1970) * daysInYear - 12 */\n      swap4\n      pop\n      pop\n      pop\n      pop\n        /* \"contracts/HelloWorld5.sol\":1693:1963  function toDay(uint256 value) internal pure returns (uint) {... */\n      swap2\n      swap1\n      pop\n      jump\t// out\n        /* \"contracts/HelloWorld5.sol\":3326:3826  function uint256ToString(uint256 value) internal pure returns (string memory) {... */\n    tag_162:\n        /* \"contracts/HelloWorld5.sol\":3389:3402  string memory */\n      0x60\n        /* \"contracts/HelloWorld5.sol\":3427:3428  0 */\n      0x00\n        /* \"contracts/HelloWorld5.sol\":3418:3423  value */\n      dup3\n        /* \"contracts/HelloWorld5.sol\":3418:3428  value == 0 */\n      sub\n        /* \"contracts/HelloWorld5.sol\":3414:3440  if (value == 0) return \"0\" */\n      tag_203\n      jumpi\n        /* \"contracts/HelloWorld5.sol\":3430:3440  return \"0\" */\n      mload(0x40)\n      dup1\n      0x40\n      add\n      0x40\n      mstore\n      dup1\n      0x01\n      dup2\n      mstore\n      0x20\n      add\n      0x3000000000000000000000000000000000000000000000000000000000000000\n      dup2\n      mstore\n      pop\n      swap1\n      pop\n      jump(tag_202)\n        /* \"contracts/HelloWorld5.sol\":3414:3440  if (value == 0) return \"0\" */\n    tag_203:\n        /* \"contracts/HelloWorld5.sol\":3451:3463  uint256 temp */\n      0x00\n        /* \"contracts/HelloWorld5.sol\":3466:3471  value */\n      dup3\n        /* \"contracts/HelloWorld5.sol\":3451:3471  uint256 temp = value */\n      swap1\n      pop\n        /* \"contracts/HelloWorld5.sol\":3481:3495  uint256 digits */\n      0x00\n        /* \"contracts/HelloWorld5.sol\":3506:3581  while (temp != 0) {... */\n    tag_204:\n        /* \"contracts/HelloWorld5.sol\":3521:3522  0 */\n      0x00\n        /* \"contracts/HelloWorld5.sol\":3513:3517  temp */\n      dup3\n        /* \"contracts/HelloWorld5.sol\":3513:3522  temp != 0 */\n      eq\n        /* \"contracts/HelloWorld5.sol\":3506:3581  while (temp != 0) {... */\n      tag_205\n      jumpi\n        /* \"contracts/HelloWorld5.sol\":3538:3546  digits++ */\n      dup1\n      dup1\n      tag_206\n      swap1\n      tag_207\n      jump\t// in\n    tag_206:\n      swap2\n      pop\n      pop\n        /* \"contracts/HelloWorld5.sol\":3568:3570  10 */\n      0x0a\n        /* \"contracts/HelloWorld5.sol\":3560:3570  temp /= 10 */\n      dup3\n      tag_208\n      swap2\n      swap1\n      tag_195\n      jump\t// in\n    tag_208:\n      swap2\n      pop\n        /* \"contracts/HelloWorld5.sol\":3506:3581  while (temp != 0) {... */\n      jump(tag_204)\n    tag_205:\n        /* \"contracts/HelloWorld5.sol\":3591:3610  bytes memory buffer */\n      0x00\n        /* \"contracts/HelloWorld5.sol\":3623:3629  digits */\n      dup2\n        /* \"contracts/HelloWorld5.sol\":3613:3630  new bytes(digits) */\n      0xffffffffffffffff\n      dup2\n      gt\n      iszero\n      tag_209\n      jumpi\n      tag_210\n      tag_211\n      jump\t// in\n    tag_210:\n    tag_209:\n      mload(0x40)\n      swap1\n      dup1\n      dup3\n      mstore\n      dup1\n      0x1f\n      add\n      not(0x1f)\n      and\n      0x20\n      add\n      dup3\n      add\n      0x40\n      mstore\n      dup1\n      iszero\n      tag_212\n      jumpi\n      dup2\n      0x20\n      add\n      0x01\n      dup3\n      mul\n      dup1\n      calldatasize\n      dup4\n      calldatacopy\n      dup1\n      dup3\n      add\n      swap2\n      pop\n      pop\n      swap1\n      pop\n    tag_212:\n      pop\n        /* \"contracts/HelloWorld5.sol\":3591:3630  bytes memory buffer = new bytes(digits) */\n      swap1\n      pop\n        /* \"contracts/HelloWorld5.sol\":3641:3788  while (value != 0) {... */\n    tag_213:\n        /* \"contracts/HelloWorld5.sol\":3657:3658  0 */\n      0x00\n        /* \"contracts/HelloWorld5.sol\":3648:3653  value */\n      dup6\n        /* \"contracts/HelloWorld5.sol\":3648:3658  value != 0 */\n      eq\n        /* \"contracts/HelloWorld5.sol\":3641:3788  while (value != 0) {... */\n      tag_214\n      jumpi\n        /* \"contracts/HelloWorld5.sol\":3674:3682  digits-- */\n      dup2\n      dup1\n      tag_215\n      swap1\n      tag_216\n      jump\t// in\n    tag_215:\n      swap3\n      pop\n      pop\n        /* \"contracts/HelloWorld5.sol\":3747:3749  10 */\n      0x0a\n        /* \"contracts/HelloWorld5.sol\":3739:3744  value */\n      dup6\n        /* \"contracts/HelloWorld5.sol\":3739:3749  value % 10 */\n      tag_217\n      swap2\n      swap1\n      tag_191\n      jump\t// in\n    tag_217:\n        /* \"contracts/HelloWorld5.sol\":3726:3728  48 */\n      0x30\n        /* \"contracts/HelloWorld5.sol\":3726:3750  48 + uint256(value % 10) */\n      tag_218\n      swap2\n      swap1\n      tag_181\n      jump\t// in\n    tag_218:\n        /* \"contracts/HelloWorld5.sol\":3713:3752  bytes1(uint8(48 + uint256(value % 10))) */\n      0xf8\n      shl\n        /* \"contracts/HelloWorld5.sol\":3696:3702  buffer */\n      dup2\n        /* \"contracts/HelloWorld5.sol\":3703:3709  digits */\n      dup4\n        /* \"contracts/HelloWorld5.sol\":3696:3710  buffer[digits] */\n      dup2\n      mload\n      dup2\n      lt\n      tag_219\n      jumpi\n      tag_220\n      tag_221\n      jump\t// in\n    tag_220:\n    tag_219:\n      0x20\n      add\n      add\n        /* \"contracts/HelloWorld5.sol\":3696:3752  buffer[digits] = bytes1(uint8(48 + uint256(value % 10))) */\n      swap1\n      not(0xffffffffffffffffffffffffffffffffffffffffffffffffffffffffffffff)\n      and\n      swap1\n      dup2\n      0x00\n      byte\n      swap1\n      mstore8\n      pop\n        /* \"contracts/HelloWorld5.sol\":3775:3777  10 */\n      0x0a\n        /* \"contracts/HelloWorld5.sol\":3766:3777  value /= 10 */\n      dup6\n      tag_222\n      swap2\n      swap1\n      tag_195\n      jump\t// in\n    tag_222:\n      swap5\n      pop\n        /* \"contracts/HelloWorld5.sol\":3641:3788  while (value != 0) {... */\n      jump(tag_213)\n    tag_214:\n        /* \"contracts/HelloWorld5.sol\":3812:3818  buffer */\n      dup1\n        /* \"contracts/HelloWorld5.sol\":3798:3819  return string(buffer) */\n      swap4\n      pop\n      pop\n      pop\n      pop\n        /* \"contracts/HelloWorld5.sol\":3326:3826  function uint256ToString(uint256 value) internal pure returns (string memory) {... */\n    tag_202:\n      swap2\n      swap1\n      pop\n      jump\t// out\n        /* \"contracts/HelloWorld5.sol\":1969:3320  function toMonth(uint256 value) internal pure returns (uint) {... */\n    tag_165:\n        /* \"contracts/HelloWorld5.sol\":2024:2028  uint */\n      0x00\n        /* \"contracts/HelloWorld5.sol\":2040:2052  uint256 year */\n      dup1\n        /* \"contracts/HelloWorld5.sol\":2055:2068  toYear(value) */\n      tag_224\n        /* \"contracts/HelloWorld5.sol\":2062:2067  value */\n      dup4\n        /* \"contracts/HelloWorld5.sol\":2055:2061  toYear */\n      tag_168\n        /* \"contracts/HelloWorld5.sol\":2055:2068  toYear(value) */\n      jump\t// in\n    tag_224:\n        /* \"contracts/HelloWorld5.sol\":2040:2068  uint256 year = toYear(value) */\n      swap1\n      pop\n        /* \"contracts/HelloWorld5.sol\":2078:2096  uint256 daysInYear */\n      0x00\n        /* \"contracts/HelloWorld5.sol\":2111:2112  0 */\n      dup1\n        /* \"contracts/HelloWorld5.sol\":2106:2107  4 */\n      0x04\n        /* \"contracts/HelloWorld5.sol\":2099:2103  year */\n      dup4\n        /* \"contracts/HelloWorld5.sol\":2099:2107  year % 4 */\n      tag_225\n      swap2\n      swap1\n      tag_191\n      jump\t// in\n    tag_225:\n        /* \"contracts/HelloWorld5.sol\":2099:2112  year % 4 == 0 */\n      eq\n        /* \"contracts/HelloWorld5.sol\":2099:2124  year % 4 == 0 ? 366 : 365 */\n      tag_226\n      jumpi\n        /* \"contracts/HelloWorld5.sol\":2121:2124  365 */\n      0x016d\n        /* \"contracts/HelloWorld5.sol\":2099:2124  year % 4 == 0 ? 366 : 365 */\n      jump(tag_227)\n    tag_226:\n        /* \"contracts/HelloWorld5.sol\":2115:2118  366 */\n      0x016e\n        /* \"contracts/HelloWorld5.sol\":2099:2124  year % 4 == 0 ? 366 : 365 */\n    tag_227:\n        /* \"contracts/HelloWorld5.sol\":2078:2124  uint256 daysInYear = year % 4 == 0 ? 366 : 365 */\n      0xffff\n      and\n      swap1\n      pop\n        /* \"contracts/HelloWorld5.sol\":2134:2145  uint256 day */\n      0x00\n        /* \"contracts/HelloWorld5.sol\":2148:2160  toDay(value) */\n      tag_228\n        /* \"contracts/HelloWorld5.sol\":2154:2159  value */\n      dup6\n        /* \"contracts/HelloWorld5.sol\":2148:2153  toDay */\n      tag_161\n        /* \"contracts/HelloWorld5.sol\":2148:2160  toDay(value) */\n      jump\t// in\n    tag_228:\n        /* \"contracts/HelloWorld5.sol\":2134:2160  uint256 day = toDay(value) */\n      swap1\n      pop\n        /* \"contracts/HelloWorld5.sol\":2182:2184  31 */\n      0x1f\n        /* \"contracts/HelloWorld5.sol\":2175:2178  day */\n      dup2\n        /* \"contracts/HelloWorld5.sol\":2175:2184  day <= 31 */\n      gt\n        /* \"contracts/HelloWorld5.sol\":2171:2194  if (day <= 31) return 1 */\n      tag_229\n      jumpi\n        /* \"contracts/HelloWorld5.sol\":2193:2194  1 */\n      0x01\n        /* \"contracts/HelloWorld5.sol\":2186:2194  return 1 */\n      swap4\n      pop\n      pop\n      pop\n      pop\n      jump(tag_223)\n        /* \"contracts/HelloWorld5.sol\":2171:2194  if (day <= 31) return 1 */\n    tag_229:\n        /* \"contracts/HelloWorld5.sol\":2215:2217  59 */\n      0x3b\n        /* \"contracts/HelloWorld5.sol\":2208:2211  day */\n      dup2\n        /* \"contracts/HelloWorld5.sol\":2208:2217  day <= 59 */\n      gt\n      iszero\n        /* \"contracts/HelloWorld5.sol\":2208:2238  day <= 59 && daysInYear == 365 */\n      dup1\n      iszero\n      tag_230\n      jumpi\n      pop\n        /* \"contracts/HelloWorld5.sol\":2235:2238  365 */\n      0x016d\n        /* \"contracts/HelloWorld5.sol\":2221:2231  daysInYear */\n      dup3\n        /* \"contracts/HelloWorld5.sol\":2221:2238  daysInYear == 365 */\n      eq\n        /* \"contracts/HelloWorld5.sol\":2208:2238  day <= 59 && daysInYear == 365 */\n    tag_230:\n        /* \"contracts/HelloWorld5.sol\":2204:2248  if (day <= 59 && daysInYear == 365) return 2 */\n      iszero\n      tag_231\n      jumpi\n        /* \"contracts/HelloWorld5.sol\":2247:2248  2 */\n      0x02\n        /* \"contracts/HelloWorld5.sol\":2240:2248  return 2 */\n      swap4\n      pop\n      pop\n      pop\n      pop\n      jump(tag_223)\n        /* \"contracts/HelloWorld5.sol\":2204:2248  if (day <= 59 && daysInYear == 365) return 2 */\n    tag_231:\n        /* \"contracts/HelloWorld5.sol\":2269:2271  60 */\n      0x3c\n        /* \"contracts/HelloWorld5.sol\":2262:2265  day */\n      dup2\n        /* \"contracts/HelloWorld5.sol\":2262:2271  day <= 60 */\n      gt\n      iszero\n        /* \"contracts/HelloWorld5.sol\":2262:2292  day <= 60 && daysInYear == 366 */\n      dup1\n      iszero\n      tag_232\n      jumpi\n      pop\n        /* \"contracts/HelloWorld5.sol\":2289:2292  366 */\n      0x016e\n        /* \"contracts/HelloWorld5.sol\":2275:2285  daysInYear */\n      dup3\n        /* \"contracts/HelloWorld5.sol\":2275:2292  daysInYear == 366 */\n      eq\n        /* \"contracts/HelloWorld5.sol\":2262:2292  day <= 60 && daysInYear == 366 */\n    tag_232:\n        /* \"contracts/HelloWorld5.sol\":2258:2302  if (day <= 60 && daysInYear == 366) return 2 */\n      iszero\n      tag_233\n      jumpi\n        /* \"contracts/HelloWorld5.sol\":2301:2302  2 */\n      0x02\n        /* \"contracts/HelloWorld5.sol\":2294:2302  return 2 */\n      swap4\n      pop\n      pop\n      pop\n      pop\n      jump(tag_223)\n        /* \"contracts/HelloWorld5.sol\":2258:2302  if (day <= 60 && daysInYear == 366) return 2 */\n    tag_233:\n        /* \"contracts/HelloWorld5.sol\":2323:2325  90 */\n      0x5a\n        /* \"contracts/HelloWorld5.sol\":2316:2319  day */\n      dup2\n        /* \"contracts/HelloWorld5.sol\":2316:2325  day <= 90 */\n      gt\n      iszero\n        /* \"contracts/HelloWorld5.sol\":2316:2346  day <= 90 && daysInYear == 365 */\n      dup1\n      iszero\n      tag_234\n      jumpi\n      pop\n        /* \"contracts/HelloWorld5.sol\":2343:2346  365 */\n      0x016d\n        /* \"contracts/HelloWorld5.sol\":2329:2339  daysInYear */\n      dup3\n        /* \"contracts/HelloWorld5.sol\":2329:2346  daysInYear == 365 */\n      eq\n        /* \"contracts/HelloWorld5.sol\":2316:2346  day <= 90 && daysInYear == 365 */\n    tag_234:\n        /* \"contracts/HelloWorld5.sol\":2312:2356  if (day <= 90 && daysInYear == 365) return 3 */\n      iszero\n      tag_235\n      jumpi\n        /* \"contracts/HelloWorld5.sol\":2355:2356  3 */\n      0x03\n        /* \"contracts/HelloWorld5.sol\":2348:2356  return 3 */\n      swap4\n      pop\n      pop\n      pop\n      pop\n      jump(tag_223)\n        /* \"contracts/HelloWorld5.sol\":2312:2356  if (day <= 90 && daysInYear == 365) return 3 */\n    tag_235:\n        /* \"contracts/HelloWorld5.sol\":2377:2379  91 */\n      0x5b\n        /* \"contracts/HelloWorld5.sol\":2370:2373  day */\n      dup2\n        /* \"contracts/HelloWorld5.sol\":2370:2379  day <= 91 */\n      gt\n      iszero\n        /* \"contracts/HelloWorld5.sol\":2370:2400  day <= 91 && daysInYear == 366 */\n      dup1\n      iszero\n      tag_236\n      jumpi\n      pop\n        /* \"contracts/HelloWorld5.sol\":2397:2400  366 */\n      0x016e\n        /* \"contracts/HelloWorld5.sol\":2383:2393  daysInYear */\n      dup3\n        /* \"contracts/HelloWorld5.sol\":2383:2400  daysInYear == 366 */\n      eq\n        /* \"contracts/HelloWorld5.sol\":2370:2400  day <= 91 && daysInYear == 366 */\n    tag_236:\n        /* \"contracts/HelloWorld5.sol\":2366:2410  if (day <= 91 && daysInYear == 366) return 3 */\n      iszero\n      tag_237\n      jumpi\n        /* \"contracts/HelloWorld5.sol\":2409:2410  3 */\n      0x03\n        /* \"contracts/HelloWorld5.sol\":2402:2410  return 3 */\n      swap4\n      pop\n      pop\n      pop\n      pop\n      jump(tag_223)\n        /* \"contracts/HelloWorld5.sol\":2366:2410  if (day <= 91 && daysInYear == 366) return 3 */\n    tag_237:\n        /* \"contracts/HelloWorld5.sol\":2431:2434  120 */\n      0x78\n        /* \"contracts/HelloWorld5.sol\":2424:2427  day */\n      dup2\n        /* \"contracts/HelloWorld5.sol\":2424:2434  day <= 120 */\n      gt\n      iszero\n        /* \"contracts/HelloWorld5.sol\":2424:2455  day <= 120 && daysInYear == 365 */\n      dup1\n      iszero\n      tag_238\n      jumpi\n      pop\n        /* \"contracts/HelloWorld5.sol\":2452:2455  365 */\n      0x016d\n        /* \"contracts/HelloWorld5.sol\":2438:2448  daysInYear */\n      dup3\n        /* \"contracts/HelloWorld5.sol\":2438:2455  daysInYear == 365 */\n      eq\n        /* \"contracts/HelloWorld5.sol\":2424:2455  day <= 120 && daysInYear == 365 */\n    tag_238:\n        /* \"contracts/HelloWorld5.sol\":2420:2465  if (day <= 120 && daysInYear == 365) return 4 */\n      iszero\n      tag_239\n      jumpi\n        /* \"contracts/HelloWorld5.sol\":2464:2465  4 */\n      0x04\n        /* \"contracts/HelloWorld5.sol\":2457:2465  return 4 */\n      swap4\n      pop\n      pop\n      pop\n      pop\n      jump(tag_223)\n        /* \"contracts/HelloWorld5.sol\":2420:2465  if (day <= 120 && daysInYear == 365) return 4 */\n    tag_239:\n        /* \"contracts/HelloWorld5.sol\":2486:2489  121 */\n      0x79\n        /* \"contracts/HelloWorld5.sol\":2479:2482  day */\n      dup2\n        /* \"contracts/HelloWorld5.sol\":2479:2489  day <= 121 */\n      gt\n      iszero\n        /* \"contracts/HelloWorld5.sol\":2479:2510  day <= 121 && daysInYear == 366 */\n      dup1\n      iszero\n      tag_240\n      jumpi\n      pop\n        /* \"contracts/HelloWorld5.sol\":2507:2510  366 */\n      0x016e\n        /* \"contracts/HelloWorld5.sol\":2493:2503  daysInYear */\n      dup3\n        /* \"contracts/HelloWorld5.sol\":2493:2510  daysInYear == 366 */\n      eq\n        /* \"contracts/HelloWorld5.sol\":2479:2510  day <= 121 && daysInYear == 366 */\n    tag_240:\n        /* \"contracts/HelloWorld5.sol\":2475:2520  if (day <= 121 && daysInYear == 366) return 4 */\n      iszero\n      tag_241\n      jumpi\n        /* \"contracts/HelloWorld5.sol\":2519:2520  4 */\n      0x04\n        /* \"contracts/HelloWorld5.sol\":2512:2520  return 4 */\n      swap4\n      pop\n      pop\n      pop\n      pop\n      jump(tag_223)\n        /* \"contracts/HelloWorld5.sol\":2475:2520  if (day <= 121 && daysInYear == 366) return 4 */\n    tag_241:\n        /* \"contracts/HelloWorld5.sol\":2541:2544  151 */\n      0x97\n        /* \"contracts/HelloWorld5.sol\":2534:2537  day */\n      dup2\n        /* \"contracts/HelloWorld5.sol\":2534:2544  day <= 151 */\n      gt\n      iszero\n        /* \"contracts/HelloWorld5.sol\":2534:2565  day <= 151 && daysInYear == 365 */\n      dup1\n      iszero\n      tag_242\n      jumpi\n      pop\n        /* \"contracts/HelloWorld5.sol\":2562:2565  365 */\n      0x016d\n        /* \"contracts/HelloWorld5.sol\":2548:2558  daysInYear */\n      dup3\n        /* \"contracts/HelloWorld5.sol\":2548:2565  daysInYear == 365 */\n      eq\n        /* \"contracts/HelloWorld5.sol\":2534:2565  day <= 151 && daysInYear == 365 */\n    tag_242:\n        /* \"contracts/HelloWorld5.sol\":2530:2575  if (day <= 151 && daysInYear == 365) return 5 */\n      iszero\n      tag_243\n      jumpi\n        /* \"contracts/HelloWorld5.sol\":2574:2575  5 */\n      0x05\n        /* \"contracts/HelloWorld5.sol\":2567:2575  return 5 */\n      swap4\n      pop\n      pop\n      pop\n      pop\n      jump(tag_223)\n        /* \"contracts/HelloWorld5.sol\":2530:2575  if (day <= 151 && daysInYear == 365) return 5 */\n    tag_243:\n        /* \"contracts/HelloWorld5.sol\":2596:2599  152 */\n      0x98\n        /* \"contracts/HelloWorld5.sol\":2589:2592  day */\n      dup2\n        /* \"contracts/HelloWorld5.sol\":2589:2599  day <= 152 */\n      gt\n      iszero\n        /* \"contracts/HelloWorld5.sol\":2589:2620  day <= 152 && daysInYear == 366 */\n      dup1\n      iszero\n      tag_244\n      jumpi\n      pop\n        /* \"contracts/HelloWorld5.sol\":2617:2620  366 */\n      0x016e\n        /* \"contracts/HelloWorld5.sol\":2603:2613  daysInYear */\n      dup3\n        /* \"contracts/HelloWorld5.sol\":2603:2620  daysInYear == 366 */\n      eq\n        /* \"contracts/HelloWorld5.sol\":2589:2620  day <= 152 && daysInYear == 366 */\n    tag_244:\n        /* \"contracts/HelloWorld5.sol\":2585:2630  if (day <= 152 && daysInYear == 366) return 5 */\n      iszero\n      tag_245\n      jumpi\n        /* \"contracts/HelloWorld5.sol\":2629:2630  5 */\n      0x05\n        /* \"contracts/HelloWorld5.sol\":2622:2630  return 5 */\n      swap4\n      pop\n      pop\n      pop\n      pop\n      jump(tag_223)\n        /* \"contracts/HelloWorld5.sol\":2585:2630  if (day <= 152 && daysInYear == 366) return 5 */\n    tag_245:\n        /* \"contracts/HelloWorld5.sol\":2651:2654  181 */\n      0xb5\n        /* \"contracts/HelloWorld5.sol\":2644:2647  day */\n      dup2\n        /* \"contracts/HelloWorld5.sol\":2644:2654  day <= 181 */\n      gt\n      iszero\n        /* \"contracts/HelloWorld5.sol\":2644:2675  day <= 181 && daysInYear == 365 */\n      dup1\n      iszero\n      tag_246\n      jumpi\n      pop\n        /* \"contracts/HelloWorld5.sol\":2672:2675  365 */\n      0x016d\n        /* \"contracts/HelloWorld5.sol\":2658:2668  daysInYear */\n      dup3\n        /* \"contracts/HelloWorld5.sol\":2658:2675  daysInYear == 365 */\n      eq\n        /* \"contracts/HelloWorld5.sol\":2644:2675  day <= 181 && daysInYear == 365 */\n    tag_246:\n        /* \"contracts/HelloWorld5.sol\":2640:2685  if (day <= 181 && daysInYear == 365) return 6 */\n      iszero\n      tag_247\n      jumpi\n        /* \"contracts/HelloWorld5.sol\":2684:2685  6 */\n      0x06\n        /* \"contracts/HelloWorld5.sol\":2677:2685  return 6 */\n      swap4\n      pop\n      pop\n      pop\n      pop\n      jump(tag_223)\n        /* \"contracts/HelloWorld5.sol\":2640:2685  if (day <= 181 && daysInYear == 365) return 6 */\n    tag_247:\n        /* \"contracts/HelloWorld5.sol\":2706:2709  182 */\n      0xb6\n        /* \"contracts/HelloWorld5.sol\":2699:2702  day */\n      dup2\n        /* \"contracts/HelloWorld5.sol\":2699:2709  day <= 182 */\n      gt\n      iszero\n        /* \"contracts/HelloWorld5.sol\":2699:2730  day <= 182 && daysInYear == 366 */\n      dup1\n      iszero\n      tag_248\n      jumpi\n      pop\n        /* \"contracts/HelloWorld5.sol\":2727:2730  366 */\n      0x016e\n        /* \"contracts/HelloWorld5.sol\":2713:2723  daysInYear */\n      dup3\n        /* \"contracts/HelloWorld5.sol\":2713:2730  daysInYear == 366 */\n      eq\n        /* \"contracts/HelloWorld5.sol\":2699:2730  day <= 182 && daysInYear == 366 */\n    tag_248:\n        /* \"contracts/HelloWorld5.sol\":2695:2740  if (day <= 182 && daysInYear == 366) return 6 */\n      iszero\n      tag_249\n      jumpi\n        /* \"contracts/HelloWorld5.sol\":2739:2740  6 */\n      0x06\n        /* \"contracts/HelloWorld5.sol\":2732:2740  return 6 */\n      swap4\n      pop\n      pop\n      pop\n      pop\n      jump(tag_223)\n        /* \"contracts/HelloWorld5.sol\":2695:2740  if (day <= 182 && daysInYear == 366) return 6 */\n    tag_249:\n        /* \"contracts/HelloWorld5.sol\":2761:2764  212 */\n      0xd4\n        /* \"contracts/HelloWorld5.sol\":2754:2757  day */\n      dup2\n        /* \"contracts/HelloWorld5.sol\":2754:2764  day <= 212 */\n      gt\n      iszero\n        /* \"contracts/HelloWorld5.sol\":2754:2785  day <= 212 && daysInYear == 365 */\n      dup1\n      iszero\n      tag_250\n      jumpi\n      pop\n        /* \"contracts/HelloWorld5.sol\":2782:2785  365 */\n      0x016d\n        /* \"contracts/HelloWorld5.sol\":2768:2778  daysInYear */\n      dup3\n        /* \"contracts/HelloWorld5.sol\":2768:2785  daysInYear == 365 */\n      eq\n        /* \"contracts/HelloWorld5.sol\":2754:2785  day <= 212 && daysInYear == 365 */\n    tag_250:\n        /* \"contracts/HelloWorld5.sol\":2750:2795  if (day <= 212 && daysInYear == 365) return 7 */\n      iszero\n      tag_251\n      jumpi\n        /* \"contracts/HelloWorld5.sol\":2794:2795  7 */\n      0x07\n        /* \"contracts/HelloWorld5.sol\":2787:2795  return 7 */\n      swap4\n      pop\n      pop\n      pop\n      pop\n      jump(tag_223)\n        /* \"contracts/HelloWorld5.sol\":2750:2795  if (day <= 212 && daysInYear == 365) return 7 */\n    tag_251:\n        /* \"contracts/HelloWorld5.sol\":2816:2819  213 */\n      0xd5\n        /* \"contracts/HelloWorld5.sol\":2809:2812  day */\n      dup2\n        /* \"contracts/HelloWorld5.sol\":2809:2819  day <= 213 */\n      gt\n      iszero\n        /* \"contracts/HelloWorld5.sol\":2809:2840  day <= 213 && daysInYear == 366 */\n      dup1\n      iszero\n      tag_252\n      jumpi\n      pop\n        /* \"contracts/HelloWorld5.sol\":2837:2840  366 */\n      0x016e\n        /* \"contracts/HelloWorld5.sol\":2823:2833  daysInYear */\n      dup3\n        /* \"contracts/HelloWorld5.sol\":2823:2840  daysInYear == 366 */\n      eq\n        /* \"contracts/HelloWorld5.sol\":2809:2840  day <= 213 && daysInYear == 366 */\n    tag_252:\n        /* \"contracts/HelloWorld5.sol\":2805:2850  if (day <= 213 && daysInYear == 366) return 7 */\n      iszero\n      tag_253\n      jumpi\n        /* \"contracts/HelloWorld5.sol\":2849:2850  7 */\n      0x07\n        /* \"contracts/HelloWorld5.sol\":2842:2850  return 7 */\n      swap4\n      pop\n      pop\n      pop\n      pop\n      jump(tag_223)\n        /* \"contracts/HelloWorld5.sol\":2805:2850  if (day <= 213 && daysInYear == 366) return 7 */\n    tag_253:\n        /* \"contracts/HelloWorld5.sol\":2871:2874  243 */\n      0xf3\n        /* \"contracts/HelloWorld5.sol\":2864:2867  day */\n      dup2\n        /* \"contracts/HelloWorld5.sol\":2864:2874  day <= 243 */\n      gt\n      iszero\n        /* \"contracts/HelloWorld5.sol\":2864:2895  day <= 243 && daysInYear == 365 */\n      dup1\n      iszero\n      tag_254\n      jumpi\n      pop\n        /* \"contracts/HelloWorld5.sol\":2892:2895  365 */\n      0x016d\n        /* \"contracts/HelloWorld5.sol\":2878:2888  daysInYear */\n      dup3\n        /* \"contracts/HelloWorld5.sol\":2878:2895  daysInYear == 365 */\n      eq\n        /* \"contracts/HelloWorld5.sol\":2864:2895  day <= 243 && daysInYear == 365 */\n    tag_254:\n        /* \"contracts/HelloWorld5.sol\":2860:2905  if (day <= 243 && daysInYear == 365) return 8 */\n      iszero\n      tag_255\n      jumpi\n        /* \"contracts/HelloWorld5.sol\":2904:2905  8 */\n      0x08\n        /* \"contracts/HelloWorld5.sol\":2897:2905  return 8 */\n      swap4\n      pop\n      pop\n      pop\n      pop\n      jump(tag_223)\n        /* \"contracts/HelloWorld5.sol\":2860:2905  if (day <= 243 && daysInYear == 365) return 8 */\n    tag_255:\n        /* \"contracts/HelloWorld5.sol\":2926:2929  244 */\n      0xf4\n        /* \"contracts/HelloWorld5.sol\":2919:2922  day */\n      dup2\n        /* \"contracts/HelloWorld5.sol\":2919:2929  day <= 244 */\n      gt\n      iszero\n        /* \"contracts/HelloWorld5.sol\":2919:2950  day <= 244 && daysInYear == 366 */\n      dup1\n      iszero\n      tag_256\n      jumpi\n      pop\n        /* \"contracts/HelloWorld5.sol\":2947:2950  366 */\n      0x016e\n        /* \"contracts/HelloWorld5.sol\":2933:2943  daysInYear */\n      dup3\n        /* \"contracts/HelloWorld5.sol\":2933:2950  daysInYear == 366 */\n      eq\n        /* \"contracts/HelloWorld5.sol\":2919:2950  day <= 244 && daysInYear == 366 */\n    tag_256:\n        /* \"contracts/HelloWorld5.sol\":2915:2960  if (day <= 244 && daysInYear == 366) return 8 */\n      iszero\n      tag_257\n      jumpi\n        /* \"contracts/HelloWorld5.sol\":2959:2960  8 */\n      0x08\n        /* \"contracts/HelloWorld5.sol\":2952:2960  return 8 */\n      swap4\n      pop\n      pop\n      pop\n      pop\n      jump(tag_223)\n        /* \"contracts/HelloWorld5.sol\":2915:2960  if (day <= 244 && daysInYear == 366) return 8 */\n    tag_257:\n        /* \"contracts/HelloWorld5.sol\":2981:2984  273 */\n      0x0111\n        /* \"contracts/HelloWorld5.sol\":2974:2977  day */\n      dup2\n        /* \"contracts/HelloWorld5.sol\":2974:2984  day <= 273 */\n      gt\n      iszero\n        /* \"contracts/HelloWorld5.sol\":2974:3005  day <= 273 && daysInYear == 365 */\n      dup1\n      iszero\n      tag_258\n      jumpi\n      pop\n        /* \"contracts/HelloWorld5.sol\":3002:3005  365 */\n      0x016d\n        /* \"contracts/HelloWorld5.sol\":2988:2998  daysInYear */\n      dup3\n        /* \"contracts/HelloWorld5.sol\":2988:3005  daysInYear == 365 */\n      eq\n        /* \"contracts/HelloWorld5.sol\":2974:3005  day <= 273 && daysInYear == 365 */\n    tag_258:\n        /* \"contracts/HelloWorld5.sol\":2970:3015  if (day <= 273 && daysInYear == 365) return 9 */\n      iszero\n      tag_259\n      jumpi\n        /* \"contracts/HelloWorld5.sol\":3014:3015  9 */\n      0x09\n        /* \"contracts/HelloWorld5.sol\":3007:3015  return 9 */\n      swap4\n      pop\n      pop\n      pop\n      pop\n      jump(tag_223)\n        /* \"contracts/HelloWorld5.sol\":2970:3015  if (day <= 273 && daysInYear == 365) return 9 */\n    tag_259:\n        /* \"contracts/HelloWorld5.sol\":3036:3039  274 */\n      0x0112\n        /* \"contracts/HelloWorld5.sol\":3029:3032  day */\n      dup2\n        /* \"contracts/HelloWorld5.sol\":3029:3039  day <= 274 */\n      gt\n      iszero\n        /* \"contracts/HelloWorld5.sol\":3029:3060  day <= 274 && daysInYear == 366 */\n      dup1\n      iszero\n      tag_260\n      jumpi\n      pop\n        /* \"contracts/HelloWorld5.sol\":3057:3060  366 */\n      0x016e\n        /* \"contracts/HelloWorld5.sol\":3043:3053  daysInYear */\n      dup3\n        /* \"contracts/HelloWorld5.sol\":3043:3060  daysInYear == 366 */\n      eq\n        /* \"contracts/HelloWorld5.sol\":3029:3060  day <= 274 && daysInYear == 366 */\n    tag_260:\n        /* \"contracts/HelloWorld5.sol\":3025:3070  if (day <= 274 && daysInYear == 366) return 9 */\n      iszero\n      tag_261\n      jumpi\n        /* \"contracts/HelloWorld5.sol\":3069:3070  9 */\n      0x09\n        /* \"contracts/HelloWorld5.sol\":3062:3070  return 9 */\n      swap4\n      pop\n      pop\n      pop\n      pop\n      jump(tag_223)\n        /* \"contracts/HelloWorld5.sol\":3025:3070  if (day <= 274 && daysInYear == 366) return 9 */\n    tag_261:\n        /* \"contracts/HelloWorld5.sol\":3091:3094  304 */\n      0x0130\n        /* \"contracts/HelloWorld5.sol\":3084:3087  day */\n      dup2\n        /* \"contracts/HelloWorld5.sol\":3084:3094  day <= 304 */\n      gt\n      iszero\n        /* \"contracts/HelloWorld5.sol\":3084:3115  day <= 304 && daysInYear == 365 */\n      dup1\n      iszero\n      tag_262\n      jumpi\n      pop\n        /* \"contracts/HelloWorld5.sol\":3112:3115  365 */\n      0x016d\n        /* \"contracts/HelloWorld5.sol\":3098:3108  daysInYear */\n      dup3\n        /* \"contracts/HelloWorld5.sol\":3098:3115  daysInYear == 365 */\n      eq\n        /* \"contracts/HelloWorld5.sol\":3084:3115  day <= 304 && daysInYear == 365 */\n    tag_262:\n        /* \"contracts/HelloWorld5.sol\":3080:3126  if (day <= 304 && daysInYear == 365) return 10 */\n      iszero\n      tag_263\n      jumpi\n        /* \"contracts/HelloWorld5.sol\":3124:3126  10 */\n      0x0a\n        /* \"contracts/HelloWorld5.sol\":3117:3126  return 10 */\n      swap4\n      pop\n      pop\n      pop\n      pop\n      jump(tag_223)\n        /* \"contracts/HelloWorld5.sol\":3080:3126  if (day <= 304 && daysInYear == 365) return 10 */\n    tag_263:\n        /* \"contracts/HelloWorld5.sol\":3147:3150  305 */\n      0x0131\n        /* \"contracts/HelloWorld5.sol\":3140:3143  day */\n      dup2\n        /* \"contracts/HelloWorld5.sol\":3140:3150  day <= 305 */\n      gt\n      iszero\n        /* \"contracts/HelloWorld5.sol\":3140:3171  day <= 305 && daysInYear == 366 */\n      dup1\n      iszero\n      tag_264\n      jumpi\n      pop\n        /* \"contracts/HelloWorld5.sol\":3168:3171  366 */\n      0x016e\n        /* \"contracts/HelloWorld5.sol\":3154:3164  daysInYear */\n      dup3\n        /* \"contracts/HelloWorld5.sol\":3154:3171  daysInYear == 366 */\n      eq\n        /* \"contracts/HelloWorld5.sol\":3140:3171  day <= 305 && daysInYear == 366 */\n    tag_264:\n        /* \"contracts/HelloWorld5.sol\":3136:3182  if (day <= 305 && daysInYear == 366) return 10 */\n      iszero\n      tag_265\n      jumpi\n        /* \"contracts/HelloWorld5.sol\":3180:3182  10 */\n      0x0a\n        /* \"contracts/HelloWorld5.sol\":3173:3182  return 10 */\n      swap4\n      pop\n      pop\n      pop\n      pop\n      jump(tag_223)\n        /* \"contracts/HelloWorld5.sol\":3136:3182  if (day <= 305 && daysInYear == 366) return 10 */\n    tag_265:\n        /* \"contracts/HelloWorld5.sol\":3203:3206  334 */\n      0x014e\n        /* \"contracts/HelloWorld5.sol\":3196:3199  day */\n      dup2\n        /* \"contracts/HelloWorld5.sol\":3196:3206  day <= 334 */\n      gt\n      iszero\n        /* \"contracts/HelloWorld5.sol\":3196:3227  day <= 334 && daysInYear == 365 */\n      dup1\n      iszero\n      tag_266\n      jumpi\n      pop\n        /* \"contracts/HelloWorld5.sol\":3224:3227  365 */\n      0x016d\n        /* \"contracts/HelloWorld5.sol\":3210:3220  daysInYear */\n      dup3\n        /* \"contracts/HelloWorld5.sol\":3210:3227  daysInYear == 365 */\n      eq\n        /* \"contracts/HelloWorld5.sol\":3196:3227  day <= 334 && daysInYear == 365 */\n    tag_266:\n        /* \"contracts/HelloWorld5.sol\":3192:3238  if (day <= 334 && daysInYear == 365) return 11 */\n      iszero\n      tag_267\n      jumpi\n        /* \"contracts/HelloWorld5.sol\":3236:3238  11 */\n      0x0b\n        /* \"contracts/HelloWorld5.sol\":3229:3238  return 11 */\n      swap4\n      pop\n      pop\n      pop\n      pop\n      jump(tag_223)\n        /* \"contracts/HelloWorld5.sol\":3192:3238  if (day <= 334 && daysInYear == 365) return 11 */\n    tag_267:\n        /* \"contracts/HelloWorld5.sol\":3259:3262  335 */\n      0x014f\n        /* \"contracts/HelloWorld5.sol\":3252:3255  day */\n      dup2\n        /* \"contracts/HelloWorld5.sol\":3252:3262  day <= 335 */\n      gt\n      iszero\n        /* \"contracts/HelloWorld5.sol\":3252:3283  day <= 335 && daysInYear == 366 */\n      dup1\n      iszero\n      tag_268\n      jumpi\n      pop\n        /* \"contracts/HelloWorld5.sol\":3280:3283  366 */\n      0x016e\n        /* \"contracts/HelloWorld5.sol\":3266:3276  daysInYear */\n      dup3\n        /* \"contracts/HelloWorld5.sol\":3266:3283  daysInYear == 366 */\n      eq\n        /* \"contracts/HelloWorld5.sol\":3252:3283  day <= 335 && daysInYear == 366 */\n    tag_268:\n        /* \"contracts/HelloWorld5.sol\":3248:3294  if (day <= 335 && daysInYear == 366) return 11 */\n      iszero\n      tag_269\n      jumpi\n        /* \"contracts/HelloWorld5.sol\":3292:3294  11 */\n      0x0b\n        /* \"contracts/HelloWorld5.sol\":3285:3294  return 11 */\n      swap4\n      pop\n      pop\n      pop\n      pop\n      jump(tag_223)\n        /* \"contracts/HelloWorld5.sol\":3248:3294  if (day <= 335 && daysInYear == 366) return 11 */\n    tag_269:\n        /* \"contracts/HelloWorld5.sol\":3311:3313  12 */\n      0x0c\n        /* \"contracts/HelloWorld5.sol\":3304:3313  return 12 */\n      swap4\n      pop\n      pop\n      pop\n      pop\n        /* \"contracts/HelloWorld5.sol\":1969:3320  function toMonth(uint256 value) internal pure returns (uint) {... */\n    tag_223:\n      swap2\n      swap1\n      pop\n      jump\t// out\n        /* \"contracts/HelloWorld5.sol\":1501:1687  function toYear(uint256 value) internal pure returns (uint) {... */\n    tag_168:\n        /* \"contracts/HelloWorld5.sol\":1555:1559  uint */\n      0x00\n        /* \"contracts/HelloWorld5.sol\":1571:1583  uint256 secs */\n      dup1\n        /* \"contracts/HelloWorld5.sol\":1594:1595  4 */\n      0x04\n        /* \"contracts/HelloWorld5.sol\":1586:1591  value */\n      dup4\n        /* \"contracts/HelloWorld5.sol\":1586:1595  value / 4 */\n      tag_271\n      swap2\n      swap1\n      tag_195\n      jump\t// in\n    tag_271:\n        /* \"contracts/HelloWorld5.sol\":1571:1595  uint256 secs = value / 4 */\n      swap1\n      pop\n        /* \"contracts/HelloWorld5.sol\":1676:1680  1971 */\n      0x07b3\n        /* \"contracts/HelloWorld5.sol\":1654:1672  366 * 24 * 60 * 60 */\n      0x01e28500\n        /* \"contracts/HelloWorld5.sol\":1646:1650  secs */\n      dup3\n        /* \"contracts/HelloWorld5.sol\":1646:1673  secs / (366 * 24 * 60 * 60) */\n      tag_272\n      swap2\n      swap1\n      tag_195\n      jump\t// in\n    tag_272:\n        /* \"contracts/HelloWorld5.sol\":1624:1642  365 * 24 * 60 * 60 */\n      0x01e13380\n        /* \"contracts/HelloWorld5.sol\":1616:1620  secs */\n      dup4\n        /* \"contracts/HelloWorld5.sol\":1612:1613  3 */\n      0x03\n        /* \"contracts/HelloWorld5.sol\":1612:1620  3 * secs */\n      tag_273\n      swap2\n      swap1\n      tag_199\n      jump\t// in\n    tag_273:\n        /* \"contracts/HelloWorld5.sol\":1612:1643  3 * secs / (365 * 24 * 60 * 60) */\n      tag_274\n      swap2\n      swap1\n      tag_195\n      jump\t// in\n    tag_274:\n        /* \"contracts/HelloWorld5.sol\":1612:1673  3 * secs / (365 * 24 * 60 * 60) + secs / (366 * 24 * 60 * 60) */\n      tag_275\n      swap2\n      swap1\n      tag_181\n      jump\t// in\n    tag_275:\n        /* \"contracts/HelloWorld5.sol\":1612:1680  3 * secs / (365 * 24 * 60 * 60) + secs / (366 * 24 * 60 * 60) + 1971 */\n      tag_276\n      swap2\n      swap1\n      tag_181\n      jump\t// in\n    tag_276:\n        /* \"contracts/HelloWorld5.sol\":1605:1680  return 3 * secs / (365 * 24 * 60 * 60) + secs / (366 * 24 * 60 * 60) + 1971 */\n      swap2\n      pop\n      pop\n        /* \"contracts/HelloWorld5.sol\":1501:1687  function toYear(uint256 value) internal pure returns (uint) {... */\n      swap2\n      swap1\n      pop\n      jump\t// out\n        /* \"#utility.yul\":7:106   */\n    tag_277:\n        /* \"#utility.yul\":59:65   */\n      0x00\n        /* \"#utility.yul\":93:98   */\n      dup2\n        /* \"#utility.yul\":87:99   */\n      mload\n        /* \"#utility.yul\":77:99   */\n      swap1\n      pop\n        /* \"#utility.yul\":7:106   */\n      swap2\n      swap1\n      pop\n      jump\t// out\n        /* \"#utility.yul\":112:281   */\n    tag_278:\n        /* \"#utility.yul\":196:207   */\n      0x00\n        /* \"#utility.yul\":230:236   */\n      dup3\n        /* \"#utility.yul\":225:228   */\n      dup3\n        /* \"#utility.yul\":218:237   */\n      mstore\n        /* \"#utility.yul\":270:274   */\n      0x20\n        /* \"#utility.yul\":265:268   */\n      dup3\n        /* \"#utility.yul\":261:275   */\n      add\n        /* \"#utility.yul\":246:275   */\n      swap1\n      pop\n        /* \"#utility.yul\":112:281   */\n      swap3\n      swap2\n      pop\n      pop\n      jump\t// out\n        /* \"#utility.yul\":287:533   */\n    tag_279:\n        /* \"#utility.yul\":368:369   */\n      0x00\n        /* \"#utility.yul\":378:491   */\n    tag_311:\n        /* \"#utility.yul\":392:398   */\n      dup4\n        /* \"#utility.yul\":389:390   */\n      dup2\n        /* \"#utility.yul\":386:399   */\n      lt\n        /* \"#utility.yul\":378:491   */\n      iszero\n      tag_313\n      jumpi\n        /* \"#utility.yul\":477:478   */\n      dup1\n        /* \"#utility.yul\":472:475   */\n      dup3\n        /* \"#utility.yul\":468:479   */\n      add\n        /* \"#utility.yul\":462:480   */\n      mload\n        /* \"#utility.yul\":458:459   */\n      dup2\n        /* \"#utility.yul\":453:456   */\n      dup5\n        /* \"#utility.yul\":449:460   */\n      add\n        /* \"#utility.yul\":442:481   */\n      mstore\n        /* \"#utility.yul\":414:416   */\n      0x20\n        /* \"#utility.yul\":411:412   */\n      dup2\n        /* \"#utility.yul\":407:417   */\n      add\n        /* \"#utility.yul\":402:417   */\n      swap1\n      pop\n        /* \"#utility.yul\":378:491   */\n      jump(tag_311)\n    tag_313:\n        /* \"#utility.yul\":525:526   */\n      0x00\n        /* \"#utility.yul\":516:522   */\n      dup5\n        /* \"#utility.yul\":511:514   */\n      dup5\n        /* \"#utility.yul\":507:523   */\n      add\n        /* \"#utility.yul\":500:527   */\n      mstore\n        /* \"#utility.yul\":349:533   */\n      pop\n        /* \"#utility.yul\":287:533   */\n      pop\n      pop\n      pop\n      jump\t// out\n        /* \"#utility.yul\":539:641   */\n    tag_280:\n        /* \"#utility.yul\":580:586   */\n      0x00\n        /* \"#utility.yul\":631:633   */\n      0x1f\n        /* \"#utility.yul\":627:634   */\n      not\n        /* \"#utility.yul\":622:624   */\n      0x1f\n        /* \"#utility.yul\":615:620   */\n      dup4\n        /* \"#utility.yul\":611:625   */\n      add\n        /* \"#utility.yul\":607:635   */\n      and\n        /* \"#utility.yul\":597:635   */\n      swap1\n      pop\n        /* \"#utility.yul\":539:641   */\n      swap2\n      swap1\n      pop\n      jump\t// out\n        /* \"#utility.yul\":647:1024   */\n    tag_281:\n        /* \"#utility.yul\":735:738   */\n      0x00\n        /* \"#utility.yul\":763:802   */\n      tag_316\n        /* \"#utility.yul\":796:801   */\n      dup3\n        /* \"#utility.yul\":763:802   */\n      tag_277\n      jump\t// in\n    tag_316:\n        /* \"#utility.yul\":818:889   */\n      tag_317\n        /* \"#utility.yul\":882:888   */\n      dup2\n        /* \"#utility.yul\":877:880   */\n      dup6\n        /* \"#utility.yul\":818:889   */\n      tag_278\n      jump\t// in\n    tag_317:\n        /* \"#utility.yul\":811:889   */\n      swap4\n      pop\n        /* \"#utility.yul\":898:963   */\n      tag_318\n        /* \"#utility.yul\":956:962   */\n      dup2\n        /* \"#utility.yul\":951:954   */\n      dup6\n        /* \"#utility.yul\":944:948   */\n      0x20\n        /* \"#utility.yul\":937:942   */\n      dup7\n        /* \"#utility.yul\":933:949   */\n      add\n        /* \"#utility.yul\":898:963   */\n      tag_279\n      jump\t// in\n    tag_318:\n        /* \"#utility.yul\":988:1017   */\n      tag_319\n        /* \"#utility.yul\":1010:1016   */\n      dup2\n        /* \"#utility.yul\":988:1017   */\n      tag_280\n      jump\t// in\n    tag_319:\n        /* \"#utility.yul\":983:986   */\n      dup5\n        /* \"#utility.yul\":979:1018   */\n      add\n        /* \"#utility.yul\":972:1018   */\n      swap2\n      pop\n        /* \"#utility.yul\":739:1024   */\n      pop\n        /* \"#utility.yul\":647:1024   */\n      swap3\n      swap2\n      pop\n      pop\n      jump\t// out\n        /* \"#utility.yul\":1030:1343   */\n    tag_25:\n        /* \"#utility.yul\":1143:1147   */\n      0x00\n        /* \"#utility.yul\":1181:1183   */\n      0x20\n        /* \"#utility.yul\":1170:1179   */\n      dup3\n        /* \"#utility.yul\":1166:1184   */\n      add\n        /* \"#utility.yul\":1158:1184   */\n      swap1\n      pop\n        /* \"#utility.yul\":1230:1239   */\n      dup2\n        /* \"#utility.yul\":1224:1228   */\n      dup2\n        /* \"#utility.yul\":1220:1240   */\n      sub\n        /* \"#utility.yul\":1216:1217   */\n      0x00\n        /* \"#utility.yul\":1205:1214   */\n      dup4\n        /* \"#utility.yul\":1201:1218   */\n      add\n        /* \"#utility.yul\":1194:1241   */\n      mstore\n        /* \"#utility.yul\":1258:1336   */\n      tag_321\n        /* \"#utility.yul\":1331:1335   */\n      dup2\n        /* \"#utility.yul\":1322:1328   */\n      dup5\n        /* \"#utility.yul\":1258:1336   */\n      tag_281\n      jump\t// in\n    tag_321:\n        /* \"#utility.yul\":1250:1336   */\n      swap1\n      pop\n        /* \"#utility.yul\":1030:1343   */\n      swap3\n      swap2\n      pop\n      pop\n      jump\t// out\n        /* \"#utility.yul\":1430:1547   */\n    tag_283:\n        /* \"#utility.yul\":1539:1540   */\n      0x00\n        /* \"#utility.yul\":1536:1537   */\n      dup1\n        /* \"#utility.yul\":1529:1541   */\n      revert\n        /* \"#utility.yul\":1676:1802   */\n    tag_285:\n        /* \"#utility.yul\":1713:1720   */\n      0x00\n        /* \"#utility.yul\":1753:1795   */\n      0xffffffffffffffffffffffffffffffffffffffff\n        /* \"#utility.yul\":1746:1751   */\n      dup3\n        /* \"#utility.yul\":1742:1796   */\n      and\n        /* \"#utility.yul\":1731:1796   */\n      swap1\n      pop\n        /* \"#utility.yul\":1676:1802   */\n      swap2\n      swap1\n      pop\n      jump\t// out\n        /* \"#utility.yul\":1808:1904   */\n    tag_286:\n        /* \"#utility.yul\":1845:1852   */\n      0x00\n        /* \"#utility.yul\":1874:1898   */\n      tag_327\n        /* \"#utility.yul\":1892:1897   */\n      dup3\n        /* \"#utility.yul\":1874:1898   */\n      tag_285\n      jump\t// in\n    tag_327:\n        /* \"#utility.yul\":1863:1898   */\n      swap1\n      pop\n        /* \"#utility.yul\":1808:1904   */\n      swap2\n      swap1\n      pop\n      jump\t// out\n        /* \"#utility.yul\":1910:2032   */\n    tag_287:\n        /* \"#utility.yul\":1983:2007   */\n      tag_329\n        /* \"#utility.yul\":2001:2006   */\n      dup2\n        /* \"#utility.yul\":1983:2007   */\n      tag_286\n      jump\t// in\n    tag_329:\n        /* \"#utility.yul\":1976:1981   */\n      dup2\n        /* \"#utility.yul\":1973:2008   */\n      eq\n        /* \"#utility.yul\":1963:2026   */\n      tag_330\n      jumpi\n        /* \"#utility.yul\":2022:2023   */\n      0x00\n        /* \"#utility.yul\":2019:2020   */\n      dup1\n        /* \"#utility.yul\":2012:2024   */\n      revert\n        /* \"#utility.yul\":1963:2026   */\n    tag_330:\n        /* \"#utility.yul\":1910:2032   */\n      pop\n      jump\t// out\n        /* \"#utility.yul\":2038:2177   */\n    tag_288:\n        /* \"#utility.yul\":2084:2089   */\n      0x00\n        /* \"#utility.yul\":2122:2128   */\n      dup2\n        /* \"#utility.yul\":2109:2129   */\n      calldataload\n        /* \"#utility.yul\":2100:2129   */\n      swap1\n      pop\n        /* \"#utility.yul\":2138:2171   */\n      tag_332\n        /* \"#utility.yul\":2165:2170   */\n      dup2\n        /* \"#utility.yul\":2138:2171   */\n      tag_287\n      jump\t// in\n    tag_332:\n        /* \"#utility.yul\":2038:2177   */\n      swap3\n      swap2\n      pop\n      pop\n      jump\t// out\n        /* \"#utility.yul\":2183:2260   */\n    tag_289:\n        /* \"#utility.yul\":2220:2227   */\n      0x00\n        /* \"#utility.yul\":2249:2254   */\n      dup2\n        /* \"#utility.yul\":2238:2254   */\n      swap1\n      pop\n        /* \"#utility.yul\":2183:2260   */\n      swap2\n      swap1\n      pop\n      jump\t// out\n        /* \"#utility.yul\":2266:2388   */\n    tag_290:\n        /* \"#utility.yul\":2339:2363   */\n      tag_335\n        /* \"#utility.yul\":2357:2362   */\n      dup2\n        /* \"#utility.yul\":2339:2363   */\n      tag_289\n      jump\t// in\n    tag_335:\n        /* \"#utility.yul\":2332:2337   */\n      dup2\n        /* \"#utility.yul\":2329:2364   */\n      eq\n        /* \"#utility.yul\":2319:2382   */\n      tag_336\n      jumpi\n        /* \"#utility.yul\":2378:2379   */\n      0x00\n        /* \"#utility.yul\":2375:2376   */\n      dup1\n        /* \"#utility.yul\":2368:2380   */\n      revert\n        /* \"#utility.yul\":2319:2382   */\n    tag_336:\n        /* \"#utility.yul\":2266:2388   */\n      pop\n      jump\t// out\n        /* \"#utility.yul\":2394:2533   */\n    tag_291:\n        /* \"#utility.yul\":2440:2445   */\n      0x00\n        /* \"#utility.yul\":2478:2484   */\n      dup2\n        /* \"#utility.yul\":2465:2485   */\n      calldataload\n        /* \"#utility.yul\":2456:2485   */\n      swap1\n      pop\n        /* \"#utility.yul\":2494:2527   */\n      tag_338\n        /* \"#utility.yul\":2521:2526   */\n      dup2\n        /* \"#utility.yul\":2494:2527   */\n      tag_290\n      jump\t// in\n    tag_338:\n        /* \"#utility.yul\":2394:2533   */\n      swap3\n      swap2\n      pop\n      pop\n      jump\t// out\n        /* \"#utility.yul\":2539:3013   */\n    tag_28:\n        /* \"#utility.yul\":2607:2613   */\n      0x00\n        /* \"#utility.yul\":2615:2621   */\n      dup1\n        /* \"#utility.yul\":2664:2666   */\n      0x40\n        /* \"#utility.yul\":2652:2661   */\n      dup4\n        /* \"#utility.yul\":2643:2650   */\n      dup6\n        /* \"#utility.yul\":2639:2662   */\n      sub\n        /* \"#utility.yul\":2635:2667   */\n      slt\n        /* \"#utility.yul\":2632:2751   */\n      iszero\n      tag_340\n      jumpi\n        /* \"#utility.yul\":2670:2749   */\n      tag_341\n      tag_283\n      jump\t// in\n    tag_341:\n        /* \"#utility.yul\":2632:2751   */\n    tag_340:\n        /* \"#utility.yul\":2790:2791   */\n      0x00\n        /* \"#utility.yul\":2815:2868   */\n      tag_342\n        /* \"#utility.yul\":2860:2867   */\n      dup6\n        /* \"#utility.yul\":2851:2857   */\n      dup3\n        /* \"#utility.yul\":2840:2849   */\n      dup7\n        /* \"#utility.yul\":2836:2858   */\n      add\n        /* \"#utility.yul\":2815:2868   */\n      tag_288\n      jump\t// in\n    tag_342:\n        /* \"#utility.yul\":2805:2868   */\n      swap3\n      pop\n        /* \"#utility.yul\":2761:2878   */\n      pop\n        /* \"#utility.yul\":2917:2919   */\n      0x20\n        /* \"#utility.yul\":2943:2996   */\n      tag_343\n        /* \"#utility.yul\":2988:2995   */\n      dup6\n        /* \"#utility.yul\":2979:2985   */\n      dup3\n        /* \"#utility.yul\":2968:2977   */\n      dup7\n        /* \"#utility.yul\":2964:2986   */\n      add\n        /* \"#utility.yul\":2943:2996   */\n      tag_291\n      jump\t// in\n    tag_343:\n        /* \"#utility.yul\":2933:2996   */\n      swap2\n      pop\n        /* \"#utility.yul\":2888:3006   */\n      pop\n        /* \"#utility.yul\":2539:3013   */\n      swap3\n      pop\n      swap3\n      swap1\n      pop\n      jump\t// out\n        /* \"#utility.yul\":3019:3109   */\n    tag_292:\n        /* \"#utility.yul\":3053:3060   */\n      0x00\n        /* \"#utility.yul\":3096:3101   */\n      dup2\n        /* \"#utility.yul\":3089:3102   */\n      iszero\n        /* \"#utility.yul\":3082:3103   */\n      iszero\n        /* \"#utility.yul\":3071:3103   */\n      swap1\n      pop\n        /* \"#utility.yul\":3019:3109   */\n      swap2\n      swap1\n      pop\n      jump\t// out\n        /* \"#utility.yul\":3115:3224   */\n    tag_293:\n        /* \"#utility.yul\":3196:3217   */\n      tag_346\n        /* \"#utility.yul\":3211:3216   */\n      dup2\n        /* \"#utility.yul\":3196:3217   */\n      tag_292\n      jump\t// in\n    tag_346:\n        /* \"#utility.yul\":3191:3194   */\n      dup3\n        /* \"#utility.yul\":3184:3218   */\n      mstore\n        /* \"#utility.yul\":3115:3224   */\n      pop\n      pop\n      jump\t// out\n        /* \"#utility.yul\":3230:3440   */\n    tag_31:\n        /* \"#utility.yul\":3317:3321   */\n      0x00\n        /* \"#utility.yul\":3355:3357   */\n      0x20\n        /* \"#utility.yul\":3344:3353   */\n      dup3\n        /* \"#utility.yul\":3340:3358   */\n      add\n        /* \"#utility.yul\":3332:3358   */\n      swap1\n      pop\n        /* \"#utility.yul\":3368:3433   */\n      tag_348\n        /* \"#utility.yul\":3430:3431   */\n      0x00\n        /* \"#utility.yul\":3419:3428   */\n      dup4\n        /* \"#utility.yul\":3415:3432   */\n      add\n        /* \"#utility.yul\":3406:3412   */\n      dup5\n        /* \"#utility.yul\":3368:3433   */\n      tag_293\n      jump\t// in\n    tag_348:\n        /* \"#utility.yul\":3230:3440   */\n      swap3\n      swap2\n      pop\n      pop\n      jump\t// out\n        /* \"#utility.yul\":3446:3564   */\n    tag_294:\n        /* \"#utility.yul\":3533:3557   */\n      tag_350\n        /* \"#utility.yul\":3551:3556   */\n      dup2\n        /* \"#utility.yul\":3533:3557   */\n      tag_289\n      jump\t// in\n    tag_350:\n        /* \"#utility.yul\":3528:3531   */\n      dup3\n        /* \"#utility.yul\":3521:3558   */\n      mstore\n        /* \"#utility.yul\":3446:3564   */\n      pop\n      pop\n      jump\t// out\n        /* \"#utility.yul\":3570:3792   */\n    tag_35:\n        /* \"#utility.yul\":3663:3667   */\n      0x00\n        /* \"#utility.yul\":3701:3703   */\n      0x20\n        /* \"#utility.yul\":3690:3699   */\n      dup3\n        /* \"#utility.yul\":3686:3704   */\n      add\n        /* \"#utility.yul\":3678:3704   */\n      swap1\n      pop\n        /* \"#utility.yul\":3714:3785   */\n      tag_352\n        /* \"#utility.yul\":3782:3783   */\n      0x00\n        /* \"#utility.yul\":3771:3780   */\n      dup4\n        /* \"#utility.yul\":3767:3784   */\n      add\n        /* \"#utility.yul\":3758:3764   */\n      dup5\n        /* \"#utility.yul\":3714:3785   */\n      tag_294\n      jump\t// in\n    tag_352:\n        /* \"#utility.yul\":3570:3792   */\n      swap3\n      swap2\n      pop\n      pop\n      jump\t// out\n        /* \"#utility.yul\":3798:4417   */\n    tag_38:\n        /* \"#utility.yul\":3875:3881   */\n      0x00\n        /* \"#utility.yul\":3883:3889   */\n      dup1\n        /* \"#utility.yul\":3891:3897   */\n      0x00\n        /* \"#utility.yul\":3940:3942   */\n      0x60\n        /* \"#utility.yul\":3928:3937   */\n      dup5\n        /* \"#utility.yul\":3919:3926   */\n      dup7\n        /* \"#utility.yul\":3915:3938   */\n      sub\n        /* \"#utility.yul\":3911:3943   */\n      slt\n        /* \"#utility.yul\":3908:4027   */\n      iszero\n      tag_354\n      jumpi\n        /* \"#utility.yul\":3946:4025   */\n      tag_355\n      tag_283\n      jump\t// in\n    tag_355:\n        /* \"#utility.yul\":3908:4027   */\n    tag_354:\n        /* \"#utility.yul\":4066:4067   */\n      0x00\n        /* \"#utility.yul\":4091:4144   */\n      tag_356\n        /* \"#utility.yul\":4136:4143   */\n      dup7\n        /* \"#utility.yul\":4127:4133   */\n      dup3\n        /* \"#utility.yul\":4116:4125   */\n      dup8\n        /* \"#utility.yul\":4112:4134   */\n      add\n        /* \"#utility.yul\":4091:4144   */\n      tag_288\n      jump\t// in\n    tag_356:\n        /* \"#utility.yul\":4081:4144   */\n      swap4\n      pop\n        /* \"#utility.yul\":4037:4154   */\n      pop\n        /* \"#utility.yul\":4193:4195   */\n      0x20\n        /* \"#utility.yul\":4219:4272   */\n      tag_357\n        /* \"#utility.yul\":4264:4271   */\n      dup7\n        /* \"#utility.yul\":4255:4261   */\n      dup3\n        /* \"#utility.yul\":4244:4253   */\n      dup8\n        /* \"#utility.yul\":4240:4262   */\n      add\n        /* \"#utility.yul\":4219:4272   */\n      tag_288\n      jump\t// in\n    tag_357:\n        /* \"#utility.yul\":4209:4272   */\n      swap3\n      pop\n        /* \"#utility.yul\":4164:4282   */\n      pop\n        /* \"#utility.yul\":4321:4323   */\n      0x40\n        /* \"#utility.yul\":4347:4400   */\n      tag_358\n        /* \"#utility.yul\":4392:4399   */\n      dup7\n        /* \"#utility.yul\":4383:4389   */\n      dup3\n        /* \"#utility.yul\":4372:4381   */\n      dup8\n        /* \"#utility.yul\":4368:4390   */\n      add\n        /* \"#utility.yul\":4347:4400   */\n      tag_291\n      jump\t// in\n    tag_358:\n        /* \"#utility.yul\":4337:4400   */\n      swap2\n      pop\n        /* \"#utility.yul\":4292:4410   */\n      pop\n        /* \"#utility.yul\":3798:4417   */\n      swap3\n      pop\n      swap3\n      pop\n      swap3\n      jump\t// out\n        /* \"#utility.yul\":4423:4509   */\n    tag_295:\n        /* \"#utility.yul\":4458:4465   */\n      0x00\n        /* \"#utility.yul\":4498:4502   */\n      0xff\n        /* \"#utility.yul\":4491:4496   */\n      dup3\n        /* \"#utility.yul\":4487:4503   */\n      and\n        /* \"#utility.yul\":4476:4503   */\n      swap1\n      pop\n        /* \"#utility.yul\":4423:4509   */\n      swap2\n      swap1\n      pop\n      jump\t// out\n        /* \"#utility.yul\":4515:4627   */\n    tag_296:\n        /* \"#utility.yul\":4598:4620   */\n      tag_361\n        /* \"#utility.yul\":4614:4619   */\n      dup2\n        /* \"#utility.yul\":4598:4620   */\n      tag_295\n      jump\t// in\n    tag_361:\n        /* \"#utility.yul\":4593:4596   */\n      dup3\n        /* \"#utility.yul\":4586:4621   */\n      mstore\n        /* \"#utility.yul\":4515:4627   */\n      pop\n      pop\n      jump\t// out\n        /* \"#utility.yul\":4633:4847   */\n    tag_47:\n        /* \"#utility.yul\":4722:4726   */\n      0x00\n        /* \"#utility.yul\":4760:4762   */\n      0x20\n        /* \"#utility.yul\":4749:4758   */\n      dup3\n        /* \"#utility.yul\":4745:4763   */\n      add\n        /* \"#utility.yul\":4737:4763   */\n      swap1\n      pop\n        /* \"#utility.yul\":4773:4840   */\n      tag_363\n        /* \"#utility.yul\":4837:4838   */\n      0x00\n        /* \"#utility.yul\":4826:4835   */\n      dup4\n        /* \"#utility.yul\":4822:4839   */\n      add\n        /* \"#utility.yul\":4813:4819   */\n      dup5\n        /* \"#utility.yul\":4773:4840   */\n      tag_296\n      jump\t// in\n    tag_363:\n        /* \"#utility.yul\":4633:4847   */\n      swap3\n      swap2\n      pop\n      pop\n      jump\t// out\n        /* \"#utility.yul\":4853:5182   */\n    tag_53:\n        /* \"#utility.yul\":4912:4918   */\n      0x00\n        /* \"#utility.yul\":4961:4963   */\n      0x20\n        /* \"#utility.yul\":4949:4958   */\n      dup3\n        /* \"#utility.yul\":4940:4947   */\n      dup5\n        /* \"#utility.yul\":4936:4959   */\n      sub\n        /* \"#utility.yul\":4932:4964   */\n      slt\n        /* \"#utility.yul\":4929:5048   */\n      iszero\n      tag_365\n      jumpi\n        /* \"#utility.yul\":4967:5046   */\n      tag_366\n      tag_283\n      jump\t// in\n    tag_366:\n        /* \"#utility.yul\":4929:5048   */\n    tag_365:\n        /* \"#utility.yul\":5087:5088   */\n      0x00\n        /* \"#utility.yul\":5112:5165   */\n      tag_367\n        /* \"#utility.yul\":5157:5164   */\n      dup5\n        /* \"#utility.yul\":5148:5154   */\n      dup3\n        /* \"#utility.yul\":5137:5146   */\n      dup6\n        /* \"#utility.yul\":5133:5155   */\n      add\n        /* \"#utility.yul\":5112:5165   */\n      tag_291\n      jump\t// in\n    tag_367:\n        /* \"#utility.yul\":5102:5165   */\n      swap2\n      pop\n        /* \"#utility.yul\":5058:5175   */\n      pop\n        /* \"#utility.yul\":4853:5182   */\n      swap3\n      swap2\n      pop\n      pop\n      jump\t// out\n        /* \"#utility.yul\":5188:5517   */\n    tag_57:\n        /* \"#utility.yul\":5247:5253   */\n      0x00\n        /* \"#utility.yul\":5296:5298   */\n      0x20\n        /* \"#utility.yul\":5284:5293   */\n      dup3\n        /* \"#utility.yul\":5275:5282   */\n      dup5\n        /* \"#utility.yul\":5271:5294   */\n      sub\n        /* \"#utility.yul\":5267:5299   */\n      slt\n        /* \"#utility.yul\":5264:5383   */\n      iszero\n      tag_369\n      jumpi\n        /* \"#utility.yul\":5302:5381   */\n      tag_370\n      tag_283\n      jump\t// in\n    tag_370:\n        /* \"#utility.yul\":5264:5383   */\n    tag_369:\n        /* \"#utility.yul\":5422:5423   */\n      0x00\n        /* \"#utility.yul\":5447:5500   */\n      tag_371\n        /* \"#utility.yul\":5492:5499   */\n      dup5\n        /* \"#utility.yul\":5483:5489   */\n      dup3\n        /* \"#utility.yul\":5472:5481   */\n      dup6\n        /* \"#utility.yul\":5468:5490   */\n      add\n        /* \"#utility.yul\":5447:5500   */\n      tag_288\n      jump\t// in\n    tag_371:\n        /* \"#utility.yul\":5437:5500   */\n      swap2\n      pop\n        /* \"#utility.yul\":5393:5510   */\n      pop\n        /* \"#utility.yul\":5188:5517   */\n      swap3\n      swap2\n      pop\n      pop\n      jump\t// out\n        /* \"#utility.yul\":5523:5641   */\n    tag_297:\n        /* \"#utility.yul\":5610:5634   */\n      tag_373\n        /* \"#utility.yul\":5628:5633   */\n      dup2\n        /* \"#utility.yul\":5610:5634   */\n      tag_286\n      jump\t// in\n    tag_373:\n        /* \"#utility.yul\":5605:5608   */\n      dup3\n        /* \"#utility.yul\":5598:5635   */\n      mstore\n        /* \"#utility.yul\":5523:5641   */\n      pop\n      pop\n      jump\t// out\n        /* \"#utility.yul\":5647:5869   */\n    tag_63:\n        /* \"#utility.yul\":5740:5744   */\n      0x00\n        /* \"#utility.yul\":5778:5780   */\n      0x20\n        /* \"#utility.yul\":5767:5776   */\n      dup3\n        /* \"#utility.yul\":5763:5781   */\n      add\n        /* \"#utility.yul\":5755:5781   */\n      swap1\n      pop\n        /* \"#utility.yul\":5791:5862   */\n      tag_375\n        /* \"#utility.yul\":5859:5860   */\n      0x00\n        /* \"#utility.yul\":5848:5857   */\n      dup4\n        /* \"#utility.yul\":5844:5861   */\n      add\n        /* \"#utility.yul\":5835:5841   */\n      dup5\n        /* \"#utility.yul\":5791:5862   */\n      tag_297\n      jump\t// in\n    tag_375:\n        /* \"#utility.yul\":5647:5869   */\n      swap3\n      swap2\n      pop\n      pop\n      jump\t// out\n        /* \"#utility.yul\":5875:6349   */\n    tag_79:\n        /* \"#utility.yul\":5943:5949   */\n      0x00\n        /* \"#utility.yul\":5951:5957   */\n      dup1\n        /* \"#utility.yul\":6000:6002   */\n      0x40\n        /* \"#utility.yul\":5988:5997   */\n      dup4\n        /* \"#utility.yul\":5979:5986   */\n      dup6\n        /* \"#utility.yul\":5975:5998   */\n      sub\n        /* \"#utility.yul\":5971:6003   */\n      slt\n        /* \"#utility.yul\":5968:6087   */\n      iszero\n      tag_377\n      jumpi\n        /* \"#utility.yul\":6006:6085   */\n      tag_378\n      tag_283\n      jump\t// in\n    tag_378:\n        /* \"#utility.yul\":5968:6087   */\n    tag_377:\n        /* \"#utility.yul\":6126:6127   */\n      0x00\n        /* \"#utility.yul\":6151:6204   */\n      tag_379\n        /* \"#utility.yul\":6196:6203   */\n      dup6\n        /* \"#utility.yul\":6187:6193   */\n      dup3\n        /* \"#utility.yul\":6176:6185   */\n      dup7\n        /* \"#utility.yul\":6172:6194   */\n      add\n        /* \"#utility.yul\":6151:6204   */\n      tag_288\n      jump\t// in\n    tag_379:\n        /* \"#utility.yul\":6141:6204   */\n      swap3\n      pop\n        /* \"#utility.yul\":6097:6214   */\n      pop\n        /* \"#utility.yul\":6253:6255   */\n      0x20\n        /* \"#utility.yul\":6279:6332   */\n      tag_380\n        /* \"#utility.yul\":6324:6331   */\n      dup6\n        /* \"#utility.yul\":6315:6321   */\n      dup3\n        /* \"#utility.yul\":6304:6313   */\n      dup7\n        /* \"#utility.yul\":6300:6322   */\n      add\n        /* \"#utility.yul\":6279:6332   */\n      tag_288\n      jump\t// in\n    tag_380:\n        /* \"#utility.yul\":6269:6332   */\n      swap2\n      pop\n        /* \"#utility.yul\":6224:6342   */\n      pop\n        /* \"#utility.yul\":5875:6349   */\n      swap3\n      pop\n      swap3\n      swap1\n      pop\n      jump\t// out\n        /* \"#utility.yul\":6355:6535   */\n    tag_298:\n        /* \"#utility.yul\":6403:6480   */\n      0x4e487b7100000000000000000000000000000000000000000000000000000000\n        /* \"#utility.yul\":6400:6401   */\n      0x00\n        /* \"#utility.yul\":6393:6481   */\n      mstore\n        /* \"#utility.yul\":6500:6504   */\n      0x22\n        /* \"#utility.yul\":6497:6498   */\n      0x04\n        /* \"#utility.yul\":6490:6505   */\n      mstore\n        /* \"#utility.yul\":6524:6528   */\n      0x24\n        /* \"#utility.yul\":6521:6522   */\n      0x00\n        /* \"#utility.yul\":6514:6529   */\n      revert\n        /* \"#utility.yul\":6541:6861   */\n    tag_87:\n        /* \"#utility.yul\":6585:6591   */\n      0x00\n        /* \"#utility.yul\":6622:6623   */\n      0x02\n        /* \"#utility.yul\":6616:6620   */\n      dup3\n        /* \"#utility.yul\":6612:6624   */\n      div\n        /* \"#utility.yul\":6602:6624   */\n      swap1\n      pop\n        /* \"#utility.yul\":6669:6670   */\n      0x01\n        /* \"#utility.yul\":6663:6667   */\n      dup3\n        /* \"#utility.yul\":6659:6671   */\n      and\n        /* \"#utility.yul\":6690:6708   */\n      dup1\n        /* \"#utility.yul\":6680:6761   */\n      tag_383\n      jumpi\n        /* \"#utility.yul\":6746:6750   */\n      0x7f\n        /* \"#utility.yul\":6738:6744   */\n      dup3\n        /* \"#utility.yul\":6734:6751   */\n      and\n        /* \"#utility.yul\":6724:6751   */\n      swap2\n      pop\n        /* \"#utility.yul\":6680:6761   */\n    tag_383:\n        /* \"#utility.yul\":6808:6810   */\n      0x20\n        /* \"#utility.yul\":6800:6806   */\n      dup3\n        /* \"#utility.yul\":6797:6811   */\n      lt\n        /* \"#utility.yul\":6777:6795   */\n      dup2\n        /* \"#utility.yul\":6774:6812   */\n      sub\n        /* \"#utility.yul\":6771:6855   */\n      tag_384\n      jumpi\n        /* \"#utility.yul\":6827:6845   */\n      tag_385\n      tag_298\n      jump\t// in\n    tag_385:\n        /* \"#utility.yul\":6771:6855   */\n    tag_384:\n        /* \"#utility.yul\":6592:6861   */\n      pop\n        /* \"#utility.yul\":6541:6861   */\n      swap2\n      swap1\n      pop\n      jump\t// out\n        /* \"#utility.yul\":6867:7027   */\n    tag_299:\n        /* \"#utility.yul\":7007:7019   */\n      0x4f6e6c792061646d696e00000000000000000000000000000000000000000000\n        /* \"#utility.yul\":7003:7004   */\n      0x00\n        /* \"#utility.yul\":6995:7001   */\n      dup3\n        /* \"#utility.yul\":6991:7005   */\n      add\n        /* \"#utility.yul\":6984:7020   */\n      mstore\n        /* \"#utility.yul\":6867:7027   */\n      pop\n      jump\t// out\n        /* \"#utility.yul\":7033:7399   */\n    tag_300:\n        /* \"#utility.yul\":7175:7178   */\n      0x00\n        /* \"#utility.yul\":7196:7263   */\n      tag_388\n        /* \"#utility.yul\":7260:7262   */\n      0x0a\n        /* \"#utility.yul\":7255:7258   */\n      dup4\n        /* \"#utility.yul\":7196:7263   */\n      tag_278\n      jump\t// in\n    tag_388:\n        /* \"#utility.yul\":7189:7263   */\n      swap2\n      pop\n        /* \"#utility.yul\":7272:7365   */\n      tag_389\n        /* \"#utility.yul\":7361:7364   */\n      dup3\n        /* \"#utility.yul\":7272:7365   */\n      tag_299\n      jump\t// in\n    tag_389:\n        /* \"#utility.yul\":7390:7392   */\n      0x20\n        /* \"#utility.yul\":7385:7388   */\n      dup3\n        /* \"#utility.yul\":7381:7393   */\n      add\n        /* \"#utility.yul\":7374:7393   */\n      swap1\n      pop\n        /* \"#utility.yul\":7033:7399   */\n      swap2\n      swap1\n      pop\n      jump\t// out\n        /* \"#utility.yul\":7405:7824   */\n    tag_108:\n        /* \"#utility.yul\":7571:7575   */\n      0x00\n        /* \"#utility.yul\":7609:7611   */\n      0x20\n        /* \"#utility.yul\":7598:7607   */\n      dup3\n        /* \"#utility.yul\":7594:7612   */\n      add\n        /* \"#utility.yul\":7586:7612   */\n      swap1\n      pop\n        /* \"#utility.yul\":7658:7667   */\n      dup2\n        /* \"#utility.yul\":7652:7656   */\n      dup2\n        /* \"#utility.yul\":7648:7668   */\n      sub\n        /* \"#utility.yul\":7644:7645   */\n      0x00\n        /* \"#utility.yul\":7633:7642   */\n      dup4\n        /* \"#utility.yul\":7629:7646   */\n      add\n        /* \"#utility.yul\":7622:7669   */\n      mstore\n        /* \"#utility.yul\":7686:7817   */\n      tag_391\n        /* \"#utility.yul\":7812:7816   */\n      dup2\n        /* \"#utility.yul\":7686:7817   */\n      tag_300\n      jump\t// in\n    tag_391:\n        /* \"#utility.yul\":7678:7817   */\n      swap1\n      pop\n        /* \"#utility.yul\":7405:7824   */\n      swap2\n      swap1\n      pop\n      jump\t// out\n        /* \"#utility.yul\":7830:8272   */\n    tag_141:\n        /* \"#utility.yul\":7979:7983   */\n      0x00\n        /* \"#utility.yul\":8017:8019   */\n      0x60\n        /* \"#utility.yul\":8006:8015   */\n      dup3\n        /* \"#utility.yul\":8002:8020   */\n      add\n        /* \"#utility.yul\":7994:8020   */\n      swap1\n      pop\n        /* \"#utility.yul\":8030:8101   */\n      tag_393\n        /* \"#utility.yul\":8098:8099   */\n      0x00\n        /* \"#utility.yul\":8087:8096   */\n      dup4\n        /* \"#utility.yul\":8083:8100   */\n      add\n        /* \"#utility.yul\":8074:8080   */\n      dup7\n        /* \"#utility.yul\":8030:8101   */\n      tag_297\n      jump\t// in\n    tag_393:\n        /* \"#utility.yul\":8111:8183   */\n      tag_394\n        /* \"#utility.yul\":8179:8181   */\n      0x20\n        /* \"#utility.yul\":8168:8177   */\n      dup4\n        /* \"#utility.yul\":8164:8182   */\n      add\n        /* \"#utility.yul\":8155:8161   */\n      dup6\n        /* \"#utility.yul\":8111:8183   */\n      tag_294\n      jump\t// in\n    tag_394:\n        /* \"#utility.yul\":8193:8265   */\n      tag_395\n        /* \"#utility.yul\":8261:8263   */\n      0x40\n        /* \"#utility.yul\":8250:8259   */\n      dup4\n        /* \"#utility.yul\":8246:8264   */\n      add\n        /* \"#utility.yul\":8237:8243   */\n      dup5\n        /* \"#utility.yul\":8193:8265   */\n      tag_294\n      jump\t// in\n    tag_395:\n        /* \"#utility.yul\":7830:8272   */\n      swap5\n      swap4\n      pop\n      pop\n      pop\n      pop\n      jump\t// out\n        /* \"#utility.yul\":8278:8426   */\n    tag_301:\n        /* \"#utility.yul\":8380:8391   */\n      0x00\n        /* \"#utility.yul\":8417:8420   */\n      dup2\n        /* \"#utility.yul\":8402:8420   */\n      swap1\n      pop\n        /* \"#utility.yul\":8278:8426   */\n      swap3\n      swap2\n      pop\n      pop\n      jump\t// out\n        /* \"#utility.yul\":8432:8822   */\n    tag_302:\n        /* \"#utility.yul\":8538:8541   */\n      0x00\n        /* \"#utility.yul\":8566:8605   */\n      tag_398\n        /* \"#utility.yul\":8599:8604   */\n      dup3\n        /* \"#utility.yul\":8566:8605   */\n      tag_277\n      jump\t// in\n    tag_398:\n        /* \"#utility.yul\":8621:8710   */\n      tag_399\n        /* \"#utility.yul\":8703:8709   */\n      dup2\n        /* \"#utility.yul\":8698:8701   */\n      dup6\n        /* \"#utility.yul\":8621:8710   */\n      tag_301\n      jump\t// in\n    tag_399:\n        /* \"#utility.yul\":8614:8710   */\n      swap4\n      pop\n        /* \"#utility.yul\":8719:8784   */\n      tag_400\n        /* \"#utility.yul\":8777:8783   */\n      dup2\n        /* \"#utility.yul\":8772:8775   */\n      dup6\n        /* \"#utility.yul\":8765:8769   */\n      0x20\n        /* \"#utility.yul\":8758:8763   */\n      dup7\n        /* \"#utility.yul\":8754:8770   */\n      add\n        /* \"#utility.yul\":8719:8784   */\n      tag_279\n      jump\t// in\n    tag_400:\n        /* \"#utility.yul\":8809:8815   */\n      dup1\n        /* \"#utility.yul\":8804:8807   */\n      dup5\n        /* \"#utility.yul\":8800:8816   */\n      add\n        /* \"#utility.yul\":8793:8816   */\n      swap2\n      pop\n        /* \"#utility.yul\":8542:8822   */\n      pop\n        /* \"#utility.yul\":8432:8822   */\n      swap3\n      swap2\n      pop\n      pop\n      jump\t// out\n        /* \"#utility.yul\":8828:8979   */\n    tag_303:\n        /* \"#utility.yul\":8968:8971   */\n      0x2f00000000000000000000000000000000000000000000000000000000000000\n        /* \"#utility.yul\":8964:8965   */\n      0x00\n        /* \"#utility.yul\":8956:8962   */\n      dup3\n        /* \"#utility.yul\":8952:8966   */\n      add\n        /* \"#utility.yul\":8945:8972   */\n      mstore\n        /* \"#utility.yul\":8828:8979   */\n      pop\n      jump\t// out\n        /* \"#utility.yul\":8985:9385   */\n    tag_304:\n        /* \"#utility.yul\":9145:9148   */\n      0x00\n        /* \"#utility.yul\":9166:9250   */\n      tag_403\n        /* \"#utility.yul\":9248:9249   */\n      0x01\n        /* \"#utility.yul\":9243:9246   */\n      dup4\n        /* \"#utility.yul\":9166:9250   */\n      tag_301\n      jump\t// in\n    tag_403:\n        /* \"#utility.yul\":9159:9250   */\n      swap2\n      pop\n        /* \"#utility.yul\":9259:9352   */\n      tag_404\n        /* \"#utility.yul\":9348:9351   */\n      dup3\n        /* \"#utility.yul\":9259:9352   */\n      tag_303\n      jump\t// in\n    tag_404:\n        /* \"#utility.yul\":9377:9378   */\n      0x01\n        /* \"#utility.yul\":9372:9375   */\n      dup3\n        /* \"#utility.yul\":9368:9379   */\n      add\n        /* \"#utility.yul\":9361:9379   */\n      swap1\n      pop\n        /* \"#utility.yul\":8985:9385   */\n      swap2\n      swap1\n      pop\n      jump\t// out\n        /* \"#utility.yul\":9391:10518   */\n    tag_170:\n        /* \"#utility.yul\":9821:9824   */\n      0x00\n        /* \"#utility.yul\":9843:9938   */\n      tag_406\n        /* \"#utility.yul\":9934:9937   */\n      dup3\n        /* \"#utility.yul\":9925:9931   */\n      dup7\n        /* \"#utility.yul\":9843:9938   */\n      tag_302\n      jump\t// in\n    tag_406:\n        /* \"#utility.yul\":9836:9938   */\n      swap2\n      pop\n        /* \"#utility.yul\":9955:10103   */\n      tag_407\n        /* \"#utility.yul\":10099:10102   */\n      dup3\n        /* \"#utility.yul\":9955:10103   */\n      tag_304\n      jump\t// in\n    tag_407:\n        /* \"#utility.yul\":9948:10103   */\n      swap2\n      pop\n        /* \"#utility.yul\":10120:10215   */\n      tag_408\n        /* \"#utility.yul\":10211:10214   */\n      dup3\n        /* \"#utility.yul\":10202:10208   */\n      dup6\n        /* \"#utility.yul\":10120:10215   */\n      tag_302\n      jump\t// in\n    tag_408:\n        /* \"#utility.yul\":10113:10215   */\n      swap2\n      pop\n        /* \"#utility.yul\":10232:10380   */\n      tag_409\n        /* \"#utility.yul\":10376:10379   */\n      dup3\n        /* \"#utility.yul\":10232:10380   */\n      tag_304\n      jump\t// in\n    tag_409:\n        /* \"#utility.yul\":10225:10380   */\n      swap2\n      pop\n        /* \"#utility.yul\":10397:10492   */\n      tag_410\n        /* \"#utility.yul\":10488:10491   */\n      dup3\n        /* \"#utility.yul\":10479:10485   */\n      dup5\n        /* \"#utility.yul\":10397:10492   */\n      tag_302\n      jump\t// in\n    tag_410:\n        /* \"#utility.yul\":10390:10492   */\n      swap2\n      pop\n        /* \"#utility.yul\":10509:10512   */\n      dup2\n        /* \"#utility.yul\":10502:10512   */\n      swap1\n      pop\n        /* \"#utility.yul\":9391:10518   */\n      swap5\n      swap4\n      pop\n      pop\n      pop\n      pop\n      jump\t// out\n        /* \"#utility.yul\":10524:10704   */\n    tag_305:\n        /* \"#utility.yul\":10572:10649   */\n      0x4e487b7100000000000000000000000000000000000000000000000000000000\n        /* \"#utility.yul\":10569:10570   */\n      0x00\n        /* \"#utility.yul\":10562:10650   */\n      mstore\n        /* \"#utility.yul\":10669:10673   */\n      0x11\n        /* \"#utility.yul\":10666:10667   */\n      0x04\n        /* \"#utility.yul\":10659:10674   */\n      mstore\n        /* \"#utility.yul\":10693:10697   */\n      0x24\n        /* \"#utility.yul\":10690:10691   */\n      0x00\n        /* \"#utility.yul\":10683:10698   */\n      revert\n        /* \"#utility.yul\":10710:10901   */\n    tag_181:\n        /* \"#utility.yul\":10750:10753   */\n      0x00\n        /* \"#utility.yul\":10769:10789   */\n      tag_413\n        /* \"#utility.yul\":10787:10788   */\n      dup3\n        /* \"#utility.yul\":10769:10789   */\n      tag_289\n      jump\t// in\n    tag_413:\n        /* \"#utility.yul\":10764:10789   */\n      swap2\n      pop\n        /* \"#utility.yul\":10803:10823   */\n      tag_414\n        /* \"#utility.yul\":10821:10822   */\n      dup4\n        /* \"#utility.yul\":10803:10823   */\n      tag_289\n      jump\t// in\n    tag_414:\n        /* \"#utility.yul\":10798:10823   */\n      swap3\n      pop\n        /* \"#utility.yul\":10846:10847   */\n      dup3\n        /* \"#utility.yul\":10843:10844   */\n      dup3\n        /* \"#utility.yul\":10839:10848   */\n      add\n        /* \"#utility.yul\":10832:10848   */\n      swap1\n      pop\n        /* \"#utility.yul\":10867:10870   */\n      dup1\n        /* \"#utility.yul\":10864:10865   */\n      dup3\n        /* \"#utility.yul\":10861:10871   */\n      gt\n        /* \"#utility.yul\":10858:10894   */\n      iszero\n      tag_415\n      jumpi\n        /* \"#utility.yul\":10874:10892   */\n      tag_416\n      tag_305\n      jump\t// in\n    tag_416:\n        /* \"#utility.yul\":10858:10894   */\n    tag_415:\n        /* \"#utility.yul\":10710:10901   */\n      swap3\n      swap2\n      pop\n      pop\n      jump\t// out\n        /* \"#utility.yul\":10907:11087   */\n    tag_306:\n        /* \"#utility.yul\":10955:11032   */\n      0x4e487b7100000000000000000000000000000000000000000000000000000000\n        /* \"#utility.yul\":10952:10953   */\n      0x00\n        /* \"#utility.yul\":10945:11033   */\n      mstore\n        /* \"#utility.yul\":11052:11056   */\n      0x12\n        /* \"#utility.yul\":11049:11050   */\n      0x04\n        /* \"#utility.yul\":11042:11057   */\n      mstore\n        /* \"#utility.yul\":11076:11080   */\n      0x24\n        /* \"#utility.yul\":11073:11074   */\n      0x00\n        /* \"#utility.yul\":11066:11081   */\n      revert\n        /* \"#utility.yul\":11093:11269   */\n    tag_191:\n        /* \"#utility.yul\":11125:11126   */\n      0x00\n        /* \"#utility.yul\":11142:11162   */\n      tag_419\n        /* \"#utility.yul\":11160:11161   */\n      dup3\n        /* \"#utility.yul\":11142:11162   */\n      tag_289\n      jump\t// in\n    tag_419:\n        /* \"#utility.yul\":11137:11162   */\n      swap2\n      pop\n        /* \"#utility.yul\":11176:11196   */\n      tag_420\n        /* \"#utility.yul\":11194:11195   */\n      dup4\n        /* \"#utility.yul\":11176:11196   */\n      tag_289\n      jump\t// in\n    tag_420:\n        /* \"#utility.yul\":11171:11196   */\n      swap3\n      pop\n        /* \"#utility.yul\":11215:11216   */\n      dup3\n        /* \"#utility.yul\":11205:11240   */\n      tag_421\n      jumpi\n        /* \"#utility.yul\":11220:11238   */\n      tag_422\n      tag_306\n      jump\t// in\n    tag_422:\n        /* \"#utility.yul\":11205:11240   */\n    tag_421:\n        /* \"#utility.yul\":11261:11262   */\n      dup3\n        /* \"#utility.yul\":11258:11259   */\n      dup3\n        /* \"#utility.yul\":11254:11263   */\n      mod\n        /* \"#utility.yul\":11249:11263   */\n      swap1\n      pop\n        /* \"#utility.yul\":11093:11269   */\n      swap3\n      swap2\n      pop\n      pop\n      jump\t// out\n        /* \"#utility.yul\":11275:11460   */\n    tag_195:\n        /* \"#utility.yul\":11315:11316   */\n      0x00\n        /* \"#utility.yul\":11332:11352   */\n      tag_424\n        /* \"#utility.yul\":11350:11351   */\n      dup3\n        /* \"#utility.yul\":11332:11352   */\n      tag_289\n      jump\t// in\n    tag_424:\n        /* \"#utility.yul\":11327:11352   */\n      swap2\n      pop\n        /* \"#utility.yul\":11366:11386   */\n      tag_425\n        /* \"#utility.yul\":11384:11385   */\n      dup4\n        /* \"#utility.yul\":11366:11386   */\n      tag_289\n      jump\t// in\n    tag_425:\n        /* \"#utility.yul\":11361:11386   */\n      swap3\n      pop\n        /* \"#utility.yul\":11405:11406   */\n      dup3\n        /* \"#utility.yul\":11395:11430   */\n      tag_426\n      jumpi\n        /* \"#utility.yul\":11410:11428   */\n      tag_427\n      tag_306\n      jump\t// in\n    tag_427:\n        /* \"#utility.yul\":11395:11430   */\n    tag_426:\n        /* \"#utility.yul\":11452:11453   */\n      dup3\n        /* \"#utility.yul\":11449:11450   */\n      dup3\n        /* \"#utility.yul\":11445:11454   */\n      div\n        /* \"#utility.yul\":11440:11454   */\n      swap1\n      pop\n        /* \"#utility.yul\":11275:11460   */\n      swap3\n      swap2\n      pop\n      pop\n      jump\t// out\n        /* \"#utility.yul\":11466:11660   */\n    tag_197:\n        /* \"#utility.yul\":11506:11510   */\n      0x00\n        /* \"#utility.yul\":11526:11546   */\n      tag_429\n        /* \"#utility.yul\":11544:11545   */\n      dup3\n        /* \"#utility.yul\":11526:11546   */\n      tag_289\n      jump\t// in\n    tag_429:\n        /* \"#utility.yul\":11521:11546   */\n      swap2\n      pop\n        /* \"#utility.yul\":11560:11580   */\n      tag_430\n        /* \"#utility.yul\":11578:11579   */\n      dup4\n        /* \"#utility.yul\":11560:11580   */\n      tag_289\n      jump\t// in\n    tag_430:\n        /* \"#utility.yul\":11555:11580   */\n      swap3\n      pop\n        /* \"#utility.yul\":11604:11605   */\n      dup3\n        /* \"#utility.yul\":11601:11602   */\n      dup3\n        /* \"#utility.yul\":11597:11606   */\n      sub\n        /* \"#utility.yul\":11589:11606   */\n      swap1\n      pop\n        /* \"#utility.yul\":11628:11629   */\n      dup2\n        /* \"#utility.yul\":11622:11626   */\n      dup2\n        /* \"#utility.yul\":11619:11630   */\n      gt\n        /* \"#utility.yul\":11616:11653   */\n      iszero\n      tag_431\n      jumpi\n        /* \"#utility.yul\":11633:11651   */\n      tag_432\n      tag_305\n      jump\t// in\n    tag_432:\n        /* \"#utility.yul\":11616:11653   */\n    tag_431:\n        /* \"#utility.yul\":11466:11660   */\n      swap3\n      swap2\n      pop\n      pop\n      jump\t// out\n        /* \"#utility.yul\":11666:12076   */\n    tag_199:\n        /* \"#utility.yul\":11706:11713   */\n      0x00\n        /* \"#utility.yul\":11729:11749   */\n      tag_434\n        /* \"#utility.yul\":11747:11748   */\n      dup3\n        /* \"#utility.yul\":11729:11749   */\n      tag_289\n      jump\t// in\n    tag_434:\n        /* \"#utility.yul\":11724:11749   */\n      swap2\n      pop\n        /* \"#utility.yul\":11763:11783   */\n      tag_435\n        /* \"#utility.yul\":11781:11782   */\n      dup4\n        /* \"#utility.yul\":11763:11783   */\n      tag_289\n      jump\t// in\n    tag_435:\n        /* \"#utility.yul\":11758:11783   */\n      swap3\n      pop\n        /* \"#utility.yul\":11818:11819   */\n      dup3\n        /* \"#utility.yul\":11815:11816   */\n      dup3\n        /* \"#utility.yul\":11811:11820   */\n      mul\n        /* \"#utility.yul\":11840:11870   */\n      tag_436\n        /* \"#utility.yul\":11858:11869   */\n      dup2\n        /* \"#utility.yul\":11840:11870   */\n      tag_289\n      jump\t// in\n    tag_436:\n        /* \"#utility.yul\":11829:11870   */\n      swap2\n      pop\n        /* \"#utility.yul\":12019:12020   */\n      dup3\n        /* \"#utility.yul\":12010:12017   */\n      dup3\n        /* \"#utility.yul\":12006:12021   */\n      div\n        /* \"#utility.yul\":12003:12004   */\n      dup5\n        /* \"#utility.yul\":12000:12022   */\n      eq\n        /* \"#utility.yul\":11980:11981   */\n      dup4\n        /* \"#utility.yul\":11973:11982   */\n      iszero\n        /* \"#utility.yul\":11953:12036   */\n      or\n        /* \"#utility.yul\":11930:12069   */\n      tag_437\n      jumpi\n        /* \"#utility.yul\":12049:12067   */\n      tag_438\n      tag_305\n      jump\t// in\n    tag_438:\n        /* \"#utility.yul\":11930:12069   */\n    tag_437:\n        /* \"#utility.yul\":11714:12076   */\n      pop\n        /* \"#utility.yul\":11666:12076   */\n      swap3\n      swap2\n      pop\n      pop\n      jump\t// out\n        /* \"#utility.yul\":12082:12315   */\n    tag_207:\n        /* \"#utility.yul\":12121:12124   */\n      0x00\n        /* \"#utility.yul\":12144:12168   */\n      tag_440\n        /* \"#utility.yul\":12162:12167   */\n      dup3\n        /* \"#utility.yul\":12144:12168   */\n      tag_289\n      jump\t// in\n    tag_440:\n        /* \"#utility.yul\":12135:12168   */\n      swap2\n      pop\n        /* \"#utility.yul\":12190:12256   */\n      0xffffffffffffffffffffffffffffffffffffffffffffffffffffffffffffffff\n        /* \"#utility.yul\":12183:12188   */\n      dup3\n        /* \"#utility.yul\":12180:12257   */\n      sub\n        /* \"#utility.yul\":12177:12280   */\n      tag_441\n      jumpi\n        /* \"#utility.yul\":12260:12278   */\n      tag_442\n      tag_305\n      jump\t// in\n    tag_442:\n        /* \"#utility.yul\":12177:12280   */\n    tag_441:\n        /* \"#utility.yul\":12307:12308   */\n      0x01\n        /* \"#utility.yul\":12300:12305   */\n      dup3\n        /* \"#utility.yul\":12296:12309   */\n      add\n        /* \"#utility.yul\":12289:12309   */\n      swap1\n      pop\n        /* \"#utility.yul\":12082:12315   */\n      swap2\n      swap1\n      pop\n      jump\t// out\n        /* \"#utility.yul\":12321:12501   */\n    tag_211:\n        /* \"#utility.yul\":12369:12446   */\n      0x4e487b7100000000000000000000000000000000000000000000000000000000\n        /* \"#utility.yul\":12366:12367   */\n      0x00\n        /* \"#utility.yul\":12359:12447   */\n      mstore\n        /* \"#utility.yul\":12466:12470   */\n      0x41\n        /* \"#utility.yul\":12463:12464   */\n      0x04\n        /* \"#utility.yul\":12456:12471   */\n      mstore\n        /* \"#utility.yul\":12490:12494   */\n      0x24\n        /* \"#utility.yul\":12487:12488   */\n      0x00\n        /* \"#utility.yul\":12480:12495   */\n      revert\n        /* \"#utility.yul\":12507:12678   */\n    tag_216:\n        /* \"#utility.yul\":12546:12549   */\n      0x00\n        /* \"#utility.yul\":12569:12593   */\n      tag_445\n        /* \"#utility.yul\":12587:12592   */\n      dup3\n        /* \"#utility.yul\":12569:12593   */\n      tag_289\n      jump\t// in\n    tag_445:\n        /* \"#utility.yul\":12560:12593   */\n      swap2\n      pop\n        /* \"#utility.yul\":12615:12619   */\n      0x00\n        /* \"#utility.yul\":12608:12613   */\n      dup3\n        /* \"#utility.yul\":12605:12620   */\n      sub\n        /* \"#utility.yul\":12602:12643   */\n      tag_446\n      jumpi\n        /* \"#utility.yul\":12623:12641   */\n      tag_447\n      tag_305\n      jump\t// in\n    tag_447:\n        /* \"#utility.yul\":12602:12643   */\n    tag_446:\n        /* \"#utility.yul\":12670:12671   */\n      0x01\n        /* \"#utility.yul\":12663:12668   */\n      dup3\n        /* \"#utility.yul\":12659:12672   */\n      sub\n        /* \"#utility.yul\":12652:12672   */\n      swap1\n      pop\n        /* \"#utility.yul\":12507:12678   */\n      swap2\n      swap1\n      pop\n      jump\t// out\n        /* \"#utility.yul\":12684:12864   */\n    tag_221:\n        /* \"#utility.yul\":12732:12809   */\n      0x4e487b7100000000000000000000000000000000000000000000000000000000\n        /* \"#utility.yul\":12729:12730   */\n      0x00\n        /* \"#utility.yul\":12722:12810   */\n      mstore\n        /* \"#utility.yul\":12829:12833   */\n      0x32\n        /* \"#utility.yul\":12826:12827   */\n      0x04\n        /* \"#utility.yul\":12819:12834   */\n      mstore\n        /* \"#utility.yul\":12853:12857   */\n      0x24\n        /* \"#utility.yul\":12850:12851   */\n      0x00\n        /* \"#utility.yul\":12843:12858   */\n      revert\n\n    auxdata: 0xa2646970667358221220e7f44014c7bf6b65f3fe1f67c6fdbb8a39e0fbae7d82fa872a9c27281f40c0d464736f6c63430008160033\n}\n",
				"bytecode": {
					"linkReferences": {},
					"object": "608060405234801562000010575f80fd5b506040518060400160405280600c81526020017f414954555f4d41475a48414e00000000000000000000000000000000000000008152506040518060400160405280600381526020017f4d474e000000000000000000000000000000000000000000000000000000000081525081600390816200008e919062000616565b508060049081620000a0919062000616565b505050620000be33686c6b935b8bbd4000006200010460201b60201c565b3360055f6101000a81548173ffffffffffffffffffffffffffffffffffffffff021916908373ffffffffffffffffffffffffffffffffffffffff16021790555062000826565b5f73ffffffffffffffffffffffffffffffffffffffff168273ffffffffffffffffffffffffffffffffffffffff160362000177575f6040517fec442f050000000000000000000000000000000000000000000000000000000081526004016200016e91906200073d565b60405180910390fd5b6200018a5f83836200018e60201b60201c565b5050565b5f73ffffffffffffffffffffffffffffffffffffffff168373ffffffffffffffffffffffffffffffffffffffff1603620001e2578060025f828254620001d5919062000785565b92505081905550620002b3565b5f805f8573ffffffffffffffffffffffffffffffffffffffff1673ffffffffffffffffffffffffffffffffffffffff1681526020019081526020015f20549050818110156200026e578381836040517fe450d38c0000000000000000000000000000000000000000000000000000000081526004016200026593929190620007d0565b60405180910390fd5b8181035f808673ffffffffffffffffffffffffffffffffffffffff1673ffffffffffffffffffffffffffffffffffffffff1681526020019081526020015f2081905550505b5f73ffffffffffffffffffffffffffffffffffffffff168273ffffffffffffffffffffffffffffffffffffffff1603620002fc578060025f828254039250508190555062000346565b805f808473ffffffffffffffffffffffffffffffffffffffff1673ffffffffffffffffffffffffffffffffffffffff1681526020019081526020015f205f82825401925050819055505b8173ffffffffffffffffffffffffffffffffffffffff168373ffffffffffffffffffffffffffffffffffffffff167fddf252ad1be2c89b69c2b068fc378daa952ba7f163c4a11628f55a4df523b3ef83604051620003a591906200080b565b60405180910390a3505050565b5f81519050919050565b7f4e487b71000000000000000000000000000000000000000000000000000000005f52604160045260245ffd5b7f4e487b71000000000000000000000000000000000000000000000000000000005f52602260045260245ffd5b5f60028204905060018216806200042e57607f821691505b602082108103620004445762000443620003e9565b5b50919050565b5f819050815f5260205f209050919050565b5f6020601f8301049050919050565b5f82821b905092915050565b5f60088302620004a87fffffffffffffffffffffffffffffffffffffffffffffffffffffffffffffffff826200046b565b620004b486836200046b565b95508019841693508086168417925050509392505050565b5f819050919050565b5f819050919050565b5f620004fe620004f8620004f284620004cc565b620004d5565b620004cc565b9050919050565b5f819050919050565b6200051983620004de565b62000531620005288262000505565b84845462000477565b825550505050565b5f90565b6200054762000539565b620005548184846200050e565b505050565b5b818110156200057b576200056f5f826200053d565b6001810190506200055a565b5050565b601f821115620005ca5762000594816200044a565b6200059f846200045c565b81016020851015620005af578190505b620005c7620005be856200045c565b83018262000559565b50505b505050565b5f82821c905092915050565b5f620005ec5f1984600802620005cf565b1980831691505092915050565b5f620006068383620005db565b9150826002028217905092915050565b6200062182620003b2565b67ffffffffffffffff8111156200063d576200063c620003bc565b5b62000649825462000416565b620006568282856200057f565b5f60209050601f8311600181146200068c575f841562000677578287015190505b620006838582620005f9565b865550620006f2565b601f1984166200069c866200044a565b5f5b82811015620006c5578489015182556001820191506020850194506020810190506200069e565b86831015620006e55784890151620006e1601f891682620005db565b8355505b6001600288020188555050505b505050505050565b5f73ffffffffffffffffffffffffffffffffffffffff82169050919050565b5f6200072582620006fa565b9050919050565b620007378162000719565b82525050565b5f602082019050620007525f8301846200072c565b92915050565b7f4e487b71000000000000000000000000000000000000000000000000000000005f52601160045260245ffd5b5f6200079182620004cc565b91506200079e83620004cc565b9250828201905080821115620007b957620007b862000758565b5b92915050565b620007ca81620004cc565b82525050565b5f606082019050620007e55f8301866200072c565b620007f46020830185620007bf565b620008036040830184620007bf565b949350505050565b5f602082019050620008205f830184620007bf565b92915050565b611a1c80620008345f395ff3fe608060405234801561000f575f80fd5b50600436106100fe575f3560e01c806370a0823111610095578063bead3f5011610064578063bead3f50146102ae578063d45e3f4a146102cc578063dd62ed3e146102ea578063f851a4401461031a576100fe565b806370a0823114610212578063841b39fc1461024257806395d89b4114610260578063a9059cbb1461027e576100fe565b80632ff2e9dc116100d15780632ff2e9dc1461019e578063313ce567146101bc57806340c10f19146101da57806342966c68146101f6576100fe565b806306fdde0314610102578063095ea7b31461012057806318160ddd1461015057806323b872dd1461016e575b5f80fd5b61010a610338565b604051610117919061136f565b60405180910390f35b61013a60048036038101906101359190611420565b6103c8565b6040516101479190611478565b60405180910390f35b6101586103ea565b60405161016591906114a0565b60405180910390f35b610188600480360381019061018391906114b9565b6103f3565b6040516101959190611478565b60405180910390f35b6101a6610421565b6040516101b391906114a0565b60405180910390f35b6101c461042e565b6040516101d19190611524565b60405180910390f35b6101f460048036038101906101ef9190611420565b610436565b005b610210600480360381019061020b919061153d565b6104d3565b005b61022c60048036038101906102279190611568565b6104e0565b60405161023991906114a0565b60405180910390f35b61024a610525565b60405161025791906115a2565b60405180910390f35b61026861052c565b604051610275919061136f565b60405180910390f35b61029860048036038101906102939190611420565b6105bc565b6040516102a59190611478565b60405180910390f35b6102b66105de565b6040516102c391906115a2565b60405180910390f35b6102d46105ec565b6040516102e1919061136f565b60405180910390f35b61030460048036038101906102ff91906115bb565b6105fc565b60405161031191906114a0565b60405180910390f35b61032261067e565b60405161032f91906115a2565b60405180910390f35b60606003805461034790611626565b80601f016020809104026020016040519081016040528092919081815260200182805461037390611626565b80156103be5780601f10610395576101008083540402835291602001916103be565b820191905f5260205f20905b8154815290600101906020018083116103a157829003601f168201915b5050505050905090565b5f806103d26106a3565b90506103df8185856106aa565b600191505092915050565b5f600254905090565b5f806103fd6106a3565b905061040a8582856106bc565b61041585858561074e565b60019150509392505050565b686c6b935b8bbd40000081565b5f6012905090565b60055f9054906101000a900473ffffffffffffffffffffffffffffffffffffffff1673ffffffffffffffffffffffffffffffffffffffff163373ffffffffffffffffffffffffffffffffffffffff16146104c5576040517f08c379a00000000000000000000000000000000000000000000000000000000081526004016104bc906116a0565b60405180910390fd5b6104cf828261083e565b5050565b6104dd33826108bd565b50565b5f805f8373ffffffffffffffffffffffffffffffffffffffff1673ffffffffffffffffffffffffffffffffffffffff1681526020019081526020015f20549050919050565b5f30905090565b60606004805461053b90611626565b80601f016020809104026020016040519081016040528092919081815260200182805461056790611626565b80156105b25780601f10610589576101008083540402835291602001916105b2565b820191905f5260205f20905b81548152906001019060200180831161059557829003601f168201915b5050505050905090565b5f806105c66106a3565b90506105d381858561074e565b600191505092915050565b5f6105e76106a3565b905090565b60606105f74261093c565b905090565b5f60015f8473ffffffffffffffffffffffffffffffffffffffff1673ffffffffffffffffffffffffffffffffffffffff1681526020019081526020015f205f8373ffffffffffffffffffffffffffffffffffffffff1673ffffffffffffffffffffffffffffffffffffffff1681526020019081526020015f2054905092915050565b60055f9054906101000a900473ffffffffffffffffffffffffffffffffffffffff1681565b5f33905090565b6106b783838360016109a8565b505050565b5f6106c784846105fc565b90507fffffffffffffffffffffffffffffffffffffffffffffffffffffffffffffffff81146107485781811015610739578281836040517ffb8f41b2000000000000000000000000000000000000000000000000000000008152600401610730939291906116be565b60405180910390fd5b61074784848484035f6109a8565b5b50505050565b5f73ffffffffffffffffffffffffffffffffffffffff168373ffffffffffffffffffffffffffffffffffffffff16036107be575f6040517f96c6fd1e0000000000000000000000000000000000000000000000000000000081526004016107b591906115a2565b60405180910390fd5b5f73ffffffffffffffffffffffffffffffffffffffff168273ffffffffffffffffffffffffffffffffffffffff160361082e575f6040517fec442f0500000000000000000000000000000000000000000000000000000000815260040161082591906115a2565b60405180910390fd5b610839838383610b77565b505050565b5f73ffffffffffffffffffffffffffffffffffffffff168273ffffffffffffffffffffffffffffffffffffffff16036108ae575f6040517fec442f050000000000000000000000000000000000000000000000000000000081526004016108a591906115a2565b60405180910390fd5b6108b95f8383610b77565b5050565b5f73ffffffffffffffffffffffffffffffffffffffff168273ffffffffffffffffffffffffffffffffffffffff160361092d575f6040517f96c6fd1e00000000000000000000000000000000000000000000000000000000815260040161092491906115a2565b60405180910390fd5b610938825f83610b77565b5050565b60605f61095061094b84610d90565b610e0f565b90505f61096461095f85610f67565b610e0f565b90505f61097861097386611289565b610e0f565b905082828260405160200161098f93929190611777565b6040516020818303038152906040529350505050919050565b5f73ffffffffffffffffffffffffffffffffffffffff168473ffffffffffffffffffffffffffffffffffffffff1603610a18575f6040517fe602df05000000000000000000000000000000000000000000000000000000008152600401610a0f91906115a2565b60405180910390fd5b5f73ffffffffffffffffffffffffffffffffffffffff168373ffffffffffffffffffffffffffffffffffffffff1603610a88575f6040517f94280d62000000000000000000000000000000000000000000000000000000008152600401610a7f91906115a2565b60405180910390fd5b8160015f8673ffffffffffffffffffffffffffffffffffffffff1673ffffffffffffffffffffffffffffffffffffffff1681526020019081526020015f205f8573ffffffffffffffffffffffffffffffffffffffff1673ffffffffffffffffffffffffffffffffffffffff1681526020019081526020015f20819055508015610b71578273ffffffffffffffffffffffffffffffffffffffff168473ffffffffffffffffffffffffffffffffffffffff167f8c5be1e5ebec7d5bd14f71427d1e84f3dd0314c0f7b2291e5b200ac8c7c3b92584604051610b6891906114a0565b60405180910390a35b50505050565b5f73ffffffffffffffffffffffffffffffffffffffff168373ffffffffffffffffffffffffffffffffffffffff1603610bc7578060025f828254610bbb91906117ea565b92505081905550610c95565b5f805f8573ffffffffffffffffffffffffffffffffffffffff1673ffffffffffffffffffffffffffffffffffffffff1681526020019081526020015f2054905081811015610c50578381836040517fe450d38c000000000000000000000000000000000000000000000000000000008152600401610c47939291906116be565b60405180910390fd5b8181035f808673ffffffffffffffffffffffffffffffffffffffff1673ffffffffffffffffffffffffffffffffffffffff1681526020019081526020015f2081905550505b5f73ffffffffffffffffffffffffffffffffffffffff168273ffffffffffffffffffffffffffffffffffffffff1603610cdc578060025f8282540392505081905550610d26565b805f808473ffffffffffffffffffffffffffffffffffffffff1673ffffffffffffffffffffffffffffffffffffffff1681526020019081526020015f205f82825401925050819055505b8173ffffffffffffffffffffffffffffffffffffffff168373ffffffffffffffffffffffffffffffffffffffff167fddf252ad1be2c89b69c2b068fc378daa952ba7f163c4a11628f55a4df523b3ef83604051610d8391906114a0565b60405180910390a3505050565b5f80610d9b83611289565b90505f80600483610dac919061184a565b14610db95761016d610dbd565b61016e5b61ffff1690505f6201518085610dd3919061187a565b9050600c826107b285610de691906118aa565b610df091906118dd565b82610dfb91906118aa565b610e0591906118aa565b9350505050919050565b60605f8203610e55576040518060400160405280600181526020017f30000000000000000000000000000000000000000000000000000000000000008152509050610f62565b5f8290505f5b5f8214610e84578080610e6d9061191e565b915050600a82610e7d919061187a565b9150610e5b565b5f8167ffffffffffffffff811115610e9f57610e9e611965565b5b6040519080825280601f01601f191660200182016040528015610ed15781602001600182028036833780820191505090505b5090505b5f8514610f5b578180610ee790611992565b925050600a85610ef7919061184a565b6030610f0391906117ea565b60f81b818381518110610f1957610f186119b9565b5b60200101907effffffffffffffffffffffffffffffffffffffffffffffffffffffffffffff191690815f1a905350600a85610f54919061187a565b9450610ed5565b8093505050505b919050565b5f80610f7283611289565b90505f80600483610f83919061184a565b14610f905761016d610f94565b61016e5b61ffff1690505f610fa485610d90565b9050601f8111610fba5760019350505050611284565b603b8111158015610fcc575061016d82145b15610fdd5760029350505050611284565b603c8111158015610fef575061016e82145b156110005760029350505050611284565b605a8111158015611012575061016d82145b156110235760039350505050611284565b605b8111158015611035575061016e82145b156110465760039350505050611284565b60788111158015611058575061016d82145b156110695760049350505050611284565b6079811115801561107b575061016e82145b1561108c5760049350505050611284565b6097811115801561109e575061016d82145b156110af5760059350505050611284565b609881111580156110c1575061016e82145b156110d25760059350505050611284565b60b581111580156110e4575061016d82145b156110f55760069350505050611284565b60b68111158015611107575061016e82145b156111185760069350505050611284565b60d4811115801561112a575061016d82145b1561113b5760079350505050611284565b60d5811115801561114d575061016e82145b1561115e5760079350505050611284565b60f38111158015611170575061016d82145b156111815760089350505050611284565b60f48111158015611193575061016e82145b156111a45760089350505050611284565b61011181111580156111b7575061016d82145b156111c85760099350505050611284565b61011281111580156111db575061016e82145b156111ec5760099350505050611284565b61013081111580156111ff575061016d82145b1561121057600a9350505050611284565b6101318111158015611223575061016e82145b1561123457600a9350505050611284565b61014e8111158015611247575061016d82145b1561125857600b9350505050611284565b61014f811115801561126b575061016e82145b1561127c57600b9350505050611284565b600c93505050505b919050565b5f80600483611298919061187a565b90506107b36301e28500826112ad919061187a565b6301e133808360036112bf91906118dd565b6112c9919061187a565b6112d391906117ea565b6112dd91906117ea565b915050919050565b5f81519050919050565b5f82825260208201905092915050565b5f5b8381101561131c578082015181840152602081019050611301565b5f8484015250505050565b5f601f19601f8301169050919050565b5f611341826112e5565b61134b81856112ef565b935061135b8185602086016112ff565b61136481611327565b840191505092915050565b5f6020820190508181035f8301526113878184611337565b905092915050565b5f80fd5b5f73ffffffffffffffffffffffffffffffffffffffff82169050919050565b5f6113bc82611393565b9050919050565b6113cc816113b2565b81146113d6575f80fd5b50565b5f813590506113e7816113c3565b92915050565b5f819050919050565b6113ff816113ed565b8114611409575f80fd5b50565b5f8135905061141a816113f6565b92915050565b5f80604083850312156114365761143561138f565b5b5f611443858286016113d9565b92505060206114548582860161140c565b9150509250929050565b5f8115159050919050565b6114728161145e565b82525050565b5f60208201905061148b5f830184611469565b92915050565b61149a816113ed565b82525050565b5f6020820190506114b35f830184611491565b92915050565b5f805f606084860312156114d0576114cf61138f565b5b5f6114dd868287016113d9565b93505060206114ee868287016113d9565b92505060406114ff8682870161140c565b9150509250925092565b5f60ff82169050919050565b61151e81611509565b82525050565b5f6020820190506115375f830184611515565b92915050565b5f602082840312156115525761155161138f565b5b5f61155f8482850161140c565b91505092915050565b5f6020828403121561157d5761157c61138f565b5b5f61158a848285016113d9565b91505092915050565b61159c816113b2565b82525050565b5f6020820190506115b55f830184611593565b92915050565b5f80604083850312156115d1576115d061138f565b5b5f6115de858286016113d9565b92505060206115ef858286016113d9565b9150509250929050565b7f4e487b71000000000000000000000000000000000000000000000000000000005f52602260045260245ffd5b5f600282049050600182168061163d57607f821691505b6020821081036116505761164f6115f9565b5b50919050565b7f4f6e6c792061646d696e000000000000000000000000000000000000000000005f82015250565b5f61168a600a836112ef565b915061169582611656565b602082019050919050565b5f6020820190508181035f8301526116b78161167e565b9050919050565b5f6060820190506116d15f830186611593565b6116de6020830185611491565b6116eb6040830184611491565b949350505050565b5f81905092915050565b5f611707826112e5565b61171181856116f3565b93506117218185602086016112ff565b80840191505092915050565b7f2f000000000000000000000000000000000000000000000000000000000000005f82015250565b5f6117616001836116f3565b915061176c8261172d565b600182019050919050565b5f61178282866116fd565b915061178d82611755565b915061179982856116fd565b91506117a482611755565b91506117b082846116fd565b9150819050949350505050565b7f4e487b71000000000000000000000000000000000000000000000000000000005f52601160045260245ffd5b5f6117f4826113ed565b91506117ff836113ed565b9250828201905080821115611817576118166117bd565b5b92915050565b7f4e487b71000000000000000000000000000000000000000000000000000000005f52601260045260245ffd5b5f611854826113ed565b915061185f836113ed565b92508261186f5761186e61181d565b5b828206905092915050565b5f611884826113ed565b915061188f836113ed565b92508261189f5761189e61181d565b5b828204905092915050565b5f6118b4826113ed565b91506118bf836113ed565b92508282039050818111156118d7576118d66117bd565b5b92915050565b5f6118e7826113ed565b91506118f2836113ed565b9250828202611900816113ed565b91508282048414831517611917576119166117bd565b5b5092915050565b5f611928826113ed565b91507fffffffffffffffffffffffffffffffffffffffffffffffffffffffffffffffff820361195a576119596117bd565b5b600182019050919050565b7f4e487b71000000000000000000000000000000000000000000000000000000005f52604160045260245ffd5b5f61199c826113ed565b91505f82036119ae576119ad6117bd565b5b600182039050919050565b7f4e487b71000000000000000000000000000000000000000000000000000000005f52603260045260245ffdfea2646970667358221220e7f44014c7bf6b65f3fe1f67c6fdbb8a39e0fbae7d82fa872a9c27281f40c0d464736f6c63430008160033",
					"opcodes": "PUSH1 0x80 PUSH1 0x40 MSTORE CALLVALUE DUP1 ISZERO PUSH3 0x10 JUMPI PUSH0 DUP1 REVERT JUMPDEST POP PUSH1 0x40 MLOAD DUP1 PUSH1 0x40 ADD PUSH1 0x40 MSTORE DUP1 PUSH1 0xC DUP2 MSTORE PUSH1 0x20 ADD PUSH32 0x414954555F4D41475A48414E0000000000000000000000000000000000000000 DUP2 MSTORE POP PUSH1 0x40 MLOAD DUP1 PUSH1 0x40 ADD PUSH1 0x40 MSTORE DUP1 PUSH1 0x3 DUP2 MSTORE PUSH1 0x20 ADD PUSH32 0x4D474E0000000000000000000000000000000000000000000000000000000000 DUP2 MSTORE POP DUP2 PUSH1 0x3 SWAP1 DUP2 PUSH3 0x8E SWAP2 SWAP1 PUSH3 0x616 JUMP JUMPDEST POP DUP1 PUSH1 0x4 SWAP1 DUP2 PUSH3 0xA0 SWAP2 SWAP1 PUSH3 0x616 JUMP JUMPDEST POP POP POP PUSH3 0xBE CALLER PUSH9 0x6C6B935B8BBD400000 PUSH3 0x104 PUSH1 0x20 SHL PUSH1 0x20 SHR JUMP JUMPDEST CALLER PUSH1 0x5 PUSH0 PUSH2 0x100 EXP DUP2 SLOAD DUP2 PUSH20 0xFFFFFFFFFFFFFFFFFFFFFFFFFFFFFFFFFFFFFFFF MUL NOT AND SWAP1 DUP4 PUSH20 0xFFFFFFFFFFFFFFFFFFFFFFFFFFFFFFFFFFFFFFFF AND MUL OR SWAP1 SSTORE POP PUSH3 0x826 JUMP JUMPDEST PUSH0 PUSH20 0xFFFFFFFFFFFFFFFFFFFFFFFFFFFFFFFFFFFFFFFF AND DUP3 PUSH20 0xFFFFFFFFFFFFFFFFFFFFFFFFFFFFFFFFFFFFFFFF AND SUB PUSH3 0x177 JUMPI PUSH0 PUSH1 0x40 MLOAD PUSH32 0xEC442F0500000000000000000000000000000000000000000000000000000000 DUP2 MSTORE PUSH1 0x4 ADD PUSH3 0x16E SWAP2 SWAP1 PUSH3 0x73D JUMP JUMPDEST PUSH1 0x40 MLOAD DUP1 SWAP2 SUB SWAP1 REVERT JUMPDEST PUSH3 0x18A PUSH0 DUP4 DUP4 PUSH3 0x18E PUSH1 0x20 SHL PUSH1 0x20 SHR JUMP JUMPDEST POP POP JUMP JUMPDEST PUSH0 PUSH20 0xFFFFFFFFFFFFFFFFFFFFFFFFFFFFFFFFFFFFFFFF AND DUP4 PUSH20 0xFFFFFFFFFFFFFFFFFFFFFFFFFFFFFFFFFFFFFFFF AND SUB PUSH3 0x1E2 JUMPI DUP1 PUSH1 0x2 PUSH0 DUP3 DUP3 SLOAD PUSH3 0x1D5 SWAP2 SWAP1 PUSH3 0x785 JUMP JUMPDEST SWAP3 POP POP DUP2 SWAP1 SSTORE POP PUSH3 0x2B3 JUMP JUMPDEST PUSH0 DUP1 PUSH0 DUP6 PUSH20 0xFFFFFFFFFFFFFFFFFFFFFFFFFFFFFFFFFFFFFFFF AND PUSH20 0xFFFFFFFFFFFFFFFFFFFFFFFFFFFFFFFFFFFFFFFF AND DUP2 MSTORE PUSH1 0x20 ADD SWAP1 DUP2 MSTORE PUSH1 0x20 ADD PUSH0 KECCAK256 SLOAD SWAP1 POP DUP2 DUP2 LT ISZERO PUSH3 0x26E JUMPI DUP4 DUP2 DUP4 PUSH1 0x40 MLOAD PUSH32 0xE450D38C00000000000000000000000000000000000000000000000000000000 DUP2 MSTORE PUSH1 0x4 ADD PUSH3 0x265 SWAP4 SWAP3 SWAP2 SWAP1 PUSH3 0x7D0 JUMP JUMPDEST PUSH1 0x40 MLOAD DUP1 SWAP2 SUB SWAP1 REVERT JUMPDEST DUP2 DUP2 SUB PUSH0 DUP1 DUP7 PUSH20 0xFFFFFFFFFFFFFFFFFFFFFFFFFFFFFFFFFFFFFFFF AND PUSH20 0xFFFFFFFFFFFFFFFFFFFFFFFFFFFFFFFFFFFFFFFF AND DUP2 MSTORE PUSH1 0x20 ADD SWAP1 DUP2 MSTORE PUSH1 0x20 ADD PUSH0 KECCAK256 DUP2 SWAP1 SSTORE POP POP JUMPDEST PUSH0 PUSH20 0xFFFFFFFFFFFFFFFFFFFFFFFFFFFFFFFFFFFFFFFF AND DUP3 PUSH20 0xFFFFFFFFFFFFFFFFFFFFFFFFFFFFFFFFFFFFFFFF AND SUB PUSH3 0x2FC JUMPI DUP1 PUSH1 0x2 PUSH0 DUP3 DUP3 SLOAD SUB SWAP3 POP POP DUP2 SWAP1 SSTORE POP PUSH3 0x346 JUMP JUMPDEST DUP1 PUSH0 DUP1 DUP5 PUSH20 0xFFFFFFFFFFFFFFFFFFFFFFFFFFFFFFFFFFFFFFFF AND PUSH20 0xFFFFFFFFFFFFFFFFFFFFFFFFFFFFFFFFFFFFFFFF AND DUP2 MSTORE PUSH1 0x20 ADD SWAP1 DUP2 MSTORE PUSH1 0x20 ADD PUSH0 KECCAK256 PUSH0 DUP3 DUP3 SLOAD ADD SWAP3 POP POP DUP2 SWAP1 SSTORE POP JUMPDEST DUP2 PUSH20 0xFFFFFFFFFFFFFFFFFFFFFFFFFFFFFFFFFFFFFFFF AND DUP4 PUSH20 0xFFFFFFFFFFFFFFFFFFFFFFFFFFFFFFFFFFFFFFFF AND PUSH32 0xDDF252AD1BE2C89B69C2B068FC378DAA952BA7F163C4A11628F55A4DF523B3EF DUP4 PUSH1 0x40 MLOAD PUSH3 0x3A5 SWAP2 SWAP1 PUSH3 0x80B JUMP JUMPDEST PUSH1 0x40 MLOAD DUP1 SWAP2 SUB SWAP1 LOG3 POP POP POP JUMP JUMPDEST PUSH0 DUP2 MLOAD SWAP1 POP SWAP2 SWAP1 POP JUMP JUMPDEST PUSH32 0x4E487B7100000000000000000000000000000000000000000000000000000000 PUSH0 MSTORE PUSH1 0x41 PUSH1 0x4 MSTORE PUSH1 0x24 PUSH0 REVERT JUMPDEST PUSH32 0x4E487B7100000000000000000000000000000000000000000000000000000000 PUSH0 MSTORE PUSH1 0x22 PUSH1 0x4 MSTORE PUSH1 0x24 PUSH0 REVERT JUMPDEST PUSH0 PUSH1 0x2 DUP3 DIV SWAP1 POP PUSH1 0x1 DUP3 AND DUP1 PUSH3 0x42E JUMPI PUSH1 0x7F DUP3 AND SWAP2 POP JUMPDEST PUSH1 0x20 DUP3 LT DUP2 SUB PUSH3 0x444 JUMPI PUSH3 0x443 PUSH3 0x3E9 JUMP JUMPDEST JUMPDEST POP SWAP2 SWAP1 POP JUMP JUMPDEST PUSH0 DUP2 SWAP1 POP DUP2 PUSH0 MSTORE PUSH1 0x20 PUSH0 KECCAK256 SWAP1 POP SWAP2 SWAP1 POP JUMP JUMPDEST PUSH0 PUSH1 0x20 PUSH1 0x1F DUP4 ADD DIV SWAP1 POP SWAP2 SWAP1 POP JUMP JUMPDEST PUSH0 DUP3 DUP3 SHL SWAP1 POP SWAP3 SWAP2 POP POP JUMP JUMPDEST PUSH0 PUSH1 0x8 DUP4 MUL PUSH3 0x4A8 PUSH32 0xFFFFFFFFFFFFFFFFFFFFFFFFFFFFFFFFFFFFFFFFFFFFFFFFFFFFFFFFFFFFFFFF DUP3 PUSH3 0x46B JUMP JUMPDEST PUSH3 0x4B4 DUP7 DUP4 PUSH3 0x46B JUMP JUMPDEST SWAP6 POP DUP1 NOT DUP5 AND SWAP4 POP DUP1 DUP7 AND DUP5 OR SWAP3 POP POP POP SWAP4 SWAP3 POP POP POP JUMP JUMPDEST PUSH0 DUP2 SWAP1 POP SWAP2 SWAP1 POP JUMP JUMPDEST PUSH0 DUP2 SWAP1 POP SWAP2 SWAP1 POP JUMP JUMPDEST PUSH0 PUSH3 0x4FE PUSH3 0x4F8 PUSH3 0x4F2 DUP5 PUSH3 0x4CC JUMP JUMPDEST PUSH3 0x4D5 JUMP JUMPDEST PUSH3 0x4CC JUMP JUMPDEST SWAP1 POP SWAP2 SWAP1 POP JUMP JUMPDEST PUSH0 DUP2 SWAP1 POP SWAP2 SWAP1 POP JUMP JUMPDEST PUSH3 0x519 DUP4 PUSH3 0x4DE JUMP JUMPDEST PUSH3 0x531 PUSH3 0x528 DUP3 PUSH3 0x505 JUMP JUMPDEST DUP5 DUP5 SLOAD PUSH3 0x477 JUMP JUMPDEST DUP3 SSTORE POP POP POP POP JUMP JUMPDEST PUSH0 SWAP1 JUMP JUMPDEST PUSH3 0x547 PUSH3 0x539 JUMP JUMPDEST PUSH3 0x554 DUP2 DUP5 DUP5 PUSH3 0x50E JUMP JUMPDEST POP POP POP JUMP JUMPDEST JUMPDEST DUP2 DUP2 LT ISZERO PUSH3 0x57B JUMPI PUSH3 0x56F PUSH0 DUP3 PUSH3 0x53D JUMP JUMPDEST PUSH1 0x1 DUP2 ADD SWAP1 POP PUSH3 0x55A JUMP JUMPDEST POP POP JUMP JUMPDEST PUSH1 0x1F DUP3 GT ISZERO PUSH3 0x5CA JUMPI PUSH3 0x594 DUP2 PUSH3 0x44A JUMP JUMPDEST PUSH3 0x59F DUP5 PUSH3 0x45C JUMP JUMPDEST DUP2 ADD PUSH1 0x20 DUP6 LT ISZERO PUSH3 0x5AF JUMPI DUP2 SWAP1 POP JUMPDEST PUSH3 0x5C7 PUSH3 0x5BE DUP6 PUSH3 0x45C JUMP JUMPDEST DUP4 ADD DUP3 PUSH3 0x559 JUMP JUMPDEST POP POP JUMPDEST POP POP POP JUMP JUMPDEST PUSH0 DUP3 DUP3 SHR SWAP1 POP SWAP3 SWAP2 POP POP JUMP JUMPDEST PUSH0 PUSH3 0x5EC PUSH0 NOT DUP5 PUSH1 0x8 MUL PUSH3 0x5CF JUMP JUMPDEST NOT DUP1 DUP4 AND SWAP2 POP POP SWAP3 SWAP2 POP POP JUMP JUMPDEST PUSH0 PUSH3 0x606 DUP4 DUP4 PUSH3 0x5DB JUMP JUMPDEST SWAP2 POP DUP3 PUSH1 0x2 MUL DUP3 OR SWAP1 POP SWAP3 SWAP2 POP POP JUMP JUMPDEST PUSH3 0x621 DUP3 PUSH3 0x3B2 JUMP JUMPDEST PUSH8 0xFFFFFFFFFFFFFFFF DUP2 GT ISZERO PUSH3 0x63D JUMPI PUSH3 0x63C PUSH3 0x3BC JUMP JUMPDEST JUMPDEST PUSH3 0x649 DUP3 SLOAD PUSH3 0x416 JUMP JUMPDEST PUSH3 0x656 DUP3 DUP3 DUP6 PUSH3 0x57F JUMP JUMPDEST PUSH0 PUSH1 0x20 SWAP1 POP PUSH1 0x1F DUP4 GT PUSH1 0x1 DUP2 EQ PUSH3 0x68C JUMPI PUSH0 DUP5 ISZERO PUSH3 0x677 JUMPI DUP3 DUP8 ADD MLOAD SWAP1 POP JUMPDEST PUSH3 0x683 DUP6 DUP3 PUSH3 0x5F9 JUMP JUMPDEST DUP7 SSTORE POP PUSH3 0x6F2 JUMP JUMPDEST PUSH1 0x1F NOT DUP5 AND PUSH3 0x69C DUP7 PUSH3 0x44A JUMP JUMPDEST PUSH0 JUMPDEST DUP3 DUP2 LT ISZERO PUSH3 0x6C5 JUMPI DUP5 DUP10 ADD MLOAD DUP3 SSTORE PUSH1 0x1 DUP3 ADD SWAP2 POP PUSH1 0x20 DUP6 ADD SWAP5 POP PUSH1 0x20 DUP2 ADD SWAP1 POP PUSH3 0x69E JUMP JUMPDEST DUP7 DUP4 LT ISZERO PUSH3 0x6E5 JUMPI DUP5 DUP10 ADD MLOAD PUSH3 0x6E1 PUSH1 0x1F DUP10 AND DUP3 PUSH3 0x5DB JUMP JUMPDEST DUP4 SSTORE POP JUMPDEST PUSH1 0x1 PUSH1 0x2 DUP9 MUL ADD DUP9 SSTORE POP POP POP JUMPDEST POP POP POP POP POP POP JUMP JUMPDEST PUSH0 PUSH20 0xFFFFFFFFFFFFFFFFFFFFFFFFFFFFFFFFFFFFFFFF DUP3 AND SWAP1 POP SWAP2 SWAP1 POP JUMP JUMPDEST PUSH0 PUSH3 0x725 DUP3 PUSH3 0x6FA JUMP JUMPDEST SWAP1 POP SWAP2 SWAP1 POP JUMP JUMPDEST PUSH3 0x737 DUP2 PUSH3 0x719 JUMP JUMPDEST DUP3 MSTORE POP POP JUMP JUMPDEST PUSH0 PUSH1 0x20 DUP3 ADD SWAP1 POP PUSH3 0x752 PUSH0 DUP4 ADD DUP5 PUSH3 0x72C JUMP JUMPDEST SWAP3 SWAP2 POP POP JUMP JUMPDEST PUSH32 0x4E487B7100000000000000000000000000000000000000000000000000000000 PUSH0 MSTORE PUSH1 0x11 PUSH1 0x4 MSTORE PUSH1 0x24 PUSH0 REVERT JUMPDEST PUSH0 PUSH3 0x791 DUP3 PUSH3 0x4CC JUMP JUMPDEST SWAP2 POP PUSH3 0x79E DUP4 PUSH3 0x4CC JUMP JUMPDEST SWAP3 POP DUP3 DUP3 ADD SWAP1 POP DUP1 DUP3 GT ISZERO PUSH3 0x7B9 JUMPI PUSH3 0x7B8 PUSH3 0x758 JUMP JUMPDEST JUMPDEST SWAP3 SWAP2 POP POP JUMP JUMPDEST PUSH3 0x7CA DUP2 PUSH3 0x4CC JUMP JUMPDEST DUP3 MSTORE POP POP JUMP JUMPDEST PUSH0 PUSH1 0x60 DUP3 ADD SWAP1 POP PUSH3 0x7E5 PUSH0 DUP4 ADD DUP7 PUSH3 0x72C JUMP JUMPDEST PUSH3 0x7F4 PUSH1 0x20 DUP4 ADD DUP6 PUSH3 0x7BF JUMP JUMPDEST PUSH3 0x803 PUSH1 0x40 DUP4 ADD DUP5 PUSH3 0x7BF JUMP JUMPDEST SWAP5 SWAP4 POP POP POP POP JUMP JUMPDEST PUSH0 PUSH1 0x20 DUP3 ADD SWAP1 POP PUSH3 0x820 PUSH0 DUP4 ADD DUP5 PUSH3 0x7BF JUMP JUMPDEST SWAP3 SWAP2 POP POP JUMP JUMPDEST PUSH2 0x1A1C DUP1 PUSH3 0x834 PUSH0 CODECOPY PUSH0 RETURN INVALID PUSH1 0x80 PUSH1 0x40 MSTORE CALLVALUE DUP1 ISZERO PUSH2 0xF JUMPI PUSH0 DUP1 REVERT JUMPDEST POP PUSH1 0x4 CALLDATASIZE LT PUSH2 0xFE JUMPI PUSH0 CALLDATALOAD PUSH1 0xE0 SHR DUP1 PUSH4 0x70A08231 GT PUSH2 0x95 JUMPI DUP1 PUSH4 0xBEAD3F50 GT PUSH2 0x64 JUMPI DUP1 PUSH4 0xBEAD3F50 EQ PUSH2 0x2AE JUMPI DUP1 PUSH4 0xD45E3F4A EQ PUSH2 0x2CC JUMPI DUP1 PUSH4 0xDD62ED3E EQ PUSH2 0x2EA JUMPI DUP1 PUSH4 0xF851A440 EQ PUSH2 0x31A JUMPI PUSH2 0xFE JUMP JUMPDEST DUP1 PUSH4 0x70A08231 EQ PUSH2 0x212 JUMPI DUP1 PUSH4 0x841B39FC EQ PUSH2 0x242 JUMPI DUP1 PUSH4 0x95D89B41 EQ PUSH2 0x260 JUMPI DUP1 PUSH4 0xA9059CBB EQ PUSH2 0x27E JUMPI PUSH2 0xFE JUMP JUMPDEST DUP1 PUSH4 0x2FF2E9DC GT PUSH2 0xD1 JUMPI DUP1 PUSH4 0x2FF2E9DC EQ PUSH2 0x19E JUMPI DUP1 PUSH4 0x313CE567 EQ PUSH2 0x1BC JUMPI DUP1 PUSH4 0x40C10F19 EQ PUSH2 0x1DA JUMPI DUP1 PUSH4 0x42966C68 EQ PUSH2 0x1F6 JUMPI PUSH2 0xFE JUMP JUMPDEST DUP1 PUSH4 0x6FDDE03 EQ PUSH2 0x102 JUMPI DUP1 PUSH4 0x95EA7B3 EQ PUSH2 0x120 JUMPI DUP1 PUSH4 0x18160DDD EQ PUSH2 0x150 JUMPI DUP1 PUSH4 0x23B872DD EQ PUSH2 0x16E JUMPI JUMPDEST PUSH0 DUP1 REVERT JUMPDEST PUSH2 0x10A PUSH2 0x338 JUMP JUMPDEST PUSH1 0x40 MLOAD PUSH2 0x117 SWAP2 SWAP1 PUSH2 0x136F JUMP JUMPDEST PUSH1 0x40 MLOAD DUP1 SWAP2 SUB SWAP1 RETURN JUMPDEST PUSH2 0x13A PUSH1 0x4 DUP1 CALLDATASIZE SUB DUP2 ADD SWAP1 PUSH2 0x135 SWAP2 SWAP1 PUSH2 0x1420 JUMP JUMPDEST PUSH2 0x3C8 JUMP JUMPDEST PUSH1 0x40 MLOAD PUSH2 0x147 SWAP2 SWAP1 PUSH2 0x1478 JUMP JUMPDEST PUSH1 0x40 MLOAD DUP1 SWAP2 SUB SWAP1 RETURN JUMPDEST PUSH2 0x158 PUSH2 0x3EA JUMP JUMPDEST PUSH1 0x40 MLOAD PUSH2 0x165 SWAP2 SWAP1 PUSH2 0x14A0 JUMP JUMPDEST PUSH1 0x40 MLOAD DUP1 SWAP2 SUB SWAP1 RETURN JUMPDEST PUSH2 0x188 PUSH1 0x4 DUP1 CALLDATASIZE SUB DUP2 ADD SWAP1 PUSH2 0x183 SWAP2 SWAP1 PUSH2 0x14B9 JUMP JUMPDEST PUSH2 0x3F3 JUMP JUMPDEST PUSH1 0x40 MLOAD PUSH2 0x195 SWAP2 SWAP1 PUSH2 0x1478 JUMP JUMPDEST PUSH1 0x40 MLOAD DUP1 SWAP2 SUB SWAP1 RETURN JUMPDEST PUSH2 0x1A6 PUSH2 0x421 JUMP JUMPDEST PUSH1 0x40 MLOAD PUSH2 0x1B3 SWAP2 SWAP1 PUSH2 0x14A0 JUMP JUMPDEST PUSH1 0x40 MLOAD DUP1 SWAP2 SUB SWAP1 RETURN JUMPDEST PUSH2 0x1C4 PUSH2 0x42E JUMP JUMPDEST PUSH1 0x40 MLOAD PUSH2 0x1D1 SWAP2 SWAP1 PUSH2 0x1524 JUMP JUMPDEST PUSH1 0x40 MLOAD DUP1 SWAP2 SUB SWAP1 RETURN JUMPDEST PUSH2 0x1F4 PUSH1 0x4 DUP1 CALLDATASIZE SUB DUP2 ADD SWAP1 PUSH2 0x1EF SWAP2 SWAP1 PUSH2 0x1420 JUMP JUMPDEST PUSH2 0x436 JUMP JUMPDEST STOP JUMPDEST PUSH2 0x210 PUSH1 0x4 DUP1 CALLDATASIZE SUB DUP2 ADD SWAP1 PUSH2 0x20B SWAP2 SWAP1 PUSH2 0x153D JUMP JUMPDEST PUSH2 0x4D3 JUMP JUMPDEST STOP JUMPDEST PUSH2 0x22C PUSH1 0x4 DUP1 CALLDATASIZE SUB DUP2 ADD SWAP1 PUSH2 0x227 SWAP2 SWAP1 PUSH2 0x1568 JUMP JUMPDEST PUSH2 0x4E0 JUMP JUMPDEST PUSH1 0x40 MLOAD PUSH2 0x239 SWAP2 SWAP1 PUSH2 0x14A0 JUMP JUMPDEST PUSH1 0x40 MLOAD DUP1 SWAP2 SUB SWAP1 RETURN JUMPDEST PUSH2 0x24A PUSH2 0x525 JUMP JUMPDEST PUSH1 0x40 MLOAD PUSH2 0x257 SWAP2 SWAP1 PUSH2 0x15A2 JUMP JUMPDEST PUSH1 0x40 MLOAD DUP1 SWAP2 SUB SWAP1 RETURN JUMPDEST PUSH2 0x268 PUSH2 0x52C JUMP JUMPDEST PUSH1 0x40 MLOAD PUSH2 0x275 SWAP2 SWAP1 PUSH2 0x136F JUMP JUMPDEST PUSH1 0x40 MLOAD DUP1 SWAP2 SUB SWAP1 RETURN JUMPDEST PUSH2 0x298 PUSH1 0x4 DUP1 CALLDATASIZE SUB DUP2 ADD SWAP1 PUSH2 0x293 SWAP2 SWAP1 PUSH2 0x1420 JUMP JUMPDEST PUSH2 0x5BC JUMP JUMPDEST PUSH1 0x40 MLOAD PUSH2 0x2A5 SWAP2 SWAP1 PUSH2 0x1478 JUMP JUMPDEST PUSH1 0x40 MLOAD DUP1 SWAP2 SUB SWAP1 RETURN JUMPDEST PUSH2 0x2B6 PUSH2 0x5DE JUMP JUMPDEST PUSH1 0x40 MLOAD PUSH2 0x2C3 SWAP2 SWAP1 PUSH2 0x15A2 JUMP JUMPDEST PUSH1 0x40 MLOAD DUP1 SWAP2 SUB SWAP1 RETURN JUMPDEST PUSH2 0x2D4 PUSH2 0x5EC JUMP JUMPDEST PUSH1 0x40 MLOAD PUSH2 0x2E1 SWAP2 SWAP1 PUSH2 0x136F JUMP JUMPDEST PUSH1 0x40 MLOAD DUP1 SWAP2 SUB SWAP1 RETURN JUMPDEST PUSH2 0x304 PUSH1 0x4 DUP1 CALLDATASIZE SUB DUP2 ADD SWAP1 PUSH2 0x2FF SWAP2 SWAP1 PUSH2 0x15BB JUMP JUMPDEST PUSH2 0x5FC JUMP JUMPDEST PUSH1 0x40 MLOAD PUSH2 0x311 SWAP2 SWAP1 PUSH2 0x14A0 JUMP JUMPDEST PUSH1 0x40 MLOAD DUP1 SWAP2 SUB SWAP1 RETURN JUMPDEST PUSH2 0x322 PUSH2 0x67E JUMP JUMPDEST PUSH1 0x40 MLOAD PUSH2 0x32F SWAP2 SWAP1 PUSH2 0x15A2 JUMP JUMPDEST PUSH1 0x40 MLOAD DUP1 SWAP2 SUB SWAP1 RETURN JUMPDEST PUSH1 0x60 PUSH1 0x3 DUP1 SLOAD PUSH2 0x347 SWAP1 PUSH2 0x1626 JUMP JUMPDEST DUP1 PUSH1 0x1F ADD PUSH1 0x20 DUP1 SWAP2 DIV MUL PUSH1 0x20 ADD PUSH1 0x40 MLOAD SWAP1 DUP2 ADD PUSH1 0x40 MSTORE DUP1 SWAP3 SWAP2 SWAP1 DUP2 DUP2 MSTORE PUSH1 0x20 ADD DUP3 DUP1 SLOAD PUSH2 0x373 SWAP1 PUSH2 0x1626 JUMP JUMPDEST DUP1 ISZERO PUSH2 0x3BE JUMPI DUP1 PUSH1 0x1F LT PUSH2 0x395 JUMPI PUSH2 0x100 DUP1 DUP4 SLOAD DIV MUL DUP4 MSTORE SWAP2 PUSH1 0x20 ADD SWAP2 PUSH2 0x3BE JUMP JUMPDEST DUP3 ADD SWAP2 SWAP1 PUSH0 MSTORE PUSH1 0x20 PUSH0 KECCAK256 SWAP1 JUMPDEST DUP2 SLOAD DUP2 MSTORE SWAP1 PUSH1 0x1 ADD SWAP1 PUSH1 0x20 ADD DUP1 DUP4 GT PUSH2 0x3A1 JUMPI DUP3 SWAP1 SUB PUSH1 0x1F AND DUP3 ADD SWAP2 JUMPDEST POP POP POP POP POP SWAP1 POP SWAP1 JUMP JUMPDEST PUSH0 DUP1 PUSH2 0x3D2 PUSH2 0x6A3 JUMP JUMPDEST SWAP1 POP PUSH2 0x3DF DUP2 DUP6 DUP6 PUSH2 0x6AA JUMP JUMPDEST PUSH1 0x1 SWAP2 POP POP SWAP3 SWAP2 POP POP JUMP JUMPDEST PUSH0 PUSH1 0x2 SLOAD SWAP1 POP SWAP1 JUMP JUMPDEST PUSH0 DUP1 PUSH2 0x3FD PUSH2 0x6A3 JUMP JUMPDEST SWAP1 POP PUSH2 0x40A DUP6 DUP3 DUP6 PUSH2 0x6BC JUMP JUMPDEST PUSH2 0x415 DUP6 DUP6 DUP6 PUSH2 0x74E JUMP JUMPDEST PUSH1 0x1 SWAP2 POP POP SWAP4 SWAP3 POP POP POP JUMP JUMPDEST PUSH9 0x6C6B935B8BBD400000 DUP2 JUMP JUMPDEST PUSH0 PUSH1 0x12 SWAP1 POP SWAP1 JUMP JUMPDEST PUSH1 0x5 PUSH0 SWAP1 SLOAD SWAP1 PUSH2 0x100 EXP SWAP1 DIV PUSH20 0xFFFFFFFFFFFFFFFFFFFFFFFFFFFFFFFFFFFFFFFF AND PUSH20 0xFFFFFFFFFFFFFFFFFFFFFFFFFFFFFFFFFFFFFFFF AND CALLER PUSH20 0xFFFFFFFFFFFFFFFFFFFFFFFFFFFFFFFFFFFFFFFF AND EQ PUSH2 0x4C5 JUMPI PUSH1 0x40 MLOAD PUSH32 0x8C379A000000000000000000000000000000000000000000000000000000000 DUP2 MSTORE PUSH1 0x4 ADD PUSH2 0x4BC SWAP1 PUSH2 0x16A0 JUMP JUMPDEST PUSH1 0x40 MLOAD DUP1 SWAP2 SUB SWAP1 REVERT JUMPDEST PUSH2 0x4CF DUP3 DUP3 PUSH2 0x83E JUMP JUMPDEST POP POP JUMP JUMPDEST PUSH2 0x4DD CALLER DUP3 PUSH2 0x8BD JUMP JUMPDEST POP JUMP JUMPDEST PUSH0 DUP1 PUSH0 DUP4 PUSH20 0xFFFFFFFFFFFFFFFFFFFFFFFFFFFFFFFFFFFFFFFF AND PUSH20 0xFFFFFFFFFFFFFFFFFFFFFFFFFFFFFFFFFFFFFFFF AND DUP2 MSTORE PUSH1 0x20 ADD SWAP1 DUP2 MSTORE PUSH1 0x20 ADD PUSH0 KECCAK256 SLOAD SWAP1 POP SWAP2 SWAP1 POP JUMP JUMPDEST PUSH0 ADDRESS SWAP1 POP SWAP1 JUMP JUMPDEST PUSH1 0x60 PUSH1 0x4 DUP1 SLOAD PUSH2 0x53B SWAP1 PUSH2 0x1626 JUMP JUMPDEST DUP1 PUSH1 0x1F ADD PUSH1 0x20 DUP1 SWAP2 DIV MUL PUSH1 0x20 ADD PUSH1 0x40 MLOAD SWAP1 DUP2 ADD PUSH1 0x40 MSTORE DUP1 SWAP3 SWAP2 SWAP1 DUP2 DUP2 MSTORE PUSH1 0x20 ADD DUP3 DUP1 SLOAD PUSH2 0x567 SWAP1 PUSH2 0x1626 JUMP JUMPDEST DUP1 ISZERO PUSH2 0x5B2 JUMPI DUP1 PUSH1 0x1F LT PUSH2 0x589 JUMPI PUSH2 0x100 DUP1 DUP4 SLOAD DIV MUL DUP4 MSTORE SWAP2 PUSH1 0x20 ADD SWAP2 PUSH2 0x5B2 JUMP JUMPDEST DUP3 ADD SWAP2 SWAP1 PUSH0 MSTORE PUSH1 0x20 PUSH0 KECCAK256 SWAP1 JUMPDEST DUP2 SLOAD DUP2 MSTORE SWAP1 PUSH1 0x1 ADD SWAP1 PUSH1 0x20 ADD DUP1 DUP4 GT PUSH2 0x595 JUMPI DUP3 SWAP1 SUB PUSH1 0x1F AND DUP3 ADD SWAP2 JUMPDEST POP POP POP POP POP SWAP1 POP SWAP1 JUMP JUMPDEST PUSH0 DUP1 PUSH2 0x5C6 PUSH2 0x6A3 JUMP JUMPDEST SWAP1 POP PUSH2 0x5D3 DUP2 DUP6 DUP6 PUSH2 0x74E JUMP JUMPDEST PUSH1 0x1 SWAP2 POP POP SWAP3 SWAP2 POP POP JUMP JUMPDEST PUSH0 PUSH2 0x5E7 PUSH2 0x6A3 JUMP JUMPDEST SWAP1 POP SWAP1 JUMP JUMPDEST PUSH1 0x60 PUSH2 0x5F7 TIMESTAMP PUSH2 0x93C JUMP JUMPDEST SWAP1 POP SWAP1 JUMP JUMPDEST PUSH0 PUSH1 0x1 PUSH0 DUP5 PUSH20 0xFFFFFFFFFFFFFFFFFFFFFFFFFFFFFFFFFFFFFFFF AND PUSH20 0xFFFFFFFFFFFFFFFFFFFFFFFFFFFFFFFFFFFFFFFF AND DUP2 MSTORE PUSH1 0x20 ADD SWAP1 DUP2 MSTORE PUSH1 0x20 ADD PUSH0 KECCAK256 PUSH0 DUP4 PUSH20 0xFFFFFFFFFFFFFFFFFFFFFFFFFFFFFFFFFFFFFFFF AND PUSH20 0xFFFFFFFFFFFFFFFFFFFFFFFFFFFFFFFFFFFFFFFF AND DUP2 MSTORE PUSH1 0x20 ADD SWAP1 DUP2 MSTORE PUSH1 0x20 ADD PUSH0 KECCAK256 SLOAD SWAP1 POP SWAP3 SWAP2 POP POP JUMP JUMPDEST PUSH1 0x5 PUSH0 SWAP1 SLOAD SWAP1 PUSH2 0x100 EXP SWAP1 DIV PUSH20 0xFFFFFFFFFFFFFFFFFFFFFFFFFFFFFFFFFFFFFFFF AND DUP2 JUMP JUMPDEST PUSH0 CALLER SWAP1 POP SWAP1 JUMP JUMPDEST PUSH2 0x6B7 DUP4 DUP4 DUP4 PUSH1 0x1 PUSH2 0x9A8 JUMP JUMPDEST POP POP POP JUMP JUMPDEST PUSH0 PUSH2 0x6C7 DUP5 DUP5 PUSH2 0x5FC JUMP JUMPDEST SWAP1 POP PUSH32 0xFFFFFFFFFFFFFFFFFFFFFFFFFFFFFFFFFFFFFFFFFFFFFFFFFFFFFFFFFFFFFFFF DUP2 EQ PUSH2 0x748 JUMPI DUP2 DUP2 LT ISZERO PUSH2 0x739 JUMPI DUP3 DUP2 DUP4 PUSH1 0x40 MLOAD PUSH32 0xFB8F41B200000000000000000000000000000000000000000000000000000000 DUP2 MSTORE PUSH1 0x4 ADD PUSH2 0x730 SWAP4 SWAP3 SWAP2 SWAP1 PUSH2 0x16BE JUMP JUMPDEST PUSH1 0x40 MLOAD DUP1 SWAP2 SUB SWAP1 REVERT JUMPDEST PUSH2 0x747 DUP5 DUP5 DUP5 DUP5 SUB PUSH0 PUSH2 0x9A8 JUMP JUMPDEST JUMPDEST POP POP POP POP JUMP JUMPDEST PUSH0 PUSH20 0xFFFFFFFFFFFFFFFFFFFFFFFFFFFFFFFFFFFFFFFF AND DUP4 PUSH20 0xFFFFFFFFFFFFFFFFFFFFFFFFFFFFFFFFFFFFFFFF AND SUB PUSH2 0x7BE JUMPI PUSH0 PUSH1 0x40 MLOAD PUSH32 0x96C6FD1E00000000000000000000000000000000000000000000000000000000 DUP2 MSTORE PUSH1 0x4 ADD PUSH2 0x7B5 SWAP2 SWAP1 PUSH2 0x15A2 JUMP JUMPDEST PUSH1 0x40 MLOAD DUP1 SWAP2 SUB SWAP1 REVERT JUMPDEST PUSH0 PUSH20 0xFFFFFFFFFFFFFFFFFFFFFFFFFFFFFFFFFFFFFFFF AND DUP3 PUSH20 0xFFFFFFFFFFFFFFFFFFFFFFFFFFFFFFFFFFFFFFFF AND SUB PUSH2 0x82E JUMPI PUSH0 PUSH1 0x40 MLOAD PUSH32 0xEC442F0500000000000000000000000000000000000000000000000000000000 DUP2 MSTORE PUSH1 0x4 ADD PUSH2 0x825 SWAP2 SWAP1 PUSH2 0x15A2 JUMP JUMPDEST PUSH1 0x40 MLOAD DUP1 SWAP2 SUB SWAP1 REVERT JUMPDEST PUSH2 0x839 DUP4 DUP4 DUP4 PUSH2 0xB77 JUMP JUMPDEST POP POP POP JUMP JUMPDEST PUSH0 PUSH20 0xFFFFFFFFFFFFFFFFFFFFFFFFFFFFFFFFFFFFFFFF AND DUP3 PUSH20 0xFFFFFFFFFFFFFFFFFFFFFFFFFFFFFFFFFFFFFFFF AND SUB PUSH2 0x8AE JUMPI PUSH0 PUSH1 0x40 MLOAD PUSH32 0xEC442F0500000000000000000000000000000000000000000000000000000000 DUP2 MSTORE PUSH1 0x4 ADD PUSH2 0x8A5 SWAP2 SWAP1 PUSH2 0x15A2 JUMP JUMPDEST PUSH1 0x40 MLOAD DUP1 SWAP2 SUB SWAP1 REVERT JUMPDEST PUSH2 0x8B9 PUSH0 DUP4 DUP4 PUSH2 0xB77 JUMP JUMPDEST POP POP JUMP JUMPDEST PUSH0 PUSH20 0xFFFFFFFFFFFFFFFFFFFFFFFFFFFFFFFFFFFFFFFF AND DUP3 PUSH20 0xFFFFFFFFFFFFFFFFFFFFFFFFFFFFFFFFFFFFFFFF AND SUB PUSH2 0x92D JUMPI PUSH0 PUSH1 0x40 MLOAD PUSH32 0x96C6FD1E00000000000000000000000000000000000000000000000000000000 DUP2 MSTORE PUSH1 0x4 ADD PUSH2 0x924 SWAP2 SWAP1 PUSH2 0x15A2 JUMP JUMPDEST PUSH1 0x40 MLOAD DUP1 SWAP2 SUB SWAP1 REVERT JUMPDEST PUSH2 0x938 DUP3 PUSH0 DUP4 PUSH2 0xB77 JUMP JUMPDEST POP POP JUMP JUMPDEST PUSH1 0x60 PUSH0 PUSH2 0x950 PUSH2 0x94B DUP5 PUSH2 0xD90 JUMP JUMPDEST PUSH2 0xE0F JUMP JUMPDEST SWAP1 POP PUSH0 PUSH2 0x964 PUSH2 0x95F DUP6 PUSH2 0xF67 JUMP JUMPDEST PUSH2 0xE0F JUMP JUMPDEST SWAP1 POP PUSH0 PUSH2 0x978 PUSH2 0x973 DUP7 PUSH2 0x1289 JUMP JUMPDEST PUSH2 0xE0F JUMP JUMPDEST SWAP1 POP DUP3 DUP3 DUP3 PUSH1 0x40 MLOAD PUSH1 0x20 ADD PUSH2 0x98F SWAP4 SWAP3 SWAP2 SWAP1 PUSH2 0x1777 JUMP JUMPDEST PUSH1 0x40 MLOAD PUSH1 0x20 DUP2 DUP4 SUB SUB DUP2 MSTORE SWAP1 PUSH1 0x40 MSTORE SWAP4 POP POP POP POP SWAP2 SWAP1 POP JUMP JUMPDEST PUSH0 PUSH20 0xFFFFFFFFFFFFFFFFFFFFFFFFFFFFFFFFFFFFFFFF AND DUP5 PUSH20 0xFFFFFFFFFFFFFFFFFFFFFFFFFFFFFFFFFFFFFFFF AND SUB PUSH2 0xA18 JUMPI PUSH0 PUSH1 0x40 MLOAD PUSH32 0xE602DF0500000000000000000000000000000000000000000000000000000000 DUP2 MSTORE PUSH1 0x4 ADD PUSH2 0xA0F SWAP2 SWAP1 PUSH2 0x15A2 JUMP JUMPDEST PUSH1 0x40 MLOAD DUP1 SWAP2 SUB SWAP1 REVERT JUMPDEST PUSH0 PUSH20 0xFFFFFFFFFFFFFFFFFFFFFFFFFFFFFFFFFFFFFFFF AND DUP4 PUSH20 0xFFFFFFFFFFFFFFFFFFFFFFFFFFFFFFFFFFFFFFFF AND SUB PUSH2 0xA88 JUMPI PUSH0 PUSH1 0x40 MLOAD PUSH32 0x94280D6200000000000000000000000000000000000000000000000000000000 DUP2 MSTORE PUSH1 0x4 ADD PUSH2 0xA7F SWAP2 SWAP1 PUSH2 0x15A2 JUMP JUMPDEST PUSH1 0x40 MLOAD DUP1 SWAP2 SUB SWAP1 REVERT JUMPDEST DUP2 PUSH1 0x1 PUSH0 DUP7 PUSH20 0xFFFFFFFFFFFFFFFFFFFFFFFFFFFFFFFFFFFFFFFF AND PUSH20 0xFFFFFFFFFFFFFFFFFFFFFFFFFFFFFFFFFFFFFFFF AND DUP2 MSTORE PUSH1 0x20 ADD SWAP1 DUP2 MSTORE PUSH1 0x20 ADD PUSH0 KECCAK256 PUSH0 DUP6 PUSH20 0xFFFFFFFFFFFFFFFFFFFFFFFFFFFFFFFFFFFFFFFF AND PUSH20 0xFFFFFFFFFFFFFFFFFFFFFFFFFFFFFFFFFFFFFFFF AND DUP2 MSTORE PUSH1 0x20 ADD SWAP1 DUP2 MSTORE PUSH1 0x20 ADD PUSH0 KECCAK256 DUP2 SWAP1 SSTORE POP DUP1 ISZERO PUSH2 0xB71 JUMPI DUP3 PUSH20 0xFFFFFFFFFFFFFFFFFFFFFFFFFFFFFFFFFFFFFFFF AND DUP5 PUSH20 0xFFFFFFFFFFFFFFFFFFFFFFFFFFFFFFFFFFFFFFFF AND PUSH32 0x8C5BE1E5EBEC7D5BD14F71427D1E84F3DD0314C0F7B2291E5B200AC8C7C3B925 DUP5 PUSH1 0x40 MLOAD PUSH2 0xB68 SWAP2 SWAP1 PUSH2 0x14A0 JUMP JUMPDEST PUSH1 0x40 MLOAD DUP1 SWAP2 SUB SWAP1 LOG3 JUMPDEST POP POP POP POP JUMP JUMPDEST PUSH0 PUSH20 0xFFFFFFFFFFFFFFFFFFFFFFFFFFFFFFFFFFFFFFFF AND DUP4 PUSH20 0xFFFFFFFFFFFFFFFFFFFFFFFFFFFFFFFFFFFFFFFF AND SUB PUSH2 0xBC7 JUMPI DUP1 PUSH1 0x2 PUSH0 DUP3 DUP3 SLOAD PUSH2 0xBBB SWAP2 SWAP1 PUSH2 0x17EA JUMP JUMPDEST SWAP3 POP POP DUP2 SWAP1 SSTORE POP PUSH2 0xC95 JUMP JUMPDEST PUSH0 DUP1 PUSH0 DUP6 PUSH20 0xFFFFFFFFFFFFFFFFFFFFFFFFFFFFFFFFFFFFFFFF AND PUSH20 0xFFFFFFFFFFFFFFFFFFFFFFFFFFFFFFFFFFFFFFFF AND DUP2 MSTORE PUSH1 0x20 ADD SWAP1 DUP2 MSTORE PUSH1 0x20 ADD PUSH0 KECCAK256 SLOAD SWAP1 POP DUP2 DUP2 LT ISZERO PUSH2 0xC50 JUMPI DUP4 DUP2 DUP4 PUSH1 0x40 MLOAD PUSH32 0xE450D38C00000000000000000000000000000000000000000000000000000000 DUP2 MSTORE PUSH1 0x4 ADD PUSH2 0xC47 SWAP4 SWAP3 SWAP2 SWAP1 PUSH2 0x16BE JUMP JUMPDEST PUSH1 0x40 MLOAD DUP1 SWAP2 SUB SWAP1 REVERT JUMPDEST DUP2 DUP2 SUB PUSH0 DUP1 DUP7 PUSH20 0xFFFFFFFFFFFFFFFFFFFFFFFFFFFFFFFFFFFFFFFF AND PUSH20 0xFFFFFFFFFFFFFFFFFFFFFFFFFFFFFFFFFFFFFFFF AND DUP2 MSTORE PUSH1 0x20 ADD SWAP1 DUP2 MSTORE PUSH1 0x20 ADD PUSH0 KECCAK256 DUP2 SWAP1 SSTORE POP POP JUMPDEST PUSH0 PUSH20 0xFFFFFFFFFFFFFFFFFFFFFFFFFFFFFFFFFFFFFFFF AND DUP3 PUSH20 0xFFFFFFFFFFFFFFFFFFFFFFFFFFFFFFFFFFFFFFFF AND SUB PUSH2 0xCDC JUMPI DUP1 PUSH1 0x2 PUSH0 DUP3 DUP3 SLOAD SUB SWAP3 POP POP DUP2 SWAP1 SSTORE POP PUSH2 0xD26 JUMP JUMPDEST DUP1 PUSH0 DUP1 DUP5 PUSH20 0xFFFFFFFFFFFFFFFFFFFFFFFFFFFFFFFFFFFFFFFF AND PUSH20 0xFFFFFFFFFFFFFFFFFFFFFFFFFFFFFFFFFFFFFFFF AND DUP2 MSTORE PUSH1 0x20 ADD SWAP1 DUP2 MSTORE PUSH1 0x20 ADD PUSH0 KECCAK256 PUSH0 DUP3 DUP3 SLOAD ADD SWAP3 POP POP DUP2 SWAP1 SSTORE POP JUMPDEST DUP2 PUSH20 0xFFFFFFFFFFFFFFFFFFFFFFFFFFFFFFFFFFFFFFFF AND DUP4 PUSH20 0xFFFFFFFFFFFFFFFFFFFFFFFFFFFFFFFFFFFFFFFF AND PUSH32 0xDDF252AD1BE2C89B69C2B068FC378DAA952BA7F163C4A11628F55A4DF523B3EF DUP4 PUSH1 0x40 MLOAD PUSH2 0xD83 SWAP2 SWAP1 PUSH2 0x14A0 JUMP JUMPDEST PUSH1 0x40 MLOAD DUP1 SWAP2 SUB SWAP1 LOG3 POP POP POP JUMP JUMPDEST PUSH0 DUP1 PUSH2 0xD9B DUP4 PUSH2 0x1289 JUMP JUMPDEST SWAP1 POP PUSH0 DUP1 PUSH1 0x4 DUP4 PUSH2 0xDAC SWAP2 SWAP1 PUSH2 0x184A JUMP JUMPDEST EQ PUSH2 0xDB9 JUMPI PUSH2 0x16D PUSH2 0xDBD JUMP JUMPDEST PUSH2 0x16E JUMPDEST PUSH2 0xFFFF AND SWAP1 POP PUSH0 PUSH3 0x15180 DUP6 PUSH2 0xDD3 SWAP2 SWAP1 PUSH2 0x187A JUMP JUMPDEST SWAP1 POP PUSH1 0xC DUP3 PUSH2 0x7B2 DUP6 PUSH2 0xDE6 SWAP2 SWAP1 PUSH2 0x18AA JUMP JUMPDEST PUSH2 0xDF0 SWAP2 SWAP1 PUSH2 0x18DD JUMP JUMPDEST DUP3 PUSH2 0xDFB SWAP2 SWAP1 PUSH2 0x18AA JUMP JUMPDEST PUSH2 0xE05 SWAP2 SWAP1 PUSH2 0x18AA JUMP JUMPDEST SWAP4 POP POP POP POP SWAP2 SWAP1 POP JUMP JUMPDEST PUSH1 0x60 PUSH0 DUP3 SUB PUSH2 0xE55 JUMPI PUSH1 0x40 MLOAD DUP1 PUSH1 0x40 ADD PUSH1 0x40 MSTORE DUP1 PUSH1 0x1 DUP2 MSTORE PUSH1 0x20 ADD PUSH32 0x3000000000000000000000000000000000000000000000000000000000000000 DUP2 MSTORE POP SWAP1 POP PUSH2 0xF62 JUMP JUMPDEST PUSH0 DUP3 SWAP1 POP PUSH0 JUMPDEST PUSH0 DUP3 EQ PUSH2 0xE84 JUMPI DUP1 DUP1 PUSH2 0xE6D SWAP1 PUSH2 0x191E JUMP JUMPDEST SWAP2 POP POP PUSH1 0xA DUP3 PUSH2 0xE7D SWAP2 SWAP1 PUSH2 0x187A JUMP JUMPDEST SWAP2 POP PUSH2 0xE5B JUMP JUMPDEST PUSH0 DUP2 PUSH8 0xFFFFFFFFFFFFFFFF DUP2 GT ISZERO PUSH2 0xE9F JUMPI PUSH2 0xE9E PUSH2 0x1965 JUMP JUMPDEST JUMPDEST PUSH1 0x40 MLOAD SWAP1 DUP1 DUP3 MSTORE DUP1 PUSH1 0x1F ADD PUSH1 0x1F NOT AND PUSH1 0x20 ADD DUP3 ADD PUSH1 0x40 MSTORE DUP1 ISZERO PUSH2 0xED1 JUMPI DUP2 PUSH1 0x20 ADD PUSH1 0x1 DUP3 MUL DUP1 CALLDATASIZE DUP4 CALLDATACOPY DUP1 DUP3 ADD SWAP2 POP POP SWAP1 POP JUMPDEST POP SWAP1 POP JUMPDEST PUSH0 DUP6 EQ PUSH2 0xF5B JUMPI DUP2 DUP1 PUSH2 0xEE7 SWAP1 PUSH2 0x1992 JUMP JUMPDEST SWAP3 POP POP PUSH1 0xA DUP6 PUSH2 0xEF7 SWAP2 SWAP1 PUSH2 0x184A JUMP JUMPDEST PUSH1 0x30 PUSH2 0xF03 SWAP2 SWAP1 PUSH2 0x17EA JUMP JUMPDEST PUSH1 0xF8 SHL DUP2 DUP4 DUP2 MLOAD DUP2 LT PUSH2 0xF19 JUMPI PUSH2 0xF18 PUSH2 0x19B9 JUMP JUMPDEST JUMPDEST PUSH1 0x20 ADD ADD SWAP1 PUSH31 0xFFFFFFFFFFFFFFFFFFFFFFFFFFFFFFFFFFFFFFFFFFFFFFFFFFFFFFFFFFFFFF NOT AND SWAP1 DUP2 PUSH0 BYTE SWAP1 MSTORE8 POP PUSH1 0xA DUP6 PUSH2 0xF54 SWAP2 SWAP1 PUSH2 0x187A JUMP JUMPDEST SWAP5 POP PUSH2 0xED5 JUMP JUMPDEST DUP1 SWAP4 POP POP POP POP JUMPDEST SWAP2 SWAP1 POP JUMP JUMPDEST PUSH0 DUP1 PUSH2 0xF72 DUP4 PUSH2 0x1289 JUMP JUMPDEST SWAP1 POP PUSH0 DUP1 PUSH1 0x4 DUP4 PUSH2 0xF83 SWAP2 SWAP1 PUSH2 0x184A JUMP JUMPDEST EQ PUSH2 0xF90 JUMPI PUSH2 0x16D PUSH2 0xF94 JUMP JUMPDEST PUSH2 0x16E JUMPDEST PUSH2 0xFFFF AND SWAP1 POP PUSH0 PUSH2 0xFA4 DUP6 PUSH2 0xD90 JUMP JUMPDEST SWAP1 POP PUSH1 0x1F DUP2 GT PUSH2 0xFBA JUMPI PUSH1 0x1 SWAP4 POP POP POP POP PUSH2 0x1284 JUMP JUMPDEST PUSH1 0x3B DUP2 GT ISZERO DUP1 ISZERO PUSH2 0xFCC JUMPI POP PUSH2 0x16D DUP3 EQ JUMPDEST ISZERO PUSH2 0xFDD JUMPI PUSH1 0x2 SWAP4 POP POP POP POP PUSH2 0x1284 JUMP JUMPDEST PUSH1 0x3C DUP2 GT ISZERO DUP1 ISZERO PUSH2 0xFEF JUMPI POP PUSH2 0x16E DUP3 EQ JUMPDEST ISZERO PUSH2 0x1000 JUMPI PUSH1 0x2 SWAP4 POP POP POP POP PUSH2 0x1284 JUMP JUMPDEST PUSH1 0x5A DUP2 GT ISZERO DUP1 ISZERO PUSH2 0x1012 JUMPI POP PUSH2 0x16D DUP3 EQ JUMPDEST ISZERO PUSH2 0x1023 JUMPI PUSH1 0x3 SWAP4 POP POP POP POP PUSH2 0x1284 JUMP JUMPDEST PUSH1 0x5B DUP2 GT ISZERO DUP1 ISZERO PUSH2 0x1035 JUMPI POP PUSH2 0x16E DUP3 EQ JUMPDEST ISZERO PUSH2 0x1046 JUMPI PUSH1 0x3 SWAP4 POP POP POP POP PUSH2 0x1284 JUMP JUMPDEST PUSH1 0x78 DUP2 GT ISZERO DUP1 ISZERO PUSH2 0x1058 JUMPI POP PUSH2 0x16D DUP3 EQ JUMPDEST ISZERO PUSH2 0x1069 JUMPI PUSH1 0x4 SWAP4 POP POP POP POP PUSH2 0x1284 JUMP JUMPDEST PUSH1 0x79 DUP2 GT ISZERO DUP1 ISZERO PUSH2 0x107B JUMPI POP PUSH2 0x16E DUP3 EQ JUMPDEST ISZERO PUSH2 0x108C JUMPI PUSH1 0x4 SWAP4 POP POP POP POP PUSH2 0x1284 JUMP JUMPDEST PUSH1 0x97 DUP2 GT ISZERO DUP1 ISZERO PUSH2 0x109E JUMPI POP PUSH2 0x16D DUP3 EQ JUMPDEST ISZERO PUSH2 0x10AF JUMPI PUSH1 0x5 SWAP4 POP POP POP POP PUSH2 0x1284 JUMP JUMPDEST PUSH1 0x98 DUP2 GT ISZERO DUP1 ISZERO PUSH2 0x10C1 JUMPI POP PUSH2 0x16E DUP3 EQ JUMPDEST ISZERO PUSH2 0x10D2 JUMPI PUSH1 0x5 SWAP4 POP POP POP POP PUSH2 0x1284 JUMP JUMPDEST PUSH1 0xB5 DUP2 GT ISZERO DUP1 ISZERO PUSH2 0x10E4 JUMPI POP PUSH2 0x16D DUP3 EQ JUMPDEST ISZERO PUSH2 0x10F5 JUMPI PUSH1 0x6 SWAP4 POP POP POP POP PUSH2 0x1284 JUMP JUMPDEST PUSH1 0xB6 DUP2 GT ISZERO DUP1 ISZERO PUSH2 0x1107 JUMPI POP PUSH2 0x16E DUP3 EQ JUMPDEST ISZERO PUSH2 0x1118 JUMPI PUSH1 0x6 SWAP4 POP POP POP POP PUSH2 0x1284 JUMP JUMPDEST PUSH1 0xD4 DUP2 GT ISZERO DUP1 ISZERO PUSH2 0x112A JUMPI POP PUSH2 0x16D DUP3 EQ JUMPDEST ISZERO PUSH2 0x113B JUMPI PUSH1 0x7 SWAP4 POP POP POP POP PUSH2 0x1284 JUMP JUMPDEST PUSH1 0xD5 DUP2 GT ISZERO DUP1 ISZERO PUSH2 0x114D JUMPI POP PUSH2 0x16E DUP3 EQ JUMPDEST ISZERO PUSH2 0x115E JUMPI PUSH1 0x7 SWAP4 POP POP POP POP PUSH2 0x1284 JUMP JUMPDEST PUSH1 0xF3 DUP2 GT ISZERO DUP1 ISZERO PUSH2 0x1170 JUMPI POP PUSH2 0x16D DUP3 EQ JUMPDEST ISZERO PUSH2 0x1181 JUMPI PUSH1 0x8 SWAP4 POP POP POP POP PUSH2 0x1284 JUMP JUMPDEST PUSH1 0xF4 DUP2 GT ISZERO DUP1 ISZERO PUSH2 0x1193 JUMPI POP PUSH2 0x16E DUP3 EQ JUMPDEST ISZERO PUSH2 0x11A4 JUMPI PUSH1 0x8 SWAP4 POP POP POP POP PUSH2 0x1284 JUMP JUMPDEST PUSH2 0x111 DUP2 GT ISZERO DUP1 ISZERO PUSH2 0x11B7 JUMPI POP PUSH2 0x16D DUP3 EQ JUMPDEST ISZERO PUSH2 0x11C8 JUMPI PUSH1 0x9 SWAP4 POP POP POP POP PUSH2 0x1284 JUMP JUMPDEST PUSH2 0x112 DUP2 GT ISZERO DUP1 ISZERO PUSH2 0x11DB JUMPI POP PUSH2 0x16E DUP3 EQ JUMPDEST ISZERO PUSH2 0x11EC JUMPI PUSH1 0x9 SWAP4 POP POP POP POP PUSH2 0x1284 JUMP JUMPDEST PUSH2 0x130 DUP2 GT ISZERO DUP1 ISZERO PUSH2 0x11FF JUMPI POP PUSH2 0x16D DUP3 EQ JUMPDEST ISZERO PUSH2 0x1210 JUMPI PUSH1 0xA SWAP4 POP POP POP POP PUSH2 0x1284 JUMP JUMPDEST PUSH2 0x131 DUP2 GT ISZERO DUP1 ISZERO PUSH2 0x1223 JUMPI POP PUSH2 0x16E DUP3 EQ JUMPDEST ISZERO PUSH2 0x1234 JUMPI PUSH1 0xA SWAP4 POP POP POP POP PUSH2 0x1284 JUMP JUMPDEST PUSH2 0x14E DUP2 GT ISZERO DUP1 ISZERO PUSH2 0x1247 JUMPI POP PUSH2 0x16D DUP3 EQ JUMPDEST ISZERO PUSH2 0x1258 JUMPI PUSH1 0xB SWAP4 POP POP POP POP PUSH2 0x1284 JUMP JUMPDEST PUSH2 0x14F DUP2 GT ISZERO DUP1 ISZERO PUSH2 0x126B JUMPI POP PUSH2 0x16E DUP3 EQ JUMPDEST ISZERO PUSH2 0x127C JUMPI PUSH1 0xB SWAP4 POP POP POP POP PUSH2 0x1284 JUMP JUMPDEST PUSH1 0xC SWAP4 POP POP POP POP JUMPDEST SWAP2 SWAP1 POP JUMP JUMPDEST PUSH0 DUP1 PUSH1 0x4 DUP4 PUSH2 0x1298 SWAP2 SWAP1 PUSH2 0x187A JUMP JUMPDEST SWAP1 POP PUSH2 0x7B3 PUSH4 0x1E28500 DUP3 PUSH2 0x12AD SWAP2 SWAP1 PUSH2 0x187A JUMP JUMPDEST PUSH4 0x1E13380 DUP4 PUSH1 0x3 PUSH2 0x12BF SWAP2 SWAP1 PUSH2 0x18DD JUMP JUMPDEST PUSH2 0x12C9 SWAP2 SWAP1 PUSH2 0x187A JUMP JUMPDEST PUSH2 0x12D3 SWAP2 SWAP1 PUSH2 0x17EA JUMP JUMPDEST PUSH2 0x12DD SWAP2 SWAP1 PUSH2 0x17EA JUMP JUMPDEST SWAP2 POP POP SWAP2 SWAP1 POP JUMP JUMPDEST PUSH0 DUP2 MLOAD SWAP1 POP SWAP2 SWAP1 POP JUMP JUMPDEST PUSH0 DUP3 DUP3 MSTORE PUSH1 0x20 DUP3 ADD SWAP1 POP SWAP3 SWAP2 POP POP JUMP JUMPDEST PUSH0 JUMPDEST DUP4 DUP2 LT ISZERO PUSH2 0x131C JUMPI DUP1 DUP3 ADD MLOAD DUP2 DUP5 ADD MSTORE PUSH1 0x20 DUP2 ADD SWAP1 POP PUSH2 0x1301 JUMP JUMPDEST PUSH0 DUP5 DUP5 ADD MSTORE POP POP POP POP JUMP JUMPDEST PUSH0 PUSH1 0x1F NOT PUSH1 0x1F DUP4 ADD AND SWAP1 POP SWAP2 SWAP1 POP JUMP JUMPDEST PUSH0 PUSH2 0x1341 DUP3 PUSH2 0x12E5 JUMP JUMPDEST PUSH2 0x134B DUP2 DUP6 PUSH2 0x12EF JUMP JUMPDEST SWAP4 POP PUSH2 0x135B DUP2 DUP6 PUSH1 0x20 DUP7 ADD PUSH2 0x12FF JUMP JUMPDEST PUSH2 0x1364 DUP2 PUSH2 0x1327 JUMP JUMPDEST DUP5 ADD SWAP2 POP POP SWAP3 SWAP2 POP POP JUMP JUMPDEST PUSH0 PUSH1 0x20 DUP3 ADD SWAP1 POP DUP2 DUP2 SUB PUSH0 DUP4 ADD MSTORE PUSH2 0x1387 DUP2 DUP5 PUSH2 0x1337 JUMP JUMPDEST SWAP1 POP SWAP3 SWAP2 POP POP JUMP JUMPDEST PUSH0 DUP1 REVERT JUMPDEST PUSH0 PUSH20 0xFFFFFFFFFFFFFFFFFFFFFFFFFFFFFFFFFFFFFFFF DUP3 AND SWAP1 POP SWAP2 SWAP1 POP JUMP JUMPDEST PUSH0 PUSH2 0x13BC DUP3 PUSH2 0x1393 JUMP JUMPDEST SWAP1 POP SWAP2 SWAP1 POP JUMP JUMPDEST PUSH2 0x13CC DUP2 PUSH2 0x13B2 JUMP JUMPDEST DUP2 EQ PUSH2 0x13D6 JUMPI PUSH0 DUP1 REVERT JUMPDEST POP JUMP JUMPDEST PUSH0 DUP2 CALLDATALOAD SWAP1 POP PUSH2 0x13E7 DUP2 PUSH2 0x13C3 JUMP JUMPDEST SWAP3 SWAP2 POP POP JUMP JUMPDEST PUSH0 DUP2 SWAP1 POP SWAP2 SWAP1 POP JUMP JUMPDEST PUSH2 0x13FF DUP2 PUSH2 0x13ED JUMP JUMPDEST DUP2 EQ PUSH2 0x1409 JUMPI PUSH0 DUP1 REVERT JUMPDEST POP JUMP JUMPDEST PUSH0 DUP2 CALLDATALOAD SWAP1 POP PUSH2 0x141A DUP2 PUSH2 0x13F6 JUMP JUMPDEST SWAP3 SWAP2 POP POP JUMP JUMPDEST PUSH0 DUP1 PUSH1 0x40 DUP4 DUP6 SUB SLT ISZERO PUSH2 0x1436 JUMPI PUSH2 0x1435 PUSH2 0x138F JUMP JUMPDEST JUMPDEST PUSH0 PUSH2 0x1443 DUP6 DUP3 DUP7 ADD PUSH2 0x13D9 JUMP JUMPDEST SWAP3 POP POP PUSH1 0x20 PUSH2 0x1454 DUP6 DUP3 DUP7 ADD PUSH2 0x140C JUMP JUMPDEST SWAP2 POP POP SWAP3 POP SWAP3 SWAP1 POP JUMP JUMPDEST PUSH0 DUP2 ISZERO ISZERO SWAP1 POP SWAP2 SWAP1 POP JUMP JUMPDEST PUSH2 0x1472 DUP2 PUSH2 0x145E JUMP JUMPDEST DUP3 MSTORE POP POP JUMP JUMPDEST PUSH0 PUSH1 0x20 DUP3 ADD SWAP1 POP PUSH2 0x148B PUSH0 DUP4 ADD DUP5 PUSH2 0x1469 JUMP JUMPDEST SWAP3 SWAP2 POP POP JUMP JUMPDEST PUSH2 0x149A DUP2 PUSH2 0x13ED JUMP JUMPDEST DUP3 MSTORE POP POP JUMP JUMPDEST PUSH0 PUSH1 0x20 DUP3 ADD SWAP1 POP PUSH2 0x14B3 PUSH0 DUP4 ADD DUP5 PUSH2 0x1491 JUMP JUMPDEST SWAP3 SWAP2 POP POP JUMP JUMPDEST PUSH0 DUP1 PUSH0 PUSH1 0x60 DUP5 DUP7 SUB SLT ISZERO PUSH2 0x14D0 JUMPI PUSH2 0x14CF PUSH2 0x138F JUMP JUMPDEST JUMPDEST PUSH0 PUSH2 0x14DD DUP7 DUP3 DUP8 ADD PUSH2 0x13D9 JUMP JUMPDEST SWAP4 POP POP PUSH1 0x20 PUSH2 0x14EE DUP7 DUP3 DUP8 ADD PUSH2 0x13D9 JUMP JUMPDEST SWAP3 POP POP PUSH1 0x40 PUSH2 0x14FF DUP7 DUP3 DUP8 ADD PUSH2 0x140C JUMP JUMPDEST SWAP2 POP POP SWAP3 POP SWAP3 POP SWAP3 JUMP JUMPDEST PUSH0 PUSH1 0xFF DUP3 AND SWAP1 POP SWAP2 SWAP1 POP JUMP JUMPDEST PUSH2 0x151E DUP2 PUSH2 0x1509 JUMP JUMPDEST DUP3 MSTORE POP POP JUMP JUMPDEST PUSH0 PUSH1 0x20 DUP3 ADD SWAP1 POP PUSH2 0x1537 PUSH0 DUP4 ADD DUP5 PUSH2 0x1515 JUMP JUMPDEST SWAP3 SWAP2 POP POP JUMP JUMPDEST PUSH0 PUSH1 0x20 DUP3 DUP5 SUB SLT ISZERO PUSH2 0x1552 JUMPI PUSH2 0x1551 PUSH2 0x138F JUMP JUMPDEST JUMPDEST PUSH0 PUSH2 0x155F DUP5 DUP3 DUP6 ADD PUSH2 0x140C JUMP JUMPDEST SWAP2 POP POP SWAP3 SWAP2 POP POP JUMP JUMPDEST PUSH0 PUSH1 0x20 DUP3 DUP5 SUB SLT ISZERO PUSH2 0x157D JUMPI PUSH2 0x157C PUSH2 0x138F JUMP JUMPDEST JUMPDEST PUSH0 PUSH2 0x158A DUP5 DUP3 DUP6 ADD PUSH2 0x13D9 JUMP JUMPDEST SWAP2 POP POP SWAP3 SWAP2 POP POP JUMP JUMPDEST PUSH2 0x159C DUP2 PUSH2 0x13B2 JUMP JUMPDEST DUP3 MSTORE POP POP JUMP JUMPDEST PUSH0 PUSH1 0x20 DUP3 ADD SWAP1 POP PUSH2 0x15B5 PUSH0 DUP4 ADD DUP5 PUSH2 0x1593 JUMP JUMPDEST SWAP3 SWAP2 POP POP JUMP JUMPDEST PUSH0 DUP1 PUSH1 0x40 DUP4 DUP6 SUB SLT ISZERO PUSH2 0x15D1 JUMPI PUSH2 0x15D0 PUSH2 0x138F JUMP JUMPDEST JUMPDEST PUSH0 PUSH2 0x15DE DUP6 DUP3 DUP7 ADD PUSH2 0x13D9 JUMP JUMPDEST SWAP3 POP POP PUSH1 0x20 PUSH2 0x15EF DUP6 DUP3 DUP7 ADD PUSH2 0x13D9 JUMP JUMPDEST SWAP2 POP POP SWAP3 POP SWAP3 SWAP1 POP JUMP JUMPDEST PUSH32 0x4E487B7100000000000000000000000000000000000000000000000000000000 PUSH0 MSTORE PUSH1 0x22 PUSH1 0x4 MSTORE PUSH1 0x24 PUSH0 REVERT JUMPDEST PUSH0 PUSH1 0x2 DUP3 DIV SWAP1 POP PUSH1 0x1 DUP3 AND DUP1 PUSH2 0x163D JUMPI PUSH1 0x7F DUP3 AND SWAP2 POP JUMPDEST PUSH1 0x20 DUP3 LT DUP2 SUB PUSH2 0x1650 JUMPI PUSH2 0x164F PUSH2 0x15F9 JUMP JUMPDEST JUMPDEST POP SWAP2 SWAP1 POP JUMP JUMPDEST PUSH32 0x4F6E6C792061646D696E00000000000000000000000000000000000000000000 PUSH0 DUP3 ADD MSTORE POP JUMP JUMPDEST PUSH0 PUSH2 0x168A PUSH1 0xA DUP4 PUSH2 0x12EF JUMP JUMPDEST SWAP2 POP PUSH2 0x1695 DUP3 PUSH2 0x1656 JUMP JUMPDEST PUSH1 0x20 DUP3 ADD SWAP1 POP SWAP2 SWAP1 POP JUMP JUMPDEST PUSH0 PUSH1 0x20 DUP3 ADD SWAP1 POP DUP2 DUP2 SUB PUSH0 DUP4 ADD MSTORE PUSH2 0x16B7 DUP2 PUSH2 0x167E JUMP JUMPDEST SWAP1 POP SWAP2 SWAP1 POP JUMP JUMPDEST PUSH0 PUSH1 0x60 DUP3 ADD SWAP1 POP PUSH2 0x16D1 PUSH0 DUP4 ADD DUP7 PUSH2 0x1593 JUMP JUMPDEST PUSH2 0x16DE PUSH1 0x20 DUP4 ADD DUP6 PUSH2 0x1491 JUMP JUMPDEST PUSH2 0x16EB PUSH1 0x40 DUP4 ADD DUP5 PUSH2 0x1491 JUMP JUMPDEST SWAP5 SWAP4 POP POP POP POP JUMP JUMPDEST PUSH0 DUP2 SWAP1 POP SWAP3 SWAP2 POP POP JUMP JUMPDEST PUSH0 PUSH2 0x1707 DUP3 PUSH2 0x12E5 JUMP JUMPDEST PUSH2 0x1711 DUP2 DUP6 PUSH2 0x16F3 JUMP JUMPDEST SWAP4 POP PUSH2 0x1721 DUP2 DUP6 PUSH1 0x20 DUP7 ADD PUSH2 0x12FF JUMP JUMPDEST DUP1 DUP5 ADD SWAP2 POP POP SWAP3 SWAP2 POP POP JUMP JUMPDEST PUSH32 0x2F00000000000000000000000000000000000000000000000000000000000000 PUSH0 DUP3 ADD MSTORE POP JUMP JUMPDEST PUSH0 PUSH2 0x1761 PUSH1 0x1 DUP4 PUSH2 0x16F3 JUMP JUMPDEST SWAP2 POP PUSH2 0x176C DUP3 PUSH2 0x172D JUMP JUMPDEST PUSH1 0x1 DUP3 ADD SWAP1 POP SWAP2 SWAP1 POP JUMP JUMPDEST PUSH0 PUSH2 0x1782 DUP3 DUP7 PUSH2 0x16FD JUMP JUMPDEST SWAP2 POP PUSH2 0x178D DUP3 PUSH2 0x1755 JUMP JUMPDEST SWAP2 POP PUSH2 0x1799 DUP3 DUP6 PUSH2 0x16FD JUMP JUMPDEST SWAP2 POP PUSH2 0x17A4 DUP3 PUSH2 0x1755 JUMP JUMPDEST SWAP2 POP PUSH2 0x17B0 DUP3 DUP5 PUSH2 0x16FD JUMP JUMPDEST SWAP2 POP DUP2 SWAP1 POP SWAP5 SWAP4 POP POP POP POP JUMP JUMPDEST PUSH32 0x4E487B7100000000000000000000000000000000000000000000000000000000 PUSH0 MSTORE PUSH1 0x11 PUSH1 0x4 MSTORE PUSH1 0x24 PUSH0 REVERT JUMPDEST PUSH0 PUSH2 0x17F4 DUP3 PUSH2 0x13ED JUMP JUMPDEST SWAP2 POP PUSH2 0x17FF DUP4 PUSH2 0x13ED JUMP JUMPDEST SWAP3 POP DUP3 DUP3 ADD SWAP1 POP DUP1 DUP3 GT ISZERO PUSH2 0x1817 JUMPI PUSH2 0x1816 PUSH2 0x17BD JUMP JUMPDEST JUMPDEST SWAP3 SWAP2 POP POP JUMP JUMPDEST PUSH32 0x4E487B7100000000000000000000000000000000000000000000000000000000 PUSH0 MSTORE PUSH1 0x12 PUSH1 0x4 MSTORE PUSH1 0x24 PUSH0 REVERT JUMPDEST PUSH0 PUSH2 0x1854 DUP3 PUSH2 0x13ED JUMP JUMPDEST SWAP2 POP PUSH2 0x185F DUP4 PUSH2 0x13ED JUMP JUMPDEST SWAP3 POP DUP3 PUSH2 0x186F JUMPI PUSH2 0x186E PUSH2 0x181D JUMP JUMPDEST JUMPDEST DUP3 DUP3 MOD SWAP1 POP SWAP3 SWAP2 POP POP JUMP JUMPDEST PUSH0 PUSH2 0x1884 DUP3 PUSH2 0x13ED JUMP JUMPDEST SWAP2 POP PUSH2 0x188F DUP4 PUSH2 0x13ED JUMP JUMPDEST SWAP3 POP DUP3 PUSH2 0x189F JUMPI PUSH2 0x189E PUSH2 0x181D JUMP JUMPDEST JUMPDEST DUP3 DUP3 DIV SWAP1 POP SWAP3 SWAP2 POP POP JUMP JUMPDEST PUSH0 PUSH2 0x18B4 DUP3 PUSH2 0x13ED JUMP JUMPDEST SWAP2 POP PUSH2 0x18BF DUP4 PUSH2 0x13ED JUMP JUMPDEST SWAP3 POP DUP3 DUP3 SUB SWAP1 POP DUP2 DUP2 GT ISZERO PUSH2 0x18D7 JUMPI PUSH2 0x18D6 PUSH2 0x17BD JUMP JUMPDEST JUMPDEST SWAP3 SWAP2 POP POP JUMP JUMPDEST PUSH0 PUSH2 0x18E7 DUP3 PUSH2 0x13ED JUMP JUMPDEST SWAP2 POP PUSH2 0x18F2 DUP4 PUSH2 0x13ED JUMP JUMPDEST SWAP3 POP DUP3 DUP3 MUL PUSH2 0x1900 DUP2 PUSH2 0x13ED JUMP JUMPDEST SWAP2 POP DUP3 DUP3 DIV DUP5 EQ DUP4 ISZERO OR PUSH2 0x1917 JUMPI PUSH2 0x1916 PUSH2 0x17BD JUMP JUMPDEST JUMPDEST POP SWAP3 SWAP2 POP POP JUMP JUMPDEST PUSH0 PUSH2 0x1928 DUP3 PUSH2 0x13ED JUMP JUMPDEST SWAP2 POP PUSH32 0xFFFFFFFFFFFFFFFFFFFFFFFFFFFFFFFFFFFFFFFFFFFFFFFFFFFFFFFFFFFFFFFF DUP3 SUB PUSH2 0x195A JUMPI PUSH2 0x1959 PUSH2 0x17BD JUMP JUMPDEST JUMPDEST PUSH1 0x1 DUP3 ADD SWAP1 POP SWAP2 SWAP1 POP JUMP JUMPDEST PUSH32 0x4E487B7100000000000000000000000000000000000000000000000000000000 PUSH0 MSTORE PUSH1 0x41 PUSH1 0x4 MSTORE PUSH1 0x24 PUSH0 REVERT JUMPDEST PUSH0 PUSH2 0x199C DUP3 PUSH2 0x13ED JUMP JUMPDEST SWAP2 POP PUSH0 DUP3 SUB PUSH2 0x19AE JUMPI PUSH2 0x19AD PUSH2 0x17BD JUMP JUMPDEST JUMPDEST PUSH1 0x1 DUP3 SUB SWAP1 POP SWAP2 SWAP1 POP JUMP JUMPDEST PUSH32 0x4E487B7100000000000000000000000000000000000000000000000000000000 PUSH0 MSTORE PUSH1 0x32 PUSH1 0x4 MSTORE PUSH1 0x24 PUSH0 REVERT INVALID LOG2 PUSH5 0x6970667358 0x22 SLT KECCAK256 0xE7 DELEGATECALL BLOCKHASH EQ 0xC7 0xBF PUSH12 0x65F3FE1F67C6FDBB8A39E0FB 0xAE PUSH30 0x82FA872A9C27281F40C0D464736F6C634300081600330000000000000000 "
				},
				"gasEstimates": {
					"creation": {
						"codeDepositCost": "1336800",
						"executionCost": "infinite",
						"totalCost": "infinite"
					},
					"external": {
						"INITIAL_SUPPLY()": "348",
						"admin()": "2596",
						"allowance(address,address)": "infinite",
						"approve(address,uint256)": "infinite",
						"balanceOf(address)": "2852",
						"burn(uint256)": "infinite",
						"decimals()": "383",
						"getLatestTransactionTimestamp()": "infinite",
						"getTransactionReceiver()": "424",
						"getTransactionSender()": "435",
						"mint(address,uint256)": "infinite",
						"name()": "infinite",
						"symbol()": "infinite",
						"totalSupply()": "2500",
						"transfer(address,uint256)": "infinite",
						"transferFrom(address,address,uint256)": "infinite"
					},
					"internal": {
						"toDate(uint256)": "infinite",
						"toDay(uint256)": "infinite",
						"toMonth(uint256)": "infinite",
						"toYear(uint256)": "infinite",
						"uint256ToString(uint256)": "infinite"
					}
				},
				"methodIdentifiers": {
					"INITIAL_SUPPLY()": "2ff2e9dc",
					"admin()": "f851a440",
					"allowance(address,address)": "dd62ed3e",
					"approve(address,uint256)": "095ea7b3",
					"balanceOf(address)": "70a08231",
					"burn(uint256)": "42966c68",
					"decimals()": "313ce567",
					"getLatestTransactionTimestamp()": "d45e3f4a",
					"getTransactionReceiver()": "841b39fc",
					"getTransactionSender()": "bead3f50",
					"mint(address,uint256)": "40c10f19",
					"name()": "06fdde03",
					"symbol()": "95d89b41",
					"totalSupply()": "18160ddd",
					"transfer(address,uint256)": "a9059cbb",
					"transferFrom(address,address,uint256)": "23b872dd"
				}
			},
			"storageLayout": {
				"storage": [
					{
						"astId": 159,
						"contract": "contracts/HelloWorld5.sol:MGNToken",
						"label": "_balances",
						"offset": 0,
						"slot": "0",
						"type": "t_mapping(t_address,t_uint256)"
					},
					{
						"astId": 165,
						"contract": "contracts/HelloWorld5.sol:MGNToken",
						"label": "_allowances",
						"offset": 0,
						"slot": "1",
						"type": "t_mapping(t_address,t_mapping(t_address,t_uint256))"
					},
					{
						"astId": 167,
						"contract": "contracts/HelloWorld5.sol:MGNToken",
						"label": "_totalSupply",
						"offset": 0,
						"slot": "2",
						"type": "t_uint256"
					},
					{
						"astId": 169,
						"contract": "contracts/HelloWorld5.sol:MGNToken",
						"label": "_name",
						"offset": 0,
						"slot": "3",
						"type": "t_string_storage"
					},
					{
						"astId": 171,
						"contract": "contracts/HelloWorld5.sol:MGNToken",
						"label": "_symbol",
						"offset": 0,
						"slot": "4",
						"type": "t_string_storage"
					},
					{
						"astId": 792,
						"contract": "contracts/HelloWorld5.sol:MGNToken",
						"label": "admin",
						"offset": 0,
						"slot": "5",
						"type": "t_address"
					}
				],
				"types": {
					"t_address": {
						"encoding": "inplace",
						"label": "address",
						"numberOfBytes": "20"
					},
					"t_mapping(t_address,t_mapping(t_address,t_uint256))": {
						"encoding": "mapping",
						"key": "t_address",
						"label": "mapping(address => mapping(address => uint256))",
						"numberOfBytes": "32",
						"value": "t_mapping(t_address,t_uint256)"
					},
					"t_mapping(t_address,t_uint256)": {
						"encoding": "mapping",
						"key": "t_address",
						"label": "mapping(address => uint256)",
						"numberOfBytes": "32",
						"value": "t_uint256"
					},
					"t_string_storage": {
						"encoding": "bytes",
						"label": "string",
						"numberOfBytes": "32"
					},
					"t_uint256": {
						"encoding": "inplace",
						"label": "uint256",
						"numberOfBytes": "32"
					}
				}
			},
			"userdoc": {
				"kind": "user",
				"methods": {},
				"version": 1
			}
		}
	}
}